{"abi":[{"type":"constructor","inputs":[{"name":"initialMaxStalenessSeconds","type":"uint256","internalType":"uint256"}],"stateMutability":"nonpayable"},{"type":"function","name":"admin","inputs":[],"outputs":[{"name":"","type":"address","internalType":"address"}],"stateMutability":"view"},{"type":"function","name":"feedsByToken","inputs":[{"name":"","type":"address","internalType":"address"}],"outputs":[{"name":"","type":"address","internalType":"address"}],"stateMutability":"view"},{"type":"function","name":"getPrice","inputs":[{"name":"token","type":"address","internalType":"address"}],"outputs":[{"name":"price","type":"uint256","internalType":"uint256"},{"name":"decimals","type":"uint256","internalType":"uint256"}],"stateMutability":"view"},{"type":"function","name":"maxStalenessSeconds","inputs":[],"outputs":[{"name":"","type":"uint256","internalType":"uint256"}],"stateMutability":"view"},{"type":"function","name":"setFeed","inputs":[{"name":"token","type":"address","internalType":"address"},{"name":"feed","type":"address","internalType":"address"}],"outputs":[],"stateMutability":"nonpayable"},{"type":"function","name":"setMaxStalenessSeconds","inputs":[{"name":"newMaxStalenessSeconds","type":"uint256","internalType":"uint256"}],"outputs":[],"stateMutability":"nonpayable"},{"type":"event","name":"FeedSet","inputs":[{"name":"token","type":"address","indexed":true,"internalType":"address"},{"name":"feed","type":"address","indexed":true,"internalType":"address"}],"anonymous":false},{"type":"event","name":"MaxStalenessSet","inputs":[{"name":"oldMaxStalenessSeconds","type":"uint256","indexed":false,"internalType":"uint256"},{"name":"newMaxStalenessSeconds","type":"uint256","indexed":false,"internalType":"uint256"}],"anonymous":false}],"bytecode":{"object":"0x608060405234801561000f575f5ffd5b5060405161128e38038061128e833981810160405281019061003191906100f6565b5f8111610073576040517f08c379a000000000000000000000000000000000000000000000000000000000815260040161006a9061017b565b60405180910390fd5b335f5f6101000a81548173ffffffffffffffffffffffffffffffffffffffff021916908373ffffffffffffffffffffffffffffffffffffffff1602179055508060018190555050610199565b5f5ffd5b5f819050919050565b6100d5816100c3565b81146100df575f5ffd5b50565b5f815190506100f0816100cc565b92915050565b5f6020828403121561010b5761010a6100bf565b5b5f610118848285016100e2565b91505092915050565b5f82825260208201905092915050565b7f496e76616c6964206d6178207374616c656e65737300000000000000000000005f82015250565b5f610165601583610121565b915061017082610131565b602082019050919050565b5f6020820190508181035f83015261019281610159565b9050919050565b6110e8806101a65f395ff3fe608060405234801561000f575f5ffd5b5060043610610060575f3560e01c806330e4dfb7146100645780633afba55c1461009457806340b1eb10146100b257806341976e09146100ce5780636cb11bca146100ff578063f851a4401461011b575b5f5ffd5b61007e6004803603810190610079919061088c565b610139565b60405161008b91906108c6565b60405180910390f35b61009c610169565b6040516100a991906108f7565b60405180910390f35b6100cc60048036038101906100c79190610910565b61016f565b005b6100e860048036038101906100e3919061088c565b6103b2565b6040516100f692919061094e565b60405180910390f35b6101196004803603810190610114919061099f565b6106f5565b005b61012361080a565b60405161013091906108c6565b60405180910390f35b6002602052805f5260405f205f915054906101000a900473ffffffffffffffffffffffffffffffffffffffff1681565b60015481565b5f5f9054906101000a900473ffffffffffffffffffffffffffffffffffffffff1673ffffffffffffffffffffffffffffffffffffffff163373ffffffffffffffffffffffffffffffffffffffff16146101fd576040517f08c379a00000000000000000000000000000000000000000000000000000000081526004016101f490610a4a565b60405180910390fd5b5f73ffffffffffffffffffffffffffffffffffffffff168273ffffffffffffffffffffffffffffffffffffffff160361026b576040517f08c379a000000000000000000000000000000000000000000000000000000000815260040161026290610ab2565b60405180910390fd5b5f73ffffffffffffffffffffffffffffffffffffffff168173ffffffffffffffffffffffffffffffffffffffff16036102d9576040517f08c379a00000000000000000000000000000000000000000000000000000000081526004016102d090610b1a565b60405180910390fd5b8060025f8473ffffffffffffffffffffffffffffffffffffffff1673ffffffffffffffffffffffffffffffffffffffff1681526020019081526020015f205f6101000a81548173ffffffffffffffffffffffffffffffffffffffff021916908373ffffffffffffffffffffffffffffffffffffffff1602179055508073ffffffffffffffffffffffffffffffffffffffff168273ffffffffffffffffffffffffffffffffffffffff167f3206e79c8cb385b303820bc579358c388d2f7539de2fa2f24644faf6bd0354d160405160405180910390a35050565b5f5f5f60025f8573ffffffffffffffffffffffffffffffffffffffff1673ffffffffffffffffffffffffffffffffffffffff1681526020019081526020015f205f9054906101000a900473ffffffffffffffffffffffffffffffffffffffff1690505f73ffffffffffffffffffffffffffffffffffffffff168173ffffffffffffffffffffffffffffffffffffffff1603610482576040517f08c379a000000000000000000000000000000000000000000000000000000000815260040161047990610ba8565b60405180910390fd5b5f8190505f5f5f5f8473ffffffffffffffffffffffffffffffffffffffff1663feaf968c6040518163ffffffff1660e01b815260040160a060405180830381865afa1580156104d3573d5f5f3e3d5ffd5b505050506040513d601f19601f820116820180604052508101906104f79190610c4c565b9450945050935093505f8313610542576040517f08c379a000000000000000000000000000000000000000000000000000000000815260040161053990610d33565b60405180910390fd5b5f8203610584576040517f08c379a000000000000000000000000000000000000000000000000000000000815260040161057b90610dc1565b60405180910390fd5b8369ffffffffffffffffffff168169ffffffffffffffffffff1610156105df576040517f08c379a00000000000000000000000000000000000000000000000000000000081526004016105d690610e4f565b60405180910390fd5b81421015610622576040517f08c379a000000000000000000000000000000000000000000000000000000000815260040161061990610edd565b60405180910390fd5b60015482426106319190610f28565b1115610672576040517f08c379a000000000000000000000000000000000000000000000000000000000815260040161066990610fcb565b60405180910390fd5b828573ffffffffffffffffffffffffffffffffffffffff1663313ce5676040518163ffffffff1660e01b8152600401602060405180830381865afa1580156106bc573d5f5f3e3d5ffd5b505050506040513d601f19601f820116820180604052508101906106e0919061101f565b8060ff16905097509750505050505050915091565b5f5f9054906101000a900473ffffffffffffffffffffffffffffffffffffffff1673ffffffffffffffffffffffffffffffffffffffff163373ffffffffffffffffffffffffffffffffffffffff1614610783576040517f08c379a000000000000000000000000000000000000000000000000000000000815260040161077a90610a4a565b60405180910390fd5b5f81116107c5576040517f08c379a00000000000000000000000000000000000000000000000000000000081526004016107bc90611094565b60405180910390fd5b7fcc438be69ef69921558db9ebeb93214b253749c58f044dde6a8924bc53749351600154826040516107f892919061094e565b60405180910390a18060018190555050565b5f5f9054906101000a900473ffffffffffffffffffffffffffffffffffffffff1681565b5f5ffd5b5f73ffffffffffffffffffffffffffffffffffffffff82169050919050565b5f61085b82610832565b9050919050565b61086b81610851565b8114610875575f5ffd5b50565b5f8135905061088681610862565b92915050565b5f602082840312156108a1576108a061082e565b5b5f6108ae84828501610878565b91505092915050565b6108c081610851565b82525050565b5f6020820190506108d95f8301846108b7565b92915050565b5f819050919050565b6108f1816108df565b82525050565b5f60208201905061090a5f8301846108e8565b92915050565b5f5f604083850312156109265761092561082e565b5b5f61093385828601610878565b925050602061094485828601610878565b9150509250929050565b5f6040820190506109615f8301856108e8565b61096e60208301846108e8565b9392505050565b61097e816108df565b8114610988575f5ffd5b50565b5f8135905061099981610975565b92915050565b5f602082840312156109b4576109b361082e565b5b5f6109c18482850161098b565b91505092915050565b5f82825260208201905092915050565b7f436861696e6c696e6b50726963654f7261636c653a2063616c6c6572206973205f8201527f6e6f742061646d696e0000000000000000000000000000000000000000000000602082015250565b5f610a346029836109ca565b9150610a3f826109da565b604082019050919050565b5f6020820190508181035f830152610a6181610a28565b9050919050565b7f496e76616c696420746f6b656e000000000000000000000000000000000000005f82015250565b5f610a9c600d836109ca565b9150610aa782610a68565b602082019050919050565b5f6020820190508181035f830152610ac981610a90565b9050919050565b7f496e76616c6964206665656400000000000000000000000000000000000000005f82015250565b5f610b04600c836109ca565b9150610b0f82610ad0565b602082019050919050565b5f6020820190508181035f830152610b3181610af8565b9050919050565b7f436861696e6c696e6b50726963654f7261636c653a2066656564206e6f7420635f8201527f6f6e666967757265640000000000000000000000000000000000000000000000602082015250565b5f610b926029836109ca565b9150610b9d82610b38565b604082019050919050565b5f6020820190508181035f830152610bbf81610b86565b9050919050565b5f69ffffffffffffffffffff82169050919050565b610be481610bc6565b8114610bee575f5ffd5b50565b5f81519050610bff81610bdb565b92915050565b5f819050919050565b610c1781610c05565b8114610c21575f5ffd5b50565b5f81519050610c3281610c0e565b92915050565b5f81519050610c4681610975565b92915050565b5f5f5f5f5f60a08688031215610c6557610c6461082e565b5b5f610c7288828901610bf1565b9550506020610c8388828901610c24565b9450506040610c9488828901610c38565b9350506060610ca588828901610c38565b9250506080610cb688828901610bf1565b9150509295509295909350565b7f436861696e6c696e6b50726963654f7261636c653a206e6f6e2d706f736974695f8201527f766520616e737765720000000000000000000000000000000000000000000000602082015250565b5f610d1d6029836109ca565b9150610d2882610cc3565b604082019050919050565b5f6020820190508181035f830152610d4a81610d11565b9050919050565b7f436861696e6c696e6b50726963654f7261636c653a20696e636f6d706c6574655f8201527f20726f756e640000000000000000000000000000000000000000000000000000602082015250565b5f610dab6026836109ca565b9150610db682610d51565b604082019050919050565b5f6020820190508181035f830152610dd881610d9f565b9050919050565b7f436861696e6c696e6b50726963654f7261636c653a207374616c6520726f756e5f8201527f6400000000000000000000000000000000000000000000000000000000000000602082015250565b5f610e396021836109ca565b9150610e4482610ddf565b604082019050919050565b5f6020820190508181035f830152610e6681610e2d565b9050919050565b7f436861696e6c696e6b50726963654f7261636c653a2066757475726520726f755f8201527f6e64000000000000000000000000000000000000000000000000000000000000602082015250565b5f610ec76022836109ca565b9150610ed282610e6d565b604082019050919050565b5f6020820190508181035f830152610ef481610ebb565b9050919050565b7f4e487b71000000000000000000000000000000000000000000000000000000005f52601160045260245ffd5b5f610f32826108df565b9150610f3d836108df565b9250828203905081811115610f5557610f54610efb565b5b92915050565b7f436861696e6c696e6b50726963654f7261636c653a207374616c6520707269635f8201527f6500000000000000000000000000000000000000000000000000000000000000602082015250565b5f610fb56021836109ca565b9150610fc082610f5b565b604082019050919050565b5f6020820190508181035f830152610fe281610fa9565b9050919050565b5f60ff82169050919050565b610ffe81610fe9565b8114611008575f5ffd5b50565b5f8151905061101981610ff5565b92915050565b5f602082840312156110345761103361082e565b5b5f6110418482850161100b565b91505092915050565b7f496e76616c6964206d6178207374616c656e65737300000000000000000000005f82015250565b5f61107e6015836109ca565b91506110898261104a565b602082019050919050565b5f6020820190508181035f8301526110ab81611072565b905091905056fea264697066735822122040e48493673251a2ac3c0c145d781e807c170094af18a660a3042b39bde2526064736f6c63430008230033","linkReferences":{}},"methodIdentifiers":{"admin()":"f851a440","feedsByToken(address)":"30e4dfb7","getPrice(address)":"41976e09","maxStalenessSeconds()":"3afba55c","setFeed(address,address)":"40b1eb10","setMaxStalenessSeconds(uint256)":"6cb11bca"},"id":0}