{"abi":[{"type":"constructor","inputs":[{"name":"loanRegistryAddress","type":"address","internalType":"address"},{"name":"collateralVaultAddress","type":"address","internalType":"address"},{"name":"proceedsTokenAddress","type":"address","internalType":"address"},{"name":"feeBps","type":"uint16","internalType":"uint16"}],"stateMutability":"nonpayable"},{"type":"function","name":"CRITICAL_COVERAGE_BUFFER_BPS","inputs":[],"outputs":[{"name":"","type":"uint16","internalType":"uint16"}],"stateMutability":"view"},{"type":"function","name":"admin","inputs":[],"outputs":[{"name":"","type":"address","internalType":"address"}],"stateMutability":"view"},{"type":"function","name":"adminExpenseBps","inputs":[],"outputs":[{"name":"","type":"uint16","internalType":"uint16"}],"stateMutability":"view"},{"type":"function","name":"canLiquidate","inputs":[{"name":"loanId","type":"uint256","internalType":"uint256"},{"name":"collateralPrice","type":"uint256","internalType":"uint256"},{"name":"priceDecimals","type":"uint256","internalType":"uint256"}],"outputs":[{"name":"allowed","type":"bool","internalType":"bool"},{"name":"reason","type":"string","internalType":"string"}],"stateMutability":"view"},{"type":"function","name":"canLiquidateFromOracle","inputs":[{"name":"loanId","type":"uint256","internalType":"uint256"}],"outputs":[{"name":"allowed","type":"bool","internalType":"bool"},{"name":"reason","type":"string","internalType":"string"}],"stateMutability":"view"},{"type":"function","name":"collateralVault","inputs":[],"outputs":[{"name":"","type":"address","internalType":"contract CollateralVault"}],"stateMutability":"view"},{"type":"function","name":"liquidateLoan","inputs":[{"name":"loanId","type":"uint256","internalType":"uint256"},{"name":"collateralPrice","type":"uint256","internalType":"uint256"},{"name":"priceDecimals","type":"uint256","internalType":"uint256"},{"name":"fundingPartner","type":"address","internalType":"address"}],"outputs":[],"stateMutability":"nonpayable"},{"type":"function","name":"loanRegistry","inputs":[],"outputs":[{"name":"","type":"address","internalType":"contract LoanRegistry"}],"stateMutability":"view"},{"type":"function","name":"originatorFeeBps","inputs":[],"outputs":[{"name":"","type":"uint16","internalType":"uint16"}],"stateMutability":"view"},{"type":"function","name":"priceOracle","inputs":[],"outputs":[{"name":"","type":"address","internalType":"address"}],"stateMutability":"view"},{"type":"function","name":"proceedsToken","inputs":[],"outputs":[{"name":"","type":"address","internalType":"contract IERC20"}],"stateMutability":"view"},{"type":"function","name":"setAdminExpenseBps","inputs":[{"name":"feeBps","type":"uint16","internalType":"uint16"}],"outputs":[],"stateMutability":"nonpayable"},{"type":"function","name":"setOriginatorFeeBps","inputs":[{"name":"feeBps","type":"uint16","internalType":"uint16"}],"outputs":[],"stateMutability":"nonpayable"},{"type":"function","name":"setPriceOracle","inputs":[{"name":"oracle","type":"address","internalType":"address"}],"outputs":[],"stateMutability":"nonpayable"},{"type":"function","name":"setProceedsToken","inputs":[{"name":"token","type":"address","internalType":"address"}],"outputs":[],"stateMutability":"nonpayable"},{"type":"event","name":"LoanLiquidated","inputs":[{"name":"loanId","type":"uint256","indexed":true,"internalType":"uint256"},{"name":"proceedsAmount","type":"uint256","indexed":false,"internalType":"uint256"},{"name":"proceedsToken","type":"address","indexed":true,"internalType":"address"},{"name":"fundingPartner","type":"address","indexed":true,"internalType":"address"},{"name":"fundingPartnerAmount","type":"uint256","indexed":false,"internalType":"uint256"},{"name":"originatorFeeAmount","type":"uint256","indexed":false,"internalType":"uint256"},{"name":"borrowerRemainderAmount","type":"uint256","indexed":false,"internalType":"uint256"}],"anonymous":false},{"type":"event","name":"PriceOracleSet","inputs":[{"name":"oldOracle","type":"address","indexed":true,"internalType":"address"},{"name":"newOracle","type":"address","indexed":true,"internalType":"address"}],"anonymous":false}],"bytecode":{"object":"0x608060405234801561000f575f5ffd5b506040516130c83803806130c88339818101604052810190610031919061039b565b5f73ffffffffffffffffffffffffffffffffffffffff168473ffffffffffffffffffffffffffffffffffffffff160361009f576040517f08c379a000000000000000000000000000000000000000000000000000000000815260040161009690610459565b60405180910390fd5b5f73ffffffffffffffffffffffffffffffffffffffff168373ffffffffffffffffffffffffffffffffffffffff160361010d576040517f08c379a0000000000000000000000000000000000000000000000000000000008152600401610104906104c1565b60405180910390fd5b5f73ffffffffffffffffffffffffffffffffffffffff168273ffffffffffffffffffffffffffffffffffffffff160361017b576040517f08c379a000000000000000000000000000000000000000000000000000000000815260040161017290610529565b60405180910390fd5b6127108161ffff1611156101c4576040517f08c379a00000000000000000000000000000000000000000000000000000000081526004016101bb90610591565b60405180910390fd5b835f5f6101000a81548173ffffffffffffffffffffffffffffffffffffffff021916908373ffffffffffffffffffffffffffffffffffffffff1602179055508260015f6101000a81548173ffffffffffffffffffffffffffffffffffffffff021916908373ffffffffffffffffffffffffffffffffffffffff1602179055508160025f6101000a81548173ffffffffffffffffffffffffffffffffffffffff021916908373ffffffffffffffffffffffffffffffffffffffff16021790555080600360146101000a81548161ffff021916908361ffff1602179055505f600360166101000a81548161ffff021916908361ffff1602179055503360035f6101000a81548173ffffffffffffffffffffffffffffffffffffffff021916908373ffffffffffffffffffffffffffffffffffffffff160217905550505050506105af565b5f5ffd5b5f73ffffffffffffffffffffffffffffffffffffffff82169050919050565b5f6103338261030a565b9050919050565b61034381610329565b811461034d575f5ffd5b50565b5f8151905061035e8161033a565b92915050565b5f61ffff82169050919050565b61037a81610364565b8114610384575f5ffd5b50565b5f8151905061039581610371565b92915050565b5f5f5f5f608085870312156103b3576103b2610306565b5b5f6103c087828801610350565b94505060206103d187828801610350565b93505060406103e287828801610350565b92505060606103f387828801610387565b91505092959194509250565b5f82825260208201905092915050565b7f496e76616c6964207265676973747279206164647265737300000000000000005f82015250565b5f6104436018836103ff565b915061044e8261040f565b602082019050919050565b5f6020820190508181035f83015261047081610437565b9050919050565b7f496e76616c696420636f6c6c61746572616c207661756c7420616464726573735f82015250565b5f6104ab6020836103ff565b91506104b682610477565b602082019050919050565b5f6020820190508181035f8301526104d88161049f565b9050919050565b7f496e76616c69642070726f636565647320746f6b656e206164647265737300005f82015250565b5f610513601e836103ff565b915061051e826104df565b602082019050919050565b5f6020820190508181035f83015261054081610507565b9050919050565b7f496e76616c69642066656520626173697320706f696e747300000000000000005f82015250565b5f61057b6018836103ff565b915061058682610547565b602082019050919050565b5f6020820190508181035f8301526105a88161056f565b9050919050565b612b0c806105bc5f395ff3fe608060405234801561000f575f5ffd5b50600436106100f3575f3560e01c80633d4c7f3e11610095578063d0d70b7a11610064578063d0d70b7a1461024a578063eaab400f1461027b578063f851a44014610299578063fe6339e3146102b7576100f3565b80633d4c7f3e146101d6578063530e784f146101f4578063a77957ea14610210578063b9a07d811461022e576100f3565b8063244b50c0116100d1578063244b50c01461014d5780632630c12f1461017e578063269d5c601461019c5780632ff5030a146101ba576100f3565b80630bece79c146100f757806310718f1514610115578063217faae414610131575b5f5ffd5b6100ff6102d5565b60405161010c919061186f565b60405180910390f35b61012f600480360381019061012a9190611903565b6102fa565b005b61014b60048036038101906101469190611967565b61071f565b005b61016760048036038101906101629190611992565b61085f565b604051610175929190611a47565b60405180910390f35b6101866108ee565b6040516101939190611a84565b60405180910390f35b6101a4610913565b6040516101b19190611ab9565b60405180910390f35b6101d460048036038101906101cf9190611afc565b610927565b005b6101de610a1f565b6040516101eb9190611ab9565b60405180910390f35b61020e60048036038101906102099190611967565b610a33565b005b610218610c0f565b6040516102259190611b47565b60405180910390f35b61024860048036038101906102439190611afc565b610c33565b005b610264600480360381019061025f9190611b60565b610d2b565b604051610272929190611a47565b60405180910390f35b610283611179565b6040516102909190611ab9565b60405180910390f35b6102a161117f565b6040516102ae9190611a84565b60405180910390f35b6102bf6111a4565b6040516102cc9190611bd0565b60405180910390f35b60015f9054906101000a900473ffffffffffffffffffffffffffffffffffffffff1681565b5f73ffffffffffffffffffffffffffffffffffffffff168173ffffffffffffffffffffffffffffffffffffffff1603610368576040517f08c379a000000000000000000000000000000000000000000000000000000000815260040161035f90611c33565b60405180910390fd5b5f5f5f9054906101000a900473ffffffffffffffffffffffffffffffffffffffff1673ffffffffffffffffffffffffffffffffffffffff1663504006ca866040518263ffffffff1660e01b81526004016103c29190611c60565b61016060405180830381865afa1580156103de573d5f5f3e3d5ffd5b505050506040513d601f19601f820116820180604052508101906104029190611e5c565b90505f815f015103610449576040517f08c379a000000000000000000000000000000000000000000000000000000000815260040161044090611ed2565b60405180910390fd5b806040015173ffffffffffffffffffffffffffffffffffffffff163373ffffffffffffffffffffffffffffffffffffffff16146104bb576040517f08c379a00000000000000000000000000000000000000000000000000000000081526004016104b290611f60565b60405180910390fd5b5f5f6104c8878787610d2b565b9150915081819061050f576040517f08c379a00000000000000000000000000000000000000000000000000000000081526004016105069190611f7e565b60405180910390fd5b505f5f61051d8589896111c9565b915091505f60015f9054906101000a900473ffffffffffffffffffffffffffffffffffffffff1673ffffffffffffffffffffffffffffffffffffffff16639403b6348b6040518263ffffffff1660e01b815260040161057c9190611c60565b60c060405180830381865afa158015610597573d5f5f3e3d5ffd5b505050506040513d601f19601f820116820180604052508101906105bb9190612065565b90505f82600a6105cb91906121ec565b8483604001516105db9190612236565b6105e591906122a4565b905060015f9054906101000a900473ffffffffffffffffffffffffffffffffffffffff1673ffffffffffffffffffffffffffffffffffffffff16633938ccdf8c6040518263ffffffff1660e01b81526004016106419190611c60565b5f604051808303815f87803b158015610658575f5ffd5b505af115801561066a573d5f5f3e3d5ffd5b505050505f5f5f61067c8a858d6112d3565b9250925092508a73ffffffffffffffffffffffffffffffffffffffff1660025f9054906101000a900473ffffffffffffffffffffffffffffffffffffffff1673ffffffffffffffffffffffffffffffffffffffff168f7f6445b7a1a5209c6cd01d583260dc90c2ce858e8b25f8cc7b1dbc92ff21c7bf5a8787878760405161070794939291906122d4565b60405180910390a45050505050505050505050505050565b60035f9054906101000a900473ffffffffffffffffffffffffffffffffffffffff1673ffffffffffffffffffffffffffffffffffffffff163373ffffffffffffffffffffffffffffffffffffffff16146107ae576040517f08c379a00000000000000000000000000000000000000000000000000000000081526004016107a590612387565b60405180910390fd5b5f73ffffffffffffffffffffffffffffffffffffffff168173ffffffffffffffffffffffffffffffffffffffff160361081c576040517f08c379a0000000000000000000000000000000000000000000000000000000008152600401610813906123ef565b60405180910390fd5b8060025f6101000a81548173ffffffffffffffffffffffffffffffffffffffff021916908373ffffffffffffffffffffffffffffffffffffffff16021790555050565b5f60605f73ffffffffffffffffffffffffffffffffffffffff1660045f9054906101000a900473ffffffffffffffffffffffffffffffffffffffff1673ffffffffffffffffffffffffffffffffffffffff16036108d9575f6040518060600160405280602e8152602001612999602e9139915091506108e9565b6108e4835f5f610d2b565b915091505b915091565b60045f9054906101000a900473ffffffffffffffffffffffffffffffffffffffff1681565b600360149054906101000a900461ffff1681565b60035f9054906101000a900473ffffffffffffffffffffffffffffffffffffffff1673ffffffffffffffffffffffffffffffffffffffff163373ffffffffffffffffffffffffffffffffffffffff16146109b6576040517f08c379a00000000000000000000000000000000000000000000000000000000081526004016109ad90612387565b60405180910390fd5b6127108161ffff1611156109ff576040517f08c379a00000000000000000000000000000000000000000000000000000000081526004016109f690612457565b60405180910390fd5b80600360146101000a81548161ffff021916908361ffff16021790555050565b600360169054906101000a900461ffff1681565b60035f9054906101000a900473ffffffffffffffffffffffffffffffffffffffff1673ffffffffffffffffffffffffffffffffffffffff163373ffffffffffffffffffffffffffffffffffffffff1614610ac2576040517f08c379a0000000000000000000000000000000000000000000000000000000008152600401610ab990612387565b60405180910390fd5b5f73ffffffffffffffffffffffffffffffffffffffff168173ffffffffffffffffffffffffffffffffffffffff161480610b1257505f8173ffffffffffffffffffffffffffffffffffffffff163b115b610b51576040517f08c379a0000000000000000000000000000000000000000000000000000000008152600401610b48906124e5565b60405180910390fd5b8073ffffffffffffffffffffffffffffffffffffffff1660045f9054906101000a900473ffffffffffffffffffffffffffffffffffffffff1673ffffffffffffffffffffffffffffffffffffffff167f78f66d11c0fe8f0ce8dec169ad57f3438085a89b7371335b6e2b10e9685d7ecc60405160405180910390a38060045f6101000a81548173ffffffffffffffffffffffffffffffffffffffff021916908373ffffffffffffffffffffffffffffffffffffffff16021790555050565b5f5f9054906101000a900473ffffffffffffffffffffffffffffffffffffffff1681565b60035f9054906101000a900473ffffffffffffffffffffffffffffffffffffffff1673ffffffffffffffffffffffffffffffffffffffff163373ffffffffffffffffffffffffffffffffffffffff1614610cc2576040517f08c379a0000000000000000000000000000000000000000000000000000000008152600401610cb990612387565b60405180910390fd5b6127108161ffff161115610d0b576040517f08c379a0000000000000000000000000000000000000000000000000000000008152600401610d0290612457565b60405180910390fd5b80600360166101000a81548161ffff021916908361ffff16021790555050565b5f60605f5f5f9054906101000a900473ffffffffffffffffffffffffffffffffffffffff1673ffffffffffffffffffffffffffffffffffffffff1663504006ca876040518263ffffffff1660e01b8152600401610d889190611c60565b61016060405180830381865afa158015610da4573d5f5f3e3d5ffd5b505050506040513d601f19601f82011682018060405250810190610dc89190611e5c565b90505f815f015103610df8575f6040518060600160405280602181526020016128c0602191399250925050611171565b5f5f5f5f610e07858a8a611616565b935093509350935083610e24575f81965096505050505050611171565b5f8303610e53575f6040518060600160405280602b8152602001612a8a602b9139965096505050505050611171565b6024821115610e84575f604051806060016040528060298152602001612a3260299139965096505050505050611171565b5f60026007811115610e9957610e98612503565b5b90505f60036007811115610eb057610eaf612503565b5b90505f60056007811115610ec757610ec6612503565b5b90508260ff168860e0015160ff1614158015610eed57508160ff168860e0015160ff1614155b8015610f0357508060ff168860e0015160ff1614155b15610f33575f6040518060600160405280602f8152602001612a5b602f9139995099505050505050505050611171565b5f60015f9054906101000a900473ffffffffffffffffffffffffffffffffffffffff1673ffffffffffffffffffffffffffffffffffffffff16639403b6348f6040518263ffffffff1660e01b8152600401610f8e9190611c60565b60c060405180830381865afa158015610fa9573d5f5f3e3d5ffd5b505050506040513d601f19601f82011682018060405250810190610fcd9190612065565b90505f815f015103611005575f604051806060016040528060228152602001612ab5602291399a509a50505050505050505050611171565b5f81604001510361103c575f6040518060600160405280602d8152602001612936602d91399a509a50505050505050505050611171565b8060a0015115611072575f604051806060016040528060308152602001612a02603091399a509a50505050505050505050611171565b5f86600a61108091906121ec565b8883604001516110909190612236565b61109a91906122a4565b90505f81036110d0575f6040518060600160405280602a815260200161290c602a91399b509b5050505050505050505050611171565b5f6110de8b60a001516117b5565b90505f6127106103e86127106110f49190612530565b61ffff16836111039190612236565b61110d91906122a4565b9050808311611146576001604051806060016040528060368152602001612963603691399d509d50505050505050505050505050611171565b5f6040518060600160405280603b81526020016129c7603b91399d509d505050505050505050505050505b935093915050565b6103e881565b60035f9054906101000a900473ffffffffffffffffffffffffffffffffffffffff1681565b60025f9054906101000a900473ffffffffffffffffffffffffffffffffffffffff1681565b5f5f5f73ffffffffffffffffffffffffffffffffffffffff1660045f9054906101000a900473ffffffffffffffffffffffffffffffffffffffff1673ffffffffffffffffffffffffffffffffffffffff16146112c45760045f9054906101000a900473ffffffffffffffffffffffffffffffffffffffff1673ffffffffffffffffffffffffffffffffffffffff166341976e0986606001516040518263ffffffff1660e01b815260040161127d9190611a84565b6040805180830381865afa158015611297573d5f5f3e3d5ffd5b505050506040513d601f19601f820116820180604052508101906112bb9190612565565b915091506112cb565b8383915091505b935093915050565b5f5f5f848660a0015111156112e857846112ee565b8560a001515b92505f8386116112fe575f61130b565b838661130a91906125a3565b5b9050612710600360149054906101000a900461ffff1661ffff16826113309190612236565b61133a91906122a4565b9250828111611349575f611356565b828161135591906125a3565b5b91505f84111561143c5760025f9054906101000a900473ffffffffffffffffffffffffffffffffffffffff1673ffffffffffffffffffffffffffffffffffffffff1663a9059cbb86866040518363ffffffff1660e01b81526004016113bc9291906125d6565b6020604051808303815f875af11580156113d8573d5f5f3e3d5ffd5b505050506040513d601f19601f820116820180604052508101906113fc91906125fd565b61143b576040517f08c379a000000000000000000000000000000000000000000000000000000000815260040161143290612698565b60405180910390fd5b5b5f8311156115245760025f9054906101000a900473ffffffffffffffffffffffffffffffffffffffff1673ffffffffffffffffffffffffffffffffffffffff1663a9059cbb8860400151856040518363ffffffff1660e01b81526004016114a49291906125d6565b6020604051808303815f875af11580156114c0573d5f5f3e3d5ffd5b505050506040513d601f19601f820116820180604052508101906114e491906125fd565b611523576040517f08c379a000000000000000000000000000000000000000000000000000000000815260040161151a90612726565b60405180910390fd5b5b5f82111561160c5760025f9054906101000a900473ffffffffffffffffffffffffffffffffffffffff1673ffffffffffffffffffffffffffffffffffffffff1663a9059cbb8860200151846040518363ffffffff1660e01b815260040161158c9291906125d6565b6020604051808303815f875af11580156115a8573d5f5f3e3d5ffd5b505050506040513d601f19601f820116820180604052508101906115cc91906125fd565b61160b576040517f08c379a0000000000000000000000000000000000000000000000000000000008152600401611602906127b4565b60405180910390fd5b5b5093509350939050565b5f5f5f60605f73ffffffffffffffffffffffffffffffffffffffff1660045f9054906101000a900473ffffffffffffffffffffffffffffffffffffffff1673ffffffffffffffffffffffffffffffffffffffff16146117905760045f9054906101000a900473ffffffffffffffffffffffffffffffffffffffff1673ffffffffffffffffffffffffffffffffffffffff166341976e0988606001516040518263ffffffff1660e01b81526004016116cd9190611a84565b6040805180830381865afa92505050801561170657506040513d601f19601f820116820180604052508101906117039190612565565b60015b61176e576117126127de565b806308c379a00361174357506117266127fd565b806117315750611745565b5f5f5f839450945094509450506117ac565b505b5f5f5f6040518060600160405280602b81526020016128e1602b913993509350935093506117ac565b6001828260405180602001604052805f815250955095509550955050506117ac565b6001868660405180602001604052805f81525093509350935093505b93509350935093565b5f612710600360169054906101000a900461ffff1661ffff16836117d99190612236565b6117e391906122a4565b826117ee919061288c565b9050919050565b5f73ffffffffffffffffffffffffffffffffffffffff82169050919050565b5f819050919050565b5f61183761183261182d846117f5565b611814565b6117f5565b9050919050565b5f6118488261181d565b9050919050565b5f6118598261183e565b9050919050565b6118698161184f565b82525050565b5f6020820190506118825f830184611860565b92915050565b5f604051905090565b5f5ffd5b5f819050919050565b6118a781611895565b81146118b1575f5ffd5b50565b5f813590506118c28161189e565b92915050565b5f6118d2826117f5565b9050919050565b6118e2816118c8565b81146118ec575f5ffd5b50565b5f813590506118fd816118d9565b92915050565b5f5f5f5f6080858703121561191b5761191a611891565b5b5f611928878288016118b4565b9450506020611939878288016118b4565b935050604061194a878288016118b4565b925050606061195b878288016118ef565b91505092959194509250565b5f6020828403121561197c5761197b611891565b5b5f611989848285016118ef565b91505092915050565b5f602082840312156119a7576119a6611891565b5b5f6119b4848285016118b4565b91505092915050565b5f8115159050919050565b6119d1816119bd565b82525050565b5f81519050919050565b5f82825260208201905092915050565b8281835e5f83830152505050565b5f601f19601f8301169050919050565b5f611a19826119d7565b611a2381856119e1565b9350611a338185602086016119f1565b611a3c816119ff565b840191505092915050565b5f604082019050611a5a5f8301856119c8565b8181036020830152611a6c8184611a0f565b90509392505050565b611a7e816118c8565b82525050565b5f602082019050611a975f830184611a75565b92915050565b5f61ffff82169050919050565b611ab381611a9d565b82525050565b5f602082019050611acc5f830184611aaa565b92915050565b611adb81611a9d565b8114611ae5575f5ffd5b50565b5f81359050611af681611ad2565b92915050565b5f60208284031215611b1157611b10611891565b5b5f611b1e84828501611ae8565b91505092915050565b5f611b318261183e565b9050919050565b611b4181611b27565b82525050565b5f602082019050611b5a5f830184611b38565b92915050565b5f5f5f60608486031215611b7757611b76611891565b5b5f611b84868287016118b4565b9350506020611b95868287016118b4565b9250506040611ba6868287016118b4565b9150509250925092565b5f611bba8261183e565b9050919050565b611bca81611bb0565b82525050565b5f602082019050611be35f830184611bc1565b92915050565b7f496e76616c69642066756e64696e6720706172746e65720000000000000000005f82015250565b5f611c1d6017836119e1565b9150611c2882611be9565b602082019050919050565b5f6020820190508181035f830152611c4a81611c11565b9050919050565b611c5a81611895565b82525050565b5f602082019050611c735f830184611c51565b92915050565b5f5ffd5b7f4e487b71000000000000000000000000000000000000000000000000000000005f52604160045260245ffd5b611cb3826119ff565b810181811067ffffffffffffffff82111715611cd257611cd1611c7d565b5b80604052505050565b5f611ce4611888565b9050611cf08282611caa565b919050565b5f81519050611d038161189e565b92915050565b5f81519050611d17816118d9565b92915050565b5f60ff82169050919050565b611d3281611d1d565b8114611d3c575f5ffd5b50565b5f81519050611d4d81611d29565b92915050565b5f6101608284031215611d6957611d68611c79565b5b611d74610160611cdb565b90505f611d8384828501611cf5565b5f830152506020611d9684828501611d09565b6020830152506040611daa84828501611d09565b6040830152506060611dbe84828501611d09565b6060830152506080611dd284828501611cf5565b60808301525060a0611de684828501611cf5565b60a08301525060c0611dfa84828501611cf5565b60c08301525060e0611e0e84828501611d3f565b60e083015250610100611e2384828501611cf5565b61010083015250610120611e3984828501611cf5565b61012083015250610140611e4f84828501611cf5565b6101408301525092915050565b5f6101608284031215611e7257611e71611891565b5b5f611e7f84828501611d53565b91505092915050565b7f4c6f616e206e6f7420666f756e640000000000000000000000000000000000005f82015250565b5f611ebc600e836119e1565b9150611ec782611e88565b602082019050919050565b5f6020820190508181035f830152611ee981611eb0565b9050919050565b7f4c69717569646174696f6e456e67696e653a206f6e6c79206f726967696e61745f8201527f6f722063616e20696e697469617465206c69717569646174696f6e0000000000602082015250565b5f611f4a603b836119e1565b9150611f5582611ef0565b604082019050919050565b5f6020820190508181035f830152611f7781611f3e565b9050919050565b5f6020820190508181035f830152611f968184611a0f565b905092915050565b611fa7816119bd565b8114611fb1575f5ffd5b50565b5f81519050611fc281611f9e565b92915050565b5f60c08284031215611fdd57611fdc611c79565b5b611fe760c0611cdb565b90505f611ff684828501611cf5565b5f83015250602061200984828501611d09565b602083015250604061201d84828501611cf5565b604083015250606061203184828501611d09565b606083015250608061204584828501611fb4565b60808301525060a061205984828501611fb4565b60a08301525092915050565b5f60c0828403121561207a57612079611891565b5b5f61208784828501611fc8565b91505092915050565b7f4e487b71000000000000000000000000000000000000000000000000000000005f52601160045260245ffd5b5f8160011c9050919050565b5f5f8291508390505b6001851115612112578086048111156120ee576120ed612090565b5b60018516156120fd5780820291505b808102905061210b856120bd565b94506120d2565b94509492505050565b5f8261212a57600190506121e5565b81612137575f90506121e5565b816001811461214d576002811461215757612186565b60019150506121e5565b60ff84111561216957612168612090565b5b8360020a9150848211156121805761217f612090565b5b506121e5565b5060208310610133831016604e8410600b84101617156121bb5782820a9050838111156121b6576121b5612090565b5b6121e5565b6121c884848460016120c9565b925090508184048111156121df576121de612090565b5b81810290505b9392505050565b5f6121f682611895565b915061220183611895565b925061222e7fffffffffffffffffffffffffffffffffffffffffffffffffffffffffffffffff848461211b565b905092915050565b5f61224082611895565b915061224b83611895565b925082820261225981611895565b915082820484148315176122705761226f612090565b5b5092915050565b7f4e487b71000000000000000000000000000000000000000000000000000000005f52601260045260245ffd5b5f6122ae82611895565b91506122b983611895565b9250826122c9576122c8612277565b5b828204905092915050565b5f6080820190506122e75f830187611c51565b6122f46020830186611c51565b6123016040830185611c51565b61230e6060830184611c51565b95945050505050565b7f4c69717569646174696f6e456e67696e653a2063616c6c6572206973206e6f745f8201527f2061646d696e0000000000000000000000000000000000000000000000000000602082015250565b5f6123716026836119e1565b915061237c82612317565b604082019050919050565b5f6020820190508181035f83015261239e81612365565b9050919050565b7f496e76616c696420746f6b656e206164647265737300000000000000000000005f82015250565b5f6123d96015836119e1565b91506123e4826123a5565b602082019050919050565b5f6020820190508181035f830152612406816123cd565b9050919050565b7f496e76616c69642066656520626173697320706f696e747300000000000000005f82015250565b5f6124416018836119e1565b915061244c8261240d565b602082019050919050565b5f6020820190508181035f83015261246e81612435565b9050919050565b7f4c69717569646174696f6e456e67696e653a206f7261636c65206d75737420625f8201527f6520636f6e747261637400000000000000000000000000000000000000000000602082015250565b5f6124cf602a836119e1565b91506124da82612475565b604082019050919050565b5f6020820190508181035f8301526124fc816124c3565b9050919050565b7f4e487b71000000000000000000000000000000000000000000000000000000005f52602160045260245ffd5b5f61253a82611a9d565b915061254583611a9d565b9250828201905061ffff81111561255f5761255e612090565b5b92915050565b5f5f6040838503121561257b5761257a611891565b5b5f61258885828601611cf5565b925050602061259985828601611cf5565b9150509250929050565b5f6125ad82611895565b91506125b883611895565b92508282039050818111156125d0576125cf612090565b5b92915050565b5f6040820190506125e95f830185611a75565b6125f66020830184611c51565b9392505050565b5f6020828403121561261257612611611891565b5b5f61261f84828501611fb4565b91505092915050565b7f4c69717569646174696f6e456e67696e653a2066756e64696e67207472616e735f8201527f666572206661696c656400000000000000000000000000000000000000000000602082015250565b5f612682602a836119e1565b915061268d82612628565b604082019050919050565b5f6020820190508181035f8301526126af81612676565b9050919050565b7f4c69717569646174696f6e456e67696e653a206f726967696e61746f722066655f8201527f65207472616e73666572206661696c6564000000000000000000000000000000602082015250565b5f6127106031836119e1565b915061271b826126b6565b604082019050919050565b5f6020820190508181035f83015261273d81612704565b9050919050565b7f4c69717569646174696f6e456e67696e653a20626f72726f7765722072656d615f8201527f696e646572207472616e73666572206661696c65640000000000000000000000602082015250565b5f61279e6035836119e1565b91506127a982612744565b604082019050919050565b5f6020820190508181035f8301526127cb81612792565b9050919050565b5f8160e01c9050919050565b5f60033d11156127fa5760045f5f3e6127f75f516127d2565b90505b90565b5f60443d106128895761280e611888565b60043d036004823e80513d602482011167ffffffffffffffff82111715612836575050612889565b808201805167ffffffffffffffff8111156128545750505050612889565b80602083010160043d038501811115612871575050505050612889565b61288082602001850186611caa565b82955050505050505b90565b5f61289682611895565b91506128a183611895565b92508282019050808211156128b9576128b8612090565b5b9291505056fe4c69717569646174696f6e456e67696e653a206c6f616e206e6f7420666f756e644c69717569646174696f6e456e67696e653a207072696365206f7261636c652072656164206661696c65644c69717569646174696f6e456e67696e653a20696e76616c69642070726f636565647320616d6f756e744c69717569646174696f6e456e67696e653a206e6f20636f6c6c61746572616c20746f206c69717569646174654c69717569646174696f6e456e67696e653a20637269746963616c20636f766572616765207468726573686f6c6420726561636865644c69717569646174696f6e456e67696e653a207072696365206f7261636c65206e6f7420636f6e666967757265644c69717569646174696f6e456e67696e653a206e6f6e2d637269746963616c20636f7665726167652c206d617267696e2063616c6c2066697273744c69717569646174696f6e456e67696e653a20636f6c6c61746572616c20616c7265616479206c6971756964617465644c69717569646174696f6e456e67696e653a20696e76616c696420707269636520646563696d616c734c69717569646174696f6e456e67696e653a206c6f616e20737461747573206e6f74206c6971756964617461626c654c69717569646174696f6e456e67696e653a20696e76616c696420636f6c6c61746572616c2070726963654c69717569646174696f6e456e67696e653a207661756c74206e6f7420666f756e64a2646970667358221220135df8a8d079737998a34be67776fd58c07ebc0cda749f367109ee408a2ec1b464736f6c63430008230033","linkReferences":{}},"methodIdentifiers":{"CRITICAL_COVERAGE_BUFFER_BPS()":"eaab400f","admin()":"f851a440","adminExpenseBps()":"3d4c7f3e","canLiquidate(uint256,uint256,uint256)":"d0d70b7a","canLiquidateFromOracle(uint256)":"244b50c0","collateralVault()":"0bece79c","liquidateLoan(uint256,uint256,uint256,address)":"10718f15","loanRegistry()":"a77957ea","originatorFeeBps()":"269d5c60","priceOracle()":"2630c12f","proceedsToken()":"fe6339e3","setAdminExpenseBps(uint16)":"b9a07d81","setOriginatorFeeBps(uint16)":"2ff5030a","setPriceOracle(address)":"530e784f","setProceedsToken(address)":"217faae4"},"id":2}