{"abi":[{"type":"constructor","inputs":[{"name":"loanRegistryAddress","type":"address","internalType":"address"},{"name":"collateralVaultAddress","type":"address","internalType":"address"},{"name":"proceedsTokenAddress","type":"address","internalType":"address"},{"name":"feeBps","type":"uint16","internalType":"uint16"}],"stateMutability":"nonpayable"},{"type":"function","name":"admin","inputs":[],"outputs":[{"name":"","type":"address","internalType":"address"}],"stateMutability":"view"},{"type":"function","name":"collateralVault","inputs":[],"outputs":[{"name":"","type":"address","internalType":"contract CollateralVault"}],"stateMutability":"view"},{"type":"function","name":"liquidateLoan","inputs":[{"name":"loanId","type":"uint256","internalType":"uint256"},{"name":"collateralPrice","type":"uint256","internalType":"uint256"},{"name":"priceDecimals","type":"uint256","internalType":"uint256"},{"name":"fundingPartner","type":"address","internalType":"address"}],"outputs":[],"stateMutability":"nonpayable"},{"type":"function","name":"loanRegistry","inputs":[],"outputs":[{"name":"","type":"address","internalType":"contract LoanRegistry"}],"stateMutability":"view"},{"type":"function","name":"originatorFeeBps","inputs":[],"outputs":[{"name":"","type":"uint16","internalType":"uint16"}],"stateMutability":"view"},{"type":"function","name":"proceedsToken","inputs":[],"outputs":[{"name":"","type":"address","internalType":"contract IERC20"}],"stateMutability":"view"},{"type":"function","name":"setOriginatorFeeBps","inputs":[{"name":"feeBps","type":"uint16","internalType":"uint16"}],"outputs":[],"stateMutability":"nonpayable"},{"type":"function","name":"setProceedsToken","inputs":[{"name":"token","type":"address","internalType":"address"}],"outputs":[],"stateMutability":"nonpayable"},{"type":"event","name":"LoanLiquidated","inputs":[{"name":"loanId","type":"uint256","indexed":true,"internalType":"uint256"},{"name":"proceedsAmount","type":"uint256","indexed":false,"internalType":"uint256"},{"name":"proceedsToken","type":"address","indexed":true,"internalType":"address"},{"name":"fundingPartner","type":"address","indexed":true,"internalType":"address"},{"name":"fundingPartnerAmount","type":"uint256","indexed":false,"internalType":"uint256"},{"name":"originatorFeeAmount","type":"uint256","indexed":false,"internalType":"uint256"},{"name":"borrowerRemainderAmount","type":"uint256","indexed":false,"internalType":"uint256"}],"anonymous":false}],"bytecode":{"object":"0x608060405234801561000f575f5ffd5b506040516123da3803806123da8339818101604052810190610031919061037e565b5f73ffffffffffffffffffffffffffffffffffffffff168473ffffffffffffffffffffffffffffffffffffffff160361009f576040517f08c379a00000000000000000000000000000000000000000000000000000000081526004016100969061043c565b60405180910390fd5b5f73ffffffffffffffffffffffffffffffffffffffff168373ffffffffffffffffffffffffffffffffffffffff160361010d576040517f08c379a0000000000000000000000000000000000000000000000000000000008152600401610104906104a4565b60405180910390fd5b5f73ffffffffffffffffffffffffffffffffffffffff168273ffffffffffffffffffffffffffffffffffffffff160361017b576040517f08c379a00000000000000000000000000000000000000000000000000000000081526004016101729061050c565b60405180910390fd5b6127108161ffff1611156101c4576040517f08c379a00000000000000000000000000000000000000000000000000000000081526004016101bb90610574565b60405180910390fd5b835f5f6101000a81548173ffffffffffffffffffffffffffffffffffffffff021916908373ffffffffffffffffffffffffffffffffffffffff1602179055508260015f6101000a81548173ffffffffffffffffffffffffffffffffffffffff021916908373ffffffffffffffffffffffffffffffffffffffff1602179055508160025f6101000a81548173ffffffffffffffffffffffffffffffffffffffff021916908373ffffffffffffffffffffffffffffffffffffffff16021790555080600360146101000a81548161ffff021916908361ffff1602179055503360035f6101000a81548173ffffffffffffffffffffffffffffffffffffffff021916908373ffffffffffffffffffffffffffffffffffffffff16021790555050505050610592565b5f5ffd5b5f73ffffffffffffffffffffffffffffffffffffffff82169050919050565b5f610316826102ed565b9050919050565b6103268161030c565b8114610330575f5ffd5b50565b5f815190506103418161031d565b92915050565b5f61ffff82169050919050565b61035d81610347565b8114610367575f5ffd5b50565b5f8151905061037881610354565b92915050565b5f5f5f5f60808587031215610396576103956102e9565b5b5f6103a387828801610333565b94505060206103b487828801610333565b93505060406103c587828801610333565b92505060606103d68782880161036a565b91505092959194509250565b5f82825260208201905092915050565b7f496e76616c6964207265676973747279206164647265737300000000000000005f82015250565b5f6104266018836103e2565b9150610431826103f2565b602082019050919050565b5f6020820190508181035f8301526104538161041a565b9050919050565b7f496e76616c696420636f6c6c61746572616c207661756c7420616464726573735f82015250565b5f61048e6020836103e2565b91506104998261045a565b602082019050919050565b5f6020820190508181035f8301526104bb81610482565b9050919050565b7f496e76616c69642070726f636565647320746f6b656e206164647265737300005f82015250565b5f6104f6601e836103e2565b9150610501826104c2565b602082019050919050565b5f6020820190508181035f830152610523816104ea565b9050919050565b7f496e76616c69642066656520626173697320706f696e747300000000000000005f82015250565b5f61055e6018836103e2565b91506105698261052a565b602082019050919050565b5f6020820190508181035f83015261058b81610552565b9050919050565b611e3b8061059f5f395ff3fe608060405234801561000f575f5ffd5b5060043610610086575f3560e01c80632ff5030a116100595780632ff5030a146100fe578063a77957ea1461011a578063f851a44014610138578063fe6339e31461015657610086565b80630bece79c1461008a57806310718f15146100a8578063217faae4146100c4578063269d5c60146100e0575b5f5ffd5b610092610174565b60405161009f9190610df3565b60405180910390f35b6100c260048036038101906100bd9190610e87565b610199565b005b6100de60048036038101906100d99190610eeb565b610abf565b005b6100e8610bff565b6040516100f59190610f32565b60405180910390f35b61011860048036038101906101139190610f75565b610c13565b005b610122610d0b565b60405161012f9190610fc0565b60405180910390f35b610140610d2f565b60405161014d9190610fe8565b60405180910390f35b61015e610d54565b60405161016b9190611021565b60405180910390f35b60015f9054906101000a900473ffffffffffffffffffffffffffffffffffffffff1681565b5f73ffffffffffffffffffffffffffffffffffffffff168173ffffffffffffffffffffffffffffffffffffffff1603610207576040517f08c379a00000000000000000000000000000000000000000000000000000000081526004016101fe90611094565b60405180910390fd5b5f8311610249576040517f08c379a0000000000000000000000000000000000000000000000000000000008152600401610240906110fc565b60405180910390fd5b602482111561028d576040517f08c379a000000000000000000000000000000000000000000000000000000000815260040161028490611164565b60405180910390fd5b5f5f5f9054906101000a900473ffffffffffffffffffffffffffffffffffffffff1673ffffffffffffffffffffffffffffffffffffffff1663504006ca866040518263ffffffff1660e01b81526004016102e79190611191565b61016060405180830381865afa158015610303573d5f5f3e3d5ffd5b505050506040513d601f19601f82011682018060405250810190610327919061139d565b90505f815f01510361036e576040517f08c379a000000000000000000000000000000000000000000000000000000000815260040161036590611413565b60405180910390fd5b806040015173ffffffffffffffffffffffffffffffffffffffff163373ffffffffffffffffffffffffffffffffffffffff16146103e0576040517f08c379a00000000000000000000000000000000000000000000000000000000081526004016103d7906114a1565b60405180910390fd5b600260078111156103f4576103f36114bf565b5b60ff168160e0015160ff16148061042757506003600781111561041a576104196114bf565b5b60ff168160e0015160ff16145b8061044e575060056007811115610441576104406114bf565b5b60ff168160e0015160ff16145b61048d576040517f08c379a000000000000000000000000000000000000000000000000000000000815260040161048490611536565b60405180910390fd5b5f60015f9054906101000a900473ffffffffffffffffffffffffffffffffffffffff1673ffffffffffffffffffffffffffffffffffffffff16639403b634876040518263ffffffff1660e01b81526004016104e89190611191565b60c060405180830381865afa158015610503573d5f5f3e3d5ffd5b505050506040513d601f19601f820116820180604052508101906105279190611626565b90505f815f01510361056e576040517f08c379a00000000000000000000000000000000000000000000000000000000081526004016105659061169b565b60405180910390fd5b5f8160400151116105b4576040517f08c379a00000000000000000000000000000000000000000000000000000000081526004016105ab90611703565b60405180910390fd5b8060a00151156105f9576040517f08c379a00000000000000000000000000000000000000000000000000000000081526004016105f09061176b565b60405180910390fd5b5f84600a61060791906118e5565b868360400151610617919061192f565b610621919061199d565b90505f8111610665576040517f08c379a000000000000000000000000000000000000000000000000000000000815260040161065c90611a17565b60405180910390fd5b60015f9054906101000a900473ffffffffffffffffffffffffffffffffffffffff1673ffffffffffffffffffffffffffffffffffffffff16633938ccdf886040518263ffffffff1660e01b81526004016106bf9190611191565b5f604051808303815f87803b1580156106d6575f5ffd5b505af11580156106e8573d5f5f3e3d5ffd5b505050505f818460a0015111156106ff5781610705565b8360a001515b90505f818311610715575f610722565b81836107219190611a35565b5b90505f612710600360149054906101000a900461ffff1661ffff1683610748919061192f565b610752919061199d565b90505f818311610762575f61076f565b818361076e9190611a35565b5b90505f8411156108555760025f9054906101000a900473ffffffffffffffffffffffffffffffffffffffff1673ffffffffffffffffffffffffffffffffffffffff1663a9059cbb89866040518363ffffffff1660e01b81526004016107d5929190611a68565b6020604051808303815f875af11580156107f1573d5f5f3e3d5ffd5b505050506040513d601f19601f820116820180604052508101906108159190611a8f565b610854576040517f08c379a000000000000000000000000000000000000000000000000000000000815260040161084b90611b2a565b60405180910390fd5b5b5f82111561093d5760025f9054906101000a900473ffffffffffffffffffffffffffffffffffffffff1673ffffffffffffffffffffffffffffffffffffffff1663a9059cbb8860400151846040518363ffffffff1660e01b81526004016108bd929190611a68565b6020604051808303815f875af11580156108d9573d5f5f3e3d5ffd5b505050506040513d601f19601f820116820180604052508101906108fd9190611a8f565b61093c576040517f08c379a000000000000000000000000000000000000000000000000000000000815260040161093390611bb8565b60405180910390fd5b5b5f811115610a255760025f9054906101000a900473ffffffffffffffffffffffffffffffffffffffff1673ffffffffffffffffffffffffffffffffffffffff1663a9059cbb8860200151836040518363ffffffff1660e01b81526004016109a5929190611a68565b6020604051808303815f875af11580156109c1573d5f5f3e3d5ffd5b505050506040513d601f19601f820116820180604052508101906109e59190611a8f565b610a24576040517f08c379a0000000000000000000000000000000000000000000000000000000008152600401610a1b90611c46565b60405180910390fd5b5b8773ffffffffffffffffffffffffffffffffffffffff1660025f9054906101000a900473ffffffffffffffffffffffffffffffffffffffff1673ffffffffffffffffffffffffffffffffffffffff168c7f6445b7a1a5209c6cd01d583260dc90c2ce858e8b25f8cc7b1dbc92ff21c7bf5a88888787604051610aaa9493929190611c64565b60405180910390a45050505050505050505050565b60035f9054906101000a900473ffffffffffffffffffffffffffffffffffffffff1673ffffffffffffffffffffffffffffffffffffffff163373ffffffffffffffffffffffffffffffffffffffff1614610b4e576040517f08c379a0000000000000000000000000000000000000000000000000000000008152600401610b4590611d17565b60405180910390fd5b5f73ffffffffffffffffffffffffffffffffffffffff168173ffffffffffffffffffffffffffffffffffffffff1603610bbc576040517f08c379a0000000000000000000000000000000000000000000000000000000008152600401610bb390611d7f565b60405180910390fd5b8060025f6101000a81548173ffffffffffffffffffffffffffffffffffffffff021916908373ffffffffffffffffffffffffffffffffffffffff16021790555050565b600360149054906101000a900461ffff1681565b60035f9054906101000a900473ffffffffffffffffffffffffffffffffffffffff1673ffffffffffffffffffffffffffffffffffffffff163373ffffffffffffffffffffffffffffffffffffffff1614610ca2576040517f08c379a0000000000000000000000000000000000000000000000000000000008152600401610c9990611d17565b60405180910390fd5b6127108161ffff161115610ceb576040517f08c379a0000000000000000000000000000000000000000000000000000000008152600401610ce290611de7565b60405180910390fd5b80600360146101000a81548161ffff021916908361ffff16021790555050565b5f5f9054906101000a900473ffffffffffffffffffffffffffffffffffffffff1681565b60035f9054906101000a900473ffffffffffffffffffffffffffffffffffffffff1681565b60025f9054906101000a900473ffffffffffffffffffffffffffffffffffffffff1681565b5f73ffffffffffffffffffffffffffffffffffffffff82169050919050565b5f819050919050565b5f610dbb610db6610db184610d79565b610d98565b610d79565b9050919050565b5f610dcc82610da1565b9050919050565b5f610ddd82610dc2565b9050919050565b610ded81610dd3565b82525050565b5f602082019050610e065f830184610de4565b92915050565b5f604051905090565b5f5ffd5b5f819050919050565b610e2b81610e19565b8114610e35575f5ffd5b50565b5f81359050610e4681610e22565b92915050565b5f610e5682610d79565b9050919050565b610e6681610e4c565b8114610e70575f5ffd5b50565b5f81359050610e8181610e5d565b92915050565b5f5f5f5f60808587031215610e9f57610e9e610e15565b5b5f610eac87828801610e38565b9450506020610ebd87828801610e38565b9350506040610ece87828801610e38565b9250506060610edf87828801610e73565b91505092959194509250565b5f60208284031215610f0057610eff610e15565b5b5f610f0d84828501610e73565b91505092915050565b5f61ffff82169050919050565b610f2c81610f16565b82525050565b5f602082019050610f455f830184610f23565b92915050565b610f5481610f16565b8114610f5e575f5ffd5b50565b5f81359050610f6f81610f4b565b92915050565b5f60208284031215610f8a57610f89610e15565b5b5f610f9784828501610f61565b91505092915050565b5f610faa82610dc2565b9050919050565b610fba81610fa0565b82525050565b5f602082019050610fd35f830184610fb1565b92915050565b610fe281610e4c565b82525050565b5f602082019050610ffb5f830184610fd9565b92915050565b5f61100b82610dc2565b9050919050565b61101b81611001565b82525050565b5f6020820190506110345f830184611012565b92915050565b5f82825260208201905092915050565b7f496e76616c69642066756e64696e6720706172746e65720000000000000000005f82015250565b5f61107e60178361103a565b91506110898261104a565b602082019050919050565b5f6020820190508181035f8301526110ab81611072565b9050919050565b7f496e76616c696420636f6c6c61746572616c20707269636500000000000000005f82015250565b5f6110e660188361103a565b91506110f1826110b2565b602082019050919050565b5f6020820190508181035f830152611113816110da565b9050919050565b7f496e76616c696420707269636520646563696d616c73000000000000000000005f82015250565b5f61114e60168361103a565b91506111598261111a565b602082019050919050565b5f6020820190508181035f83015261117b81611142565b9050919050565b61118b81610e19565b82525050565b5f6020820190506111a45f830184611182565b92915050565b5f5ffd5b5f601f19601f8301169050919050565b7f4e487b71000000000000000000000000000000000000000000000000000000005f52604160045260245ffd5b6111f4826111ae565b810181811067ffffffffffffffff82111715611213576112126111be565b5b80604052505050565b5f611225610e0c565b905061123182826111eb565b919050565b5f8151905061124481610e22565b92915050565b5f8151905061125881610e5d565b92915050565b5f60ff82169050919050565b6112738161125e565b811461127d575f5ffd5b50565b5f8151905061128e8161126a565b92915050565b5f61016082840312156112aa576112a96111aa565b5b6112b561016061121c565b90505f6112c484828501611236565b5f8301525060206112d78482850161124a565b60208301525060406112eb8482850161124a565b60408301525060606112ff8482850161124a565b606083015250608061131384828501611236565b60808301525060a061132784828501611236565b60a08301525060c061133b84828501611236565b60c08301525060e061134f84828501611280565b60e08301525061010061136484828501611236565b6101008301525061012061137a84828501611236565b6101208301525061014061139084828501611236565b6101408301525092915050565b5f61016082840312156113b3576113b2610e15565b5b5f6113c084828501611294565b91505092915050565b7f4c6f616e206e6f7420666f756e640000000000000000000000000000000000005f82015250565b5f6113fd600e8361103a565b9150611408826113c9565b602082019050919050565b5f6020820190508181035f83015261142a816113f1565b9050919050565b7f4c69717569646174696f6e456e67696e653a206f6e6c79206f726967696e61745f8201527f6f722063616e20696e697469617465206c69717569646174696f6e0000000000602082015250565b5f61148b603b8361103a565b915061149682611431565b604082019050919050565b5f6020820190508181035f8301526114b88161147f565b9050919050565b7f4e487b71000000000000000000000000000000000000000000000000000000005f52602160045260245ffd5b7f4c6f616e206e6f74206c6971756964617461626c6500000000000000000000005f82015250565b5f61152060158361103a565b915061152b826114ec565b602082019050919050565b5f6020820190508181035f83015261154d81611514565b9050919050565b5f8115159050919050565b61156881611554565b8114611572575f5ffd5b50565b5f815190506115838161155f565b92915050565b5f60c0828403121561159e5761159d6111aa565b5b6115a860c061121c565b90505f6115b784828501611236565b5f8301525060206115ca8482850161124a565b60208301525060406115de84828501611236565b60408301525060606115f28482850161124a565b606083015250608061160684828501611575565b60808301525060a061161a84828501611575565b60a08301525092915050565b5f60c0828403121561163b5761163a610e15565b5b5f61164884828501611589565b91505092915050565b7f5661756c74206e6f7420666f756e6400000000000000000000000000000000005f82015250565b5f611685600f8361103a565b915061169082611651565b602082019050919050565b5f6020820190508181035f8301526116b281611679565b9050919050565b7f4e6f20636f6c6c61746572616c20746f206c69717569646174650000000000005f82015250565b5f6116ed601a8361103a565b91506116f8826116b9565b602082019050919050565b5f6020820190508181035f83015261171a816116e1565b9050919050565b7f436f6c6c61746572616c20616c7265616479206c6971756964617465640000005f82015250565b5f611755601d8361103a565b915061176082611721565b602082019050919050565b5f6020820190508181035f83015261178281611749565b9050919050565b7f4e487b71000000000000000000000000000000000000000000000000000000005f52601160045260245ffd5b5f8160011c9050919050565b5f5f8291508390505b600185111561180b578086048111156117e7576117e6611789565b5b60018516156117f65780820291505b8081029050611804856117b6565b94506117cb565b94509492505050565b5f8261182357600190506118de565b81611830575f90506118de565b816001811461184657600281146118505761187f565b60019150506118de565b60ff84111561186257611861611789565b5b8360020a91508482111561187957611878611789565b5b506118de565b5060208310610133831016604e8410600b84101617156118b45782820a9050838111156118af576118ae611789565b5b6118de565b6118c184848460016117c2565b925090508184048111156118d8576118d7611789565b5b81810290505b9392505050565b5f6118ef82610e19565b91506118fa83610e19565b92506119277fffffffffffffffffffffffffffffffffffffffffffffffffffffffffffffffff8484611814565b905092915050565b5f61193982610e19565b915061194483610e19565b925082820261195281610e19565b9150828204841483151761196957611968611789565b5b5092915050565b7f4e487b71000000000000000000000000000000000000000000000000000000005f52601260045260245ffd5b5f6119a782610e19565b91506119b283610e19565b9250826119c2576119c1611970565b5b828204905092915050565b7f496e76616c69642070726f636565647320616d6f756e740000000000000000005f82015250565b5f611a0160178361103a565b9150611a0c826119cd565b602082019050919050565b5f6020820190508181035f830152611a2e816119f5565b9050919050565b5f611a3f82610e19565b9150611a4a83610e19565b9250828203905081811115611a6257611a61611789565b5b92915050565b5f604082019050611a7b5f830185610fd9565b611a886020830184611182565b9392505050565b5f60208284031215611aa457611aa3610e15565b5b5f611ab184828501611575565b91505092915050565b7f4c69717569646174696f6e456e67696e653a2066756e64696e67207472616e735f8201527f666572206661696c656400000000000000000000000000000000000000000000602082015250565b5f611b14602a8361103a565b9150611b1f82611aba565b604082019050919050565b5f6020820190508181035f830152611b4181611b08565b9050919050565b7f4c69717569646174696f6e456e67696e653a206f726967696e61746f722066655f8201527f65207472616e73666572206661696c6564000000000000000000000000000000602082015250565b5f611ba260318361103a565b9150611bad82611b48565b604082019050919050565b5f6020820190508181035f830152611bcf81611b96565b9050919050565b7f4c69717569646174696f6e456e67696e653a20626f72726f7765722072656d615f8201527f696e646572207472616e73666572206661696c65640000000000000000000000602082015250565b5f611c3060358361103a565b9150611c3b82611bd6565b604082019050919050565b5f6020820190508181035f830152611c5d81611c24565b9050919050565b5f608082019050611c775f830187611182565b611c846020830186611182565b611c916040830185611182565b611c9e6060830184611182565b95945050505050565b7f4c69717569646174696f6e456e67696e653a2063616c6c6572206973206e6f745f8201527f2061646d696e0000000000000000000000000000000000000000000000000000602082015250565b5f611d0160268361103a565b9150611d0c82611ca7565b604082019050919050565b5f6020820190508181035f830152611d2e81611cf5565b9050919050565b7f496e76616c696420746f6b656e206164647265737300000000000000000000005f82015250565b5f611d6960158361103a565b9150611d7482611d35565b602082019050919050565b5f6020820190508181035f830152611d9681611d5d565b9050919050565b7f496e76616c69642066656520626173697320706f696e747300000000000000005f82015250565b5f611dd160188361103a565b9150611ddc82611d9d565b602082019050919050565b5f6020820190508181035f830152611dfe81611dc5565b905091905056fea2646970667358221220ea275f76c8921e68ca4d21ade9fa34701a1031016a90f4faf44174059c8d6a5c64736f6c63430008210033","linkReferences":{}},"methodIdentifiers":{"admin()":"f851a440","collateralVault()":"0bece79c","liquidateLoan(uint256,uint256,uint256,address)":"10718f15","loanRegistry()":"a77957ea","originatorFeeBps()":"269d5c60","proceedsToken()":"fe6339e3","setOriginatorFeeBps(uint16)":"2ff5030a","setProceedsToken(address)":"217faae4"},"id":1}