{"abi":[{"type":"constructor","inputs":[{"name":"decimals_","type":"uint8","internalType":"uint8"},{"name":"initialAnswer","type":"int256","internalType":"int256"}],"stateMutability":"nonpayable"},{"type":"function","name":"answer","inputs":[],"outputs":[{"name":"","type":"int256","internalType":"int256"}],"stateMutability":"view"},{"type":"function","name":"answeredInRound","inputs":[],"outputs":[{"name":"","type":"uint80","internalType":"uint80"}],"stateMutability":"view"},{"type":"function","name":"decimals","inputs":[],"outputs":[{"name":"","type":"uint8","internalType":"uint8"}],"stateMutability":"view"},{"type":"function","name":"description","inputs":[],"outputs":[{"name":"","type":"string","internalType":"string"}],"stateMutability":"view"},{"type":"function","name":"latestRoundData","inputs":[],"outputs":[{"name":"","type":"uint80","internalType":"uint80"},{"name":"","type":"int256","internalType":"int256"},{"name":"","type":"uint256","internalType":"uint256"},{"name":"","type":"uint256","internalType":"uint256"},{"name":"","type":"uint80","internalType":"uint80"}],"stateMutability":"view"},{"type":"function","name":"roundId","inputs":[],"outputs":[{"name":"","type":"uint80","internalType":"uint80"}],"stateMutability":"view"},{"type":"function","name":"setRoundData","inputs":[{"name":"newRoundId","type":"uint80","internalType":"uint80"},{"name":"newAnswer","type":"int256","internalType":"int256"},{"name":"newUpdatedAt","type":"uint256","internalType":"uint256"},{"name":"newAnsweredInRound","type":"uint80","internalType":"uint80"}],"outputs":[],"stateMutability":"nonpayable"},{"type":"function","name":"startedAt","inputs":[],"outputs":[{"name":"","type":"uint256","internalType":"uint256"}],"stateMutability":"view"},{"type":"function","name":"updatedAt","inputs":[],"outputs":[{"name":"","type":"uint256","internalType":"uint256"}],"stateMutability":"view"},{"type":"function","name":"version","inputs":[],"outputs":[{"name":"","type":"uint256","internalType":"uint256"}],"stateMutability":"view"}],"bytecode":{"object":"0x60806040526001600255348015610014575f5ffd5b50604051610b9f380380610b9f8339818101604052810190610036919061018f565b815f5f6101000a81548160ff021916908360ff1602179055506040518060400160405280601381526020017f4d6f636b20436861696e6c696e6b20466565640000000000000000000000000081525060019081610093919061041b565b506100a86001824260016100af60201b60201c565b50506104ea565b8360035f6101000a81548169ffffffffffffffffffff021916908369ffffffffffffffffffff1602179055508260048190555081600581905550816006819055508060075f6101000a81548169ffffffffffffffffffff021916908369ffffffffffffffffffff16021790555050505050565b5f5ffd5b5f60ff82169050919050565b61013b81610126565b8114610145575f5ffd5b50565b5f8151905061015681610132565b92915050565b5f819050919050565b61016e8161015c565b8114610178575f5ffd5b50565b5f8151905061018981610165565b92915050565b5f5f604083850312156101a5576101a4610122565b5b5f6101b285828601610148565b92505060206101c38582860161017b565b9150509250929050565b5f81519050919050565b7f4e487b71000000000000000000000000000000000000000000000000000000005f52604160045260245ffd5b7f4e487b71000000000000000000000000000000000000000000000000000000005f52602260045260245ffd5b5f600282049050600182168061024857607f821691505b60208210810361025b5761025a610204565b5b50919050565b5f819050815f5260205f209050919050565b5f6020601f8301049050919050565b5f82821b905092915050565b5f600883026102bd7fffffffffffffffffffffffffffffffffffffffffffffffffffffffffffffffff82610282565b6102c78683610282565b95508019841693508086168417925050509392505050565b5f819050919050565b5f819050919050565b5f61030b610306610301846102df565b6102e8565b6102df565b9050919050565b5f819050919050565b610324836102f1565b61033861033082610312565b84845461028e565b825550505050565b5f5f905090565b61034f610340565b61035a81848461031b565b505050565b5f5b82811015610380576103755f828401610347565b600181019050610361565b505050565b601f8211156103d357828211156103d25761039f81610261565b6103a883610273565b6103b185610273565b60208610156103be575f90505b8083016103cd8284038261035f565b505050505b5b505050565b5f82821c905092915050565b5f6103f35f19846008026103d8565b1980831691505092915050565b5f61040b83836103e4565b9150826002028217905092915050565b610424826101cd565b67ffffffffffffffff81111561043d5761043c6101d7565b5b6104478254610231565b610452828285610385565b5f60209050601f831160018114610483575f8415610471578287015190505b61047b8582610400565b8655506104e2565b601f19841661049186610261565b5f5b828110156104b857848901518255600182019150602085019450602081019050610493565b868310156104d557848901516104d1601f8916826103e4565b8355505b6001600288020188555050505b505050505050565b6106a8806104f75f395ff3fe608060405234801561000f575f5ffd5b506004361061009c575f3560e01c80638cd221c9116100645780638cd221c914610136578063c22c249914610154578063f21f537d14610172578063f301998514610190578063feaf968c146101ac5761009c565b8063313ce567146100a057806354fd4d50146100be5780637284e416146100dc5780637519ab50146100fa57806385bb7d6914610118575b5f5ffd5b6100a86101ce565b6040516100b59190610396565b60405180910390f35b6100c66101df565b6040516100d391906103c7565b60405180910390f35b6100e46101e5565b6040516100f19190610450565b60405180910390f35b610102610271565b60405161010f91906103c7565b60405180910390f35b610120610277565b60405161012d9190610488565b60405180910390f35b61013e61027d565b60405161014b91906104c5565b60405180910390f35b61015c610298565b60405161016991906104c5565b60405180910390f35b61017a6102b3565b60405161018791906103c7565b60405180910390f35b6101aa60048036038101906101a59190610560565b6102b9565b005b6101b461032c565b6040516101c59594939291906105c4565b60405180910390f35b5f5f9054906101000a900460ff1681565b60025481565b600180546101f290610642565b80601f016020809104026020016040519081016040528092919081815260200182805461021e90610642565b80156102695780601f1061024057610100808354040283529160200191610269565b820191905f5260205f20905b81548152906001019060200180831161024c57829003601f168201915b505050505081565b60065481565b60045481565b60035f9054906101000a900469ffffffffffffffffffff1681565b60075f9054906101000a900469ffffffffffffffffffff1681565b60055481565b8360035f6101000a81548169ffffffffffffffffffff021916908369ffffffffffffffffffff1602179055508260048190555081600581905550816006819055508060075f6101000a81548169ffffffffffffffffffff021916908369ffffffffffffffffffff16021790555050505050565b5f5f5f5f5f60035f9054906101000a900469ffffffffffffffffffff1660045460055460065460075f9054906101000a900469ffffffffffffffffffff16945094509450945094509091929394565b5f60ff82169050919050565b6103908161037b565b82525050565b5f6020820190506103a95f830184610387565b92915050565b5f819050919050565b6103c1816103af565b82525050565b5f6020820190506103da5f8301846103b8565b92915050565b5f81519050919050565b5f82825260208201905092915050565b8281835e5f83830152505050565b5f601f19601f8301169050919050565b5f610422826103e0565b61042c81856103ea565b935061043c8185602086016103fa565b61044581610408565b840191505092915050565b5f6020820190508181035f8301526104688184610418565b905092915050565b5f819050919050565b61048281610470565b82525050565b5f60208201905061049b5f830184610479565b92915050565b5f69ffffffffffffffffffff82169050919050565b6104bf816104a1565b82525050565b5f6020820190506104d85f8301846104b6565b92915050565b5f5ffd5b6104eb816104a1565b81146104f5575f5ffd5b50565b5f81359050610506816104e2565b92915050565b61051581610470565b811461051f575f5ffd5b50565b5f813590506105308161050c565b92915050565b61053f816103af565b8114610549575f5ffd5b50565b5f8135905061055a81610536565b92915050565b5f5f5f5f60808587031215610578576105776104de565b5b5f610585878288016104f8565b945050602061059687828801610522565b93505060406105a78782880161054c565b92505060606105b8878288016104f8565b91505092959194509250565b5f60a0820190506105d75f8301886104b6565b6105e46020830187610479565b6105f160408301866103b8565b6105fe60608301856103b8565b61060b60808301846104b6565b9695505050505050565b7f4e487b71000000000000000000000000000000000000000000000000000000005f52602260045260245ffd5b5f600282049050600182168061065957607f821691505b60208210810361066c5761066b610615565b5b5091905056fea26469706673582212201a0d70edc1aef3cacdfe1a5af16dfa54a1a74601c86a1a550cdcaa1a57a466ff64736f6c63430008230033","linkReferences":{}},"methodIdentifiers":{"answer()":"85bb7d69","answeredInRound()":"c22c2499","decimals()":"313ce567","description()":"7284e416","latestRoundData()":"feaf968c","roundId()":"8cd221c9","setRoundData(uint80,int256,uint256,uint80)":"f3019985","startedAt()":"f21f537d","updatedAt()":"7519ab50","version()":"54fd4d50"},"id":7}