{"abi":[{"type":"constructor","inputs":[{"name":"loanRegistryAddress","type":"address","internalType":"address"}],"stateMutability":"nonpayable"},{"type":"function","name":"admin","inputs":[],"outputs":[{"name":"","type":"address","internalType":"address"}],"stateMutability":"view"},{"type":"function","name":"calculateLtv","inputs":[{"name":"loanId","type":"uint256","internalType":"uint256"},{"name":"collateralPrice","type":"uint256","internalType":"uint256"},{"name":"priceDecimals","type":"uint256","internalType":"uint256"}],"outputs":[{"name":"","type":"uint256","internalType":"uint256"}],"stateMutability":"view"},{"type":"function","name":"depositCollateral","inputs":[{"name":"loanId","type":"uint256","internalType":"uint256"},{"name":"amount","type":"uint256","internalType":"uint256"}],"outputs":[],"stateMutability":"nonpayable"},{"type":"function","name":"getVault","inputs":[{"name":"loanId","type":"uint256","internalType":"uint256"}],"outputs":[{"name":"","type":"tuple","internalType":"struct CollateralVault.Vault","components":[{"name":"loanId","type":"uint256","internalType":"uint256"},{"name":"collateralToken","type":"address","internalType":"address"},{"name":"amount","type":"uint256","internalType":"uint256"},{"name":"borrower","type":"address","internalType":"address"},{"name":"locked","type":"bool","internalType":"bool"},{"name":"liquidated","type":"bool","internalType":"bool"}]}],"stateMutability":"view"},{"type":"function","name":"liquidateCollateral","inputs":[{"name":"loanId","type":"uint256","internalType":"uint256"}],"outputs":[],"stateMutability":"nonpayable"},{"type":"function","name":"liquidateCollateralTo","inputs":[{"name":"loanId","type":"uint256","internalType":"uint256"},{"name":"recipient","type":"address","internalType":"address"}],"outputs":[{"name":"collateralToken","type":"address","internalType":"address"},{"name":"amount","type":"uint256","internalType":"uint256"},{"name":"borrower","type":"address","internalType":"address"}],"stateMutability":"nonpayable"},{"type":"function","name":"liquidationEngine","inputs":[],"outputs":[{"name":"","type":"address","internalType":"address"}],"stateMutability":"view"},{"type":"function","name":"loanRegistry","inputs":[],"outputs":[{"name":"","type":"address","internalType":"contract LoanRegistry"}],"stateMutability":"view"},{"type":"function","name":"releaseCollateral","inputs":[{"name":"loanId","type":"uint256","internalType":"uint256"}],"outputs":[],"stateMutability":"nonpayable"},{"type":"function","name":"setLiquidationEngine","inputs":[{"name":"engine","type":"address","internalType":"address"}],"outputs":[],"stateMutability":"nonpayable"},{"type":"function","name":"vaults","inputs":[{"name":"","type":"uint256","internalType":"uint256"}],"outputs":[{"name":"loanId","type":"uint256","internalType":"uint256"},{"name":"collateralToken","type":"address","internalType":"address"},{"name":"amount","type":"uint256","internalType":"uint256"},{"name":"borrower","type":"address","internalType":"address"},{"name":"locked","type":"bool","internalType":"bool"},{"name":"liquidated","type":"bool","internalType":"bool"}],"stateMutability":"view"},{"type":"event","name":"CollateralDeposited","inputs":[{"name":"loanId","type":"uint256","indexed":true,"internalType":"uint256"},{"name":"borrower","type":"address","indexed":true,"internalType":"address"},{"name":"amount","type":"uint256","indexed":false,"internalType":"uint256"}],"anonymous":false},{"type":"event","name":"CollateralLiquidated","inputs":[{"name":"loanId","type":"uint256","indexed":true,"internalType":"uint256"},{"name":"amount","type":"uint256","indexed":false,"internalType":"uint256"}],"anonymous":false},{"type":"event","name":"CollateralLiquidatedTo","inputs":[{"name":"loanId","type":"uint256","indexed":true,"internalType":"uint256"},{"name":"collateralToken","type":"address","indexed":true,"internalType":"address"},{"name":"recipient","type":"address","indexed":true,"internalType":"address"},{"name":"amount","type":"uint256","indexed":false,"internalType":"uint256"}],"anonymous":false},{"type":"event","name":"CollateralReleased","inputs":[{"name":"loanId","type":"uint256","indexed":true,"internalType":"uint256"},{"name":"amount","type":"uint256","indexed":false,"internalType":"uint256"}],"anonymous":false},{"type":"event","name":"CollateralToppedUp","inputs":[{"name":"loanId","type":"uint256","indexed":true,"internalType":"uint256"},{"name":"borrower","type":"address","indexed":true,"internalType":"address"},{"name":"amount","type":"uint256","indexed":false,"internalType":"uint256"},{"name":"newTotalAmount","type":"uint256","indexed":false,"internalType":"uint256"}],"anonymous":false},{"type":"event","name":"LiquidationEngineSet","inputs":[{"name":"oldEngine","type":"address","indexed":true,"internalType":"address"},{"name":"newEngine","type":"address","indexed":true,"internalType":"address"}],"anonymous":false}],"bytecode":{"object":"0x608060405234801561000f575f5ffd5b5060405161325038038061325083398181016040528101906100319190610182565b5f73ffffffffffffffffffffffffffffffffffffffff168173ffffffffffffffffffffffffffffffffffffffff160361009f576040517f08c379a000000000000000000000000000000000000000000000000000000000815260040161009690610207565b60405180910390fd5b805f5f6101000a81548173ffffffffffffffffffffffffffffffffffffffff021916908373ffffffffffffffffffffffffffffffffffffffff1602179055503360015f6101000a81548173ffffffffffffffffffffffffffffffffffffffff021916908373ffffffffffffffffffffffffffffffffffffffff16021790555050610225565b5f5ffd5b5f73ffffffffffffffffffffffffffffffffffffffff82169050919050565b5f61015182610128565b9050919050565b61016181610147565b811461016b575f5ffd5b50565b5f8151905061017c81610158565b92915050565b5f6020828403121561019757610196610124565b5b5f6101a48482850161016e565b91505092915050565b5f82825260208201905092915050565b7f496e76616c6964207265676973747279206164647265737300000000000000005f82015250565b5f6101f16018836101ad565b91506101fc826101bd565b602082019050919050565b5f6020820190508181035f83015261021e816101e5565b9050919050565b61301e806102325f395ff3fe608060405234801561000f575f5ffd5b50600436106100a7575f3560e01c80638c64ea4a1161006f5780638c64ea4a1461014d5780639403b63414610182578063a77957ea146101b2578063ba6c6bd3146101d0578063ece1373214610202578063f851a4401461021e576100a7565b806339007b77146100ab5780633938ccdf146100c757806344bf3c72146100e35780634d298abd146101015780635be1c68b1461011d575b5f5ffd5b6100c560048036038101906100c09190611d86565b61023c565b005b6100e160048036038101906100dc9190611d86565b61068f565b005b6100eb6107cf565b6040516100f89190611df0565b60405180910390f35b61011b60048036038101906101169190611e33565b6107f4565b005b61013760048036038101906101329190611e5e565b6109af565b6040516101449190611ebd565b60405180910390f35b61016760048036038101906101629190611d86565b610cc0565b60405161017996959493929190611ef0565b60405180910390f35b61019c60048036038101906101979190611d86565b610d50565b6040516101a99190611ff5565b60405180910390f35b6101ba610e6e565b6040516101c79190612069565b60405180910390f35b6101ea60048036038101906101e59190612082565b610e92565b6040516101f9939291906120c0565b60405180910390f35b61021c600480360381019061021791906120f5565b610fa9565b005b6102266117ae565b6040516102339190611df0565b60405180910390f35b5f60035f8381526020019081526020015f2090505f815f015403610295576040517f08c379a000000000000000000000000000000000000000000000000000000000815260040161028c9061218d565b60405180910390fd5b8060030160159054906101000a900460ff16156102e7576040517f08c379a00000000000000000000000000000000000000000000000000000000081526004016102de906121f5565b60405180910390fd5b5f81600201541161032d576040517f08c379a00000000000000000000000000000000000000000000000000000000081526004016103249061225d565b60405180910390fd5b5f5f5f9054906101000a900473ffffffffffffffffffffffffffffffffffffffff1673ffffffffffffffffffffffffffffffffffffffff1663504006ca846040518263ffffffff1660e01b81526004016103879190611ebd565b61016060405180830381865afa1580156103a3573d5f5f3e3d5ffd5b505050506040513d601f19601f820116820180604052508101906103c7919061246e565b90505f815f01510361040e576040517f08c379a0000000000000000000000000000000000000000000000000000000008152600401610405906124e4565b60405180910390fd5b816003015f9054906101000a900473ffffffffffffffffffffffffffffffffffffffff1673ffffffffffffffffffffffffffffffffffffffff163373ffffffffffffffffffffffffffffffffffffffff161461049f576040517f08c379a00000000000000000000000000000000000000000000000000000000081526004016104969061254c565b60405180910390fd5b600460078111156104b3576104b261256a565b5b60ff168160e0015160ff1614806104e557506007808111156104d8576104d761256a565b5b60ff168160e0015160ff16145b610524576040517f08c379a000000000000000000000000000000000000000000000000000000000815260040161051b906125e1565b60405180910390fd5b5f826002015490505f83600201819055505f8360030160146101000a81548160ff021916908315150217905550826001015f9054906101000a900473ffffffffffffffffffffffffffffffffffffffff1673ffffffffffffffffffffffffffffffffffffffff1663a9059cbb846003015f9054906101000a900473ffffffffffffffffffffffffffffffffffffffff16836040518363ffffffff1660e01b81526004016105d29291906125ff565b6020604051808303815f875af11580156105ee573d5f5f3e3d5ffd5b505050506040513d601f19601f820116820180604052508101906106129190612650565b610651576040517f08c379a0000000000000000000000000000000000000000000000000000000008152600401610648906126c5565b60405180910390fd5b837fd6513284110ca9c03fb9099da6d3e2c1c34761de7886e2185080cc9a91a46307826040516106819190611ebd565b60405180910390a250505050565b60025f9054906101000a900473ffffffffffffffffffffffffffffffffffffffff1673ffffffffffffffffffffffffffffffffffffffff163373ffffffffffffffffffffffffffffffffffffffff161461071e576040517f08c379a000000000000000000000000000000000000000000000000000000000815260040161071590612753565b60405180910390fd5b5f5f5f9054906101000a900473ffffffffffffffffffffffffffffffffffffffff1673ffffffffffffffffffffffffffffffffffffffff1663504006ca836040518263ffffffff1660e01b81526004016107789190611ebd565b61016060405180830381865afa158015610794573d5f5f3e3d5ffd5b505050506040513d601f19601f820116820180604052508101906107b8919061246e565b90506107c88282604001516117d3565b5050505050565b60025f9054906101000a900473ffffffffffffffffffffffffffffffffffffffff1681565b60015f9054906101000a900473ffffffffffffffffffffffffffffffffffffffff1673ffffffffffffffffffffffffffffffffffffffff163373ffffffffffffffffffffffffffffffffffffffff1614610883576040517f08c379a000000000000000000000000000000000000000000000000000000000815260040161087a906127e1565b60405180910390fd5b5f73ffffffffffffffffffffffffffffffffffffffff168173ffffffffffffffffffffffffffffffffffffffff16036108f1576040517f08c379a00000000000000000000000000000000000000000000000000000000081526004016108e890612849565b60405180910390fd5b8073ffffffffffffffffffffffffffffffffffffffff1660025f9054906101000a900473ffffffffffffffffffffffffffffffffffffffff1673ffffffffffffffffffffffffffffffffffffffff167fcfedc450a13b10a5afb3da45e43b35da1488118f862fe51018bb97405389425d60405160405180910390a38060025f6101000a81548173ffffffffffffffffffffffffffffffffffffffff021916908373ffffffffffffffffffffffffffffffffffffffff16021790555050565b5f5f5f5f9054906101000a900473ffffffffffffffffffffffffffffffffffffffff1673ffffffffffffffffffffffffffffffffffffffff1663504006ca866040518263ffffffff1660e01b8152600401610a0a9190611ebd565b61016060405180830381865afa158015610a26573d5f5f3e3d5ffd5b505050506040513d601f19601f82011682018060405250810190610a4a919061246e565b90505f815f015103610a91576040517f08c379a0000000000000000000000000000000000000000000000000000000008152600401610a88906124e4565b60405180910390fd5b5f60035f8781526020019081526020015f206040518060c00160405290815f8201548152602001600182015f9054906101000a900473ffffffffffffffffffffffffffffffffffffffff1673ffffffffffffffffffffffffffffffffffffffff1673ffffffffffffffffffffffffffffffffffffffff16815260200160028201548152602001600382015f9054906101000a900473ffffffffffffffffffffffffffffffffffffffff1673ffffffffffffffffffffffffffffffffffffffff1673ffffffffffffffffffffffffffffffffffffffff1681526020016003820160149054906101000a900460ff161515151581526020016003820160159054906101000a900460ff16151515158152505090505f816040015111610be9576040517f08c379a0000000000000000000000000000000000000000000000000000000008152600401610be0906128b1565b60405180910390fd5b5f8511610c2b576040517f08c379a0000000000000000000000000000000000000000000000000000000008152600401610c2290612919565b60405180910390fd5b5f84600a610c399190612a93565b868360400151610c499190612add565b610c539190612b4b565b90505f8111610c97576040517f08c379a0000000000000000000000000000000000000000000000000000000008152600401610c8e90612bc5565b60405180910390fd5b806127108460a00151610caa9190612add565b610cb49190612b4b565b93505050509392505050565b6003602052805f5260405f205f91509050805f015490806001015f9054906101000a900473ffffffffffffffffffffffffffffffffffffffff1690806002015490806003015f9054906101000a900473ffffffffffffffffffffffffffffffffffffffff16908060030160149054906101000a900460ff16908060030160159054906101000a900460ff16905086565b610d58611ce6565b60035f8381526020019081526020015f206040518060c00160405290815f8201548152602001600182015f9054906101000a900473ffffffffffffffffffffffffffffffffffffffff1673ffffffffffffffffffffffffffffffffffffffff1673ffffffffffffffffffffffffffffffffffffffff16815260200160028201548152602001600382015f9054906101000a900473ffffffffffffffffffffffffffffffffffffffff1673ffffffffffffffffffffffffffffffffffffffff1673ffffffffffffffffffffffffffffffffffffffff1681526020016003820160149054906101000a900460ff161515151581526020016003820160159054906101000a900460ff1615151515815250509050919050565b5f5f9054906101000a900473ffffffffffffffffffffffffffffffffffffffff1681565b5f5f5f60025f9054906101000a900473ffffffffffffffffffffffffffffffffffffffff1673ffffffffffffffffffffffffffffffffffffffff163373ffffffffffffffffffffffffffffffffffffffff1614610f24576040517f08c379a0000000000000000000000000000000000000000000000000000000008152600401610f1b90612753565b60405180910390fd5b5f73ffffffffffffffffffffffffffffffffffffffff168473ffffffffffffffffffffffffffffffffffffffff1603610f92576040517f08c379a0000000000000000000000000000000000000000000000000000000008152600401610f8990612c2d565b60405180910390fd5b610f9c85856117d3565b9250925092509250925092565b5f8111610feb576040517f08c379a0000000000000000000000000000000000000000000000000000000008152600401610fe290612c95565b60405180910390fd5b5f5f5f9054906101000a900473ffffffffffffffffffffffffffffffffffffffff1673ffffffffffffffffffffffffffffffffffffffff1663504006ca846040518263ffffffff1660e01b81526004016110459190611ebd565b61016060405180830381865afa158015611061573d5f5f3e3d5ffd5b505050506040513d601f19601f82011682018060405250810190611085919061246e565b90505f815f0151036110cc576040517f08c379a00000000000000000000000000000000000000000000000000000000081526004016110c3906124e4565b60405180910390fd5b806020015173ffffffffffffffffffffffffffffffffffffffff163373ffffffffffffffffffffffffffffffffffffffff161461113e576040517f08c379a000000000000000000000000000000000000000000000000000000000815260040161113590612cfd565b60405180910390fd5b5f5f60078111156111525761115161256a565b5b60ff168260e0015160ff1614806111855750600160078111156111785761117761256a565b5b60ff168260e0015160ff16145b90505f6002600781111561119c5761119b61256a565b5b60ff168360e0015160ff1614806111cf5750600360078111156111c2576111c161256a565b5b60ff168360e0015160ff16145b905081806111da5750805b611219576040517f08c379a000000000000000000000000000000000000000000000000000000000815260040161121090612d65565b60405180910390fd5b5f60035f8781526020019081526020015f2090505f73ffffffffffffffffffffffffffffffffffffffff16816001015f9054906101000a900473ffffffffffffffffffffffffffffffffffffffff1673ffffffffffffffffffffffffffffffffffffffff1614806112dc5750836060015173ffffffffffffffffffffffffffffffffffffffff16816001015f9054906101000a900473ffffffffffffffffffffffffffffffffffffffff1673ffffffffffffffffffffffffffffffffffffffff16145b61131b576040517f08c379a000000000000000000000000000000000000000000000000000000000815260040161131290612dcd565b60405180910390fd5b8060030160159054906101000a900460ff161561136d576040517f08c379a0000000000000000000000000000000000000000000000000000000008152600401611364906121f5565b60405180910390fd5b811561140a575f815f0154036113b8576040517f08c379a00000000000000000000000000000000000000000000000000000000081526004016113af9061218d565b60405180910390fd5b8060030160149054906101000a900460ff16611409576040517f08c379a000000000000000000000000000000000000000000000000000000000815260040161140090612e35565b60405180910390fd5b5b85815f01819055508360600151816001015f6101000a81548173ffffffffffffffffffffffffffffffffffffffff021916908373ffffffffffffffffffffffffffffffffffffffff1602179055508360200151816003015f6101000a81548173ffffffffffffffffffffffffffffffffffffffff021916908373ffffffffffffffffffffffffffffffffffffffff16021790555084816002015f8282546114b19190612e53565b9250508190555060018160030160146101000a81548160ff021916908315150217905550836060015173ffffffffffffffffffffffffffffffffffffffff166323b872dd3330886040518463ffffffff1660e01b815260040161151693929190612e86565b6020604051808303815f875af1158015611532573d5f5f3e3d5ffd5b505050506040513d601f19601f820116820180604052508101906115569190612650565b611595576040517f08c379a000000000000000000000000000000000000000000000000000000000815260040161158c906126c5565b60405180910390fd5b5f8585608001516115a69190612e53565b90505f5f9054906101000a900473ffffffffffffffffffffffffffffffffffffffff1673ffffffffffffffffffffffffffffffffffffffff166319b19afd88836040518363ffffffff1660e01b8152600401611603929190612ebb565b5f604051808303815f87803b15801561161a575f5ffd5b505af115801561162c573d5f5f3e3d5ffd5b50505050838061165857506003600781111561164b5761164a61256a565b5b60ff168560e0015160ff16145b156116f9575f5f9054906101000a900473ffffffffffffffffffffffffffffffffffffffff1673ffffffffffffffffffffffffffffffffffffffff1663ecdfa39f88600260078111156116ae576116ad61256a565b5b6040518363ffffffff1660e01b81526004016116cb929190612ef1565b5f604051808303815f87803b1580156116e2575f5ffd5b505af11580156116f4573d5f5f3e3d5ffd5b505050505b8215611755573373ffffffffffffffffffffffffffffffffffffffff16877fd95a2b47d7ac2855a33bb43037f3f19f4ee8ee4398e626acab574a706ed9b93a8884604051611748929190612ebb565b60405180910390a36117a5565b3373ffffffffffffffffffffffffffffffffffffffff16877feec2f3feb835e2f2fd44281034b04700a1ddda63dd402949d470a25a7c40b36c8860405161179c9190611ebd565b60405180910390a35b50505050505050565b60015f9054906101000a900473ffffffffffffffffffffffffffffffffffffffff1681565b5f5f5f5f60035f8781526020019081526020015f2090505f815f01540361182f576040517f08c379a00000000000000000000000000000000000000000000000000000000081526004016118269061218d565b60405180910390fd5b8060030160159054906101000a900460ff1615611881576040517f08c379a0000000000000000000000000000000000000000000000000000000008152600401611878906121f5565b60405180910390fd5b5f8160020154116118c7576040517f08c379a00000000000000000000000000000000000000000000000000000000081526004016118be90612f62565b60405180910390fd5b5f5f5f9054906101000a900473ffffffffffffffffffffffffffffffffffffffff1673ffffffffffffffffffffffffffffffffffffffff1663504006ca886040518263ffffffff1660e01b81526004016119219190611ebd565b61016060405180830381865afa15801561193d573d5f5f3e3d5ffd5b505050506040513d601f19601f82011682018060405250810190611961919061246e565b90505f815f0151036119a8576040517f08c379a000000000000000000000000000000000000000000000000000000000815260040161199f906124e4565b60405180910390fd5b600260078111156119bc576119bb61256a565b5b60ff168160e0015160ff1614806119ef5750600360078111156119e2576119e161256a565b5b60ff168160e0015160ff16145b80611a16575060056007811115611a0957611a0861256a565b5b60ff168160e0015160ff16145b611a55576040517f08c379a0000000000000000000000000000000000000000000000000000000008152600401611a4c90612fca565b60405180910390fd5b816001015f9054906101000a900473ffffffffffffffffffffffffffffffffffffffff16945081600201549350816003015f9054906101000a900473ffffffffffffffffffffffffffffffffffffffff1692505f82600201819055505f8260030160146101000a81548160ff02191690831515021790555060018260030160156101000a81548160ff0219169083151502179055508473ffffffffffffffffffffffffffffffffffffffff1663a9059cbb87866040518363ffffffff1660e01b8152600401611b259291906125ff565b6020604051808303815f875af1158015611b41573d5f5f3e3d5ffd5b505050506040513d601f19601f82011682018060405250810190611b659190612650565b611ba4576040517f08c379a0000000000000000000000000000000000000000000000000000000008152600401611b9b906126c5565b60405180910390fd5b5f5f9054906101000a900473ffffffffffffffffffffffffffffffffffffffff1673ffffffffffffffffffffffffffffffffffffffff1663ecdfa39f8860066007811115611bf557611bf461256a565b5b6040518363ffffffff1660e01b8152600401611c12929190612ef1565b5f604051808303815f87803b158015611c29575f5ffd5b505af1158015611c3b573d5f5f3e3d5ffd5b50505050867f524adb2d966e366fe4ac4c5d94b814afdb2e4a8879615407f112a91812251b6085604051611c6f9190611ebd565b60405180910390a28573ffffffffffffffffffffffffffffffffffffffff168573ffffffffffffffffffffffffffffffffffffffff16887fd1660c14e5ae45c55cf728c2c87fb49bc2e2909911898c515a2f8c7c2161d39187604051611cd59190611ebd565b60405180910390a450509250925092565b6040518060c001604052805f81526020015f73ffffffffffffffffffffffffffffffffffffffff1681526020015f81526020015f73ffffffffffffffffffffffffffffffffffffffff1681526020015f151581526020015f151581525090565b5f604051905090565b5f5ffd5b5f819050919050565b611d6581611d53565b8114611d6f575f5ffd5b50565b5f81359050611d8081611d5c565b92915050565b5f60208284031215611d9b57611d9a611d4f565b5b5f611da884828501611d72565b91505092915050565b5f73ffffffffffffffffffffffffffffffffffffffff82169050919050565b5f611dda82611db1565b9050919050565b611dea81611dd0565b82525050565b5f602082019050611e035f830184611de1565b92915050565b611e1281611dd0565b8114611e1c575f5ffd5b50565b5f81359050611e2d81611e09565b92915050565b5f60208284031215611e4857611e47611d4f565b5b5f611e5584828501611e1f565b91505092915050565b5f5f5f60608486031215611e7557611e74611d4f565b5b5f611e8286828701611d72565b9350506020611e9386828701611d72565b9250506040611ea486828701611d72565b9150509250925092565b611eb781611d53565b82525050565b5f602082019050611ed05f830184611eae565b92915050565b5f8115159050919050565b611eea81611ed6565b82525050565b5f60c082019050611f035f830189611eae565b611f106020830188611de1565b611f1d6040830187611eae565b611f2a6060830186611de1565b611f376080830185611ee1565b611f4460a0830184611ee1565b979650505050505050565b611f5881611d53565b82525050565b611f6781611dd0565b82525050565b611f7681611ed6565b82525050565b60c082015f820151611f905f850182611f4f565b506020820151611fa36020850182611f5e565b506040820151611fb66040850182611f4f565b506060820151611fc96060850182611f5e565b506080820151611fdc6080850182611f6d565b5060a0820151611fef60a0850182611f6d565b50505050565b5f60c0820190506120085f830184611f7c565b92915050565b5f819050919050565b5f61203161202c61202784611db1565b61200e565b611db1565b9050919050565b5f61204282612017565b9050919050565b5f61205382612038565b9050919050565b61206381612049565b82525050565b5f60208201905061207c5f83018461205a565b92915050565b5f5f6040838503121561209857612097611d4f565b5b5f6120a585828601611d72565b92505060206120b685828601611e1f565b9150509250929050565b5f6060820190506120d35f830186611de1565b6120e06020830185611eae565b6120ed6040830184611de1565b949350505050565b5f5f6040838503121561210b5761210a611d4f565b5b5f61211885828601611d72565b925050602061212985828601611d72565b9150509250929050565b5f82825260208201905092915050565b7f5661756c74206e6f7420666f756e6400000000000000000000000000000000005f82015250565b5f612177600f83612133565b915061218282612143565b602082019050919050565b5f6020820190508181035f8301526121a48161216b565b9050919050565b7f436f6c6c61746572616c20616c7265616479206c6971756964617465640000005f82015250565b5f6121df601d83612133565b91506121ea826121ab565b602082019050919050565b5f6020820190508181035f83015261220c816121d3565b9050919050565b7f4e6f20636f6c6c61746572616c20746f2072656c6561736500000000000000005f82015250565b5f612247601883612133565b915061225282612213565b602082019050919050565b5f6020820190508181035f8301526122748161223b565b9050919050565b5f5ffd5b5f601f19601f8301169050919050565b7f4e487b71000000000000000000000000000000000000000000000000000000005f52604160045260245ffd5b6122c58261227f565b810181811067ffffffffffffffff821117156122e4576122e361228f565b5b80604052505050565b5f6122f6611d46565b905061230282826122bc565b919050565b5f8151905061231581611d5c565b92915050565b5f8151905061232981611e09565b92915050565b5f60ff82169050919050565b6123448161232f565b811461234e575f5ffd5b50565b5f8151905061235f8161233b565b92915050565b5f610160828403121561237b5761237a61227b565b5b6123866101606122ed565b90505f61239584828501612307565b5f8301525060206123a88482850161231b565b60208301525060406123bc8482850161231b565b60408301525060606123d08482850161231b565b60608301525060806123e484828501612307565b60808301525060a06123f884828501612307565b60a08301525060c061240c84828501612307565b60c08301525060e061242084828501612351565b60e08301525061010061243584828501612307565b6101008301525061012061244b84828501612307565b6101208301525061014061246184828501612307565b6101408301525092915050565b5f610160828403121561248457612483611d4f565b5b5f61249184828501612365565b91505092915050565b7f4c6f616e206e6f7420666f756e640000000000000000000000000000000000005f82015250565b5f6124ce600e83612133565b91506124d98261249a565b602082019050919050565b5f6020820190508181035f8301526124fb816124c2565b9050919050565b7f4f6e6c7920626f72726f7765722063616e2072656c65617365000000000000005f82015250565b5f612536601983612133565b915061254182612502565b602082019050919050565b5f6020820190508181035f8301526125638161252a565b9050919050565b7f4e487b71000000000000000000000000000000000000000000000000000000005f52602160045260245ffd5b7f4c6f616e206e6f742072656c65617361626c65000000000000000000000000005f82015250565b5f6125cb601383612133565b91506125d682612597565b602082019050919050565b5f6020820190508181035f8301526125f8816125bf565b9050919050565b5f6040820190506126125f830185611de1565b61261f6020830184611eae565b9392505050565b61262f81611ed6565b8114612639575f5ffd5b50565b5f8151905061264a81612626565b92915050565b5f6020828403121561266557612664611d4f565b5b5f6126728482850161263c565b91505092915050565b7f5472616e73666572206661696c656400000000000000000000000000000000005f82015250565b5f6126af600f83612133565b91506126ba8261267b565b602082019050919050565b5f6020820190508181035f8301526126dc816126a3565b9050919050565b7f4f6e6c79206c69717569646174696f6e20656e67696e652063616e206c6971755f8201527f6964617465000000000000000000000000000000000000000000000000000000602082015250565b5f61273d602583612133565b9150612748826126e3565b604082019050919050565b5f6020820190508181035f83015261276a81612731565b9050919050565b7f436f6c6c61746572616c5661756c743a2063616c6c6572206973206e6f7420615f8201527f646d696e00000000000000000000000000000000000000000000000000000000602082015250565b5f6127cb602483612133565b91506127d682612771565b604082019050919050565b5f6020820190508181035f8301526127f8816127bf565b9050919050565b7f496e76616c6964206c69717569646174696f6e20656e67696e650000000000005f82015250565b5f612833601a83612133565b915061283e826127ff565b602082019050919050565b5f6020820190508181035f83015261286081612827565b9050919050565b7f4e6f20636f6c6c61746572616c000000000000000000000000000000000000005f82015250565b5f61289b600d83612133565b91506128a682612867565b602082019050919050565b5f6020820190508181035f8301526128c88161288f565b9050919050565b7f496e76616c6964207072696365000000000000000000000000000000000000005f82015250565b5f612903600d83612133565b915061290e826128cf565b602082019050919050565b5f6020820190508181035f830152612930816128f7565b9050919050565b7f4e487b71000000000000000000000000000000000000000000000000000000005f52601160045260245ffd5b5f8160011c9050919050565b5f5f8291508390505b60018511156129b95780860481111561299557612994612937565b5b60018516156129a45780820291505b80810290506129b285612964565b9450612979565b94509492505050565b5f826129d15760019050612a8c565b816129de575f9050612a8c565b81600181146129f457600281146129fe57612a2d565b6001915050612a8c565b60ff841115612a1057612a0f612937565b5b8360020a915084821115612a2757612a26612937565b5b50612a8c565b5060208310610133831016604e8410600b8410161715612a625782820a905083811115612a5d57612a5c612937565b5b612a8c565b612a6f8484846001612970565b92509050818404811115612a8657612a85612937565b5b81810290505b9392505050565b5f612a9d82611d53565b9150612aa883611d53565b9250612ad57fffffffffffffffffffffffffffffffffffffffffffffffffffffffffffffffff84846129c2565b905092915050565b5f612ae782611d53565b9150612af283611d53565b9250828202612b0081611d53565b91508282048414831517612b1757612b16612937565b5b5092915050565b7f4e487b71000000000000000000000000000000000000000000000000000000005f52601260045260245ffd5b5f612b5582611d53565b9150612b6083611d53565b925082612b7057612b6f612b1e565b5b828204905092915050565b7f436f6c6c61746572616c2076616c7565206973207a65726f00000000000000005f82015250565b5f612baf601883612133565b9150612bba82612b7b565b602082019050919050565b5f6020820190508181035f830152612bdc81612ba3565b9050919050565b7f496e76616c6964206c69717569646174696f6e20726563697069656e740000005f82015250565b5f612c17601d83612133565b9150612c2282612be3565b602082019050919050565b5f6020820190508181035f830152612c4481612c0b565b9050919050565b7f416d6f756e74206d757374206265203e203000000000000000000000000000005f82015250565b5f612c7f601283612133565b9150612c8a82612c4b565b602082019050919050565b5f6020820190508181035f830152612cac81612c73565b9050919050565b7f4f6e6c7920626f72726f7765722063616e206465706f736974000000000000005f82015250565b5f612ce7601983612133565b9150612cf282612cb3565b602082019050919050565b5f6020820190508181035f830152612d1481612cdb565b9050919050565b7f4c6f616e206e6f74206465706f73697461626c650000000000000000000000005f82015250565b5f612d4f601483612133565b9150612d5a82612d1b565b602082019050919050565b5f6020820190508181035f830152612d7c81612d43565b9050919050565b7f436f6c6c61746572616c20746f6b656e206d69736d61746368000000000000005f82015250565b5f612db7601983612133565b9150612dc282612d83565b602082019050919050565b5f6020820190508181035f830152612de481612dab565b9050919050565b7f5661756c74206e6f74206c6f636b6564000000000000000000000000000000005f82015250565b5f612e1f601083612133565b9150612e2a82612deb565b602082019050919050565b5f6020820190508181035f830152612e4c81612e13565b9050919050565b5f612e5d82611d53565b9150612e6883611d53565b9250828201905080821115612e8057612e7f612937565b5b92915050565b5f606082019050612e995f830186611de1565b612ea66020830185611de1565b612eb36040830184611eae565b949350505050565b5f604082019050612ece5f830185611eae565b612edb6020830184611eae565b9392505050565b612eeb8161232f565b82525050565b5f604082019050612f045f830185611eae565b612f116020830184612ee2565b9392505050565b7f4e6f20636f6c6c61746572616c20746f206c69717569646174650000000000005f82015250565b5f612f4c601a83612133565b9150612f5782612f18565b602082019050919050565b5f6020820190508181035f830152612f7981612f40565b9050919050565b7f4c6f616e206e6f74206c6971756964617461626c6500000000000000000000005f82015250565b5f612fb4601583612133565b9150612fbf82612f80565b602082019050919050565b5f6020820190508181035f830152612fe181612fa8565b905091905056fea264697066735822122095183322f9911d0eb91070627c28359595bebfa05b4652f38d9a76c3b78cc99564736f6c63430008230033","linkReferences":{}},"methodIdentifiers":{"admin()":"f851a440","calculateLtv(uint256,uint256,uint256)":"5be1c68b","depositCollateral(uint256,uint256)":"ece13732","getVault(uint256)":"9403b634","liquidateCollateral(uint256)":"3938ccdf","liquidateCollateralTo(uint256,address)":"ba6c6bd3","liquidationEngine()":"44bf3c72","loanRegistry()":"a77957ea","releaseCollateral(uint256)":"39007b77","setLiquidationEngine(address)":"4d298abd","vaults(uint256)":"8c64ea4a"},"id":1}