{"abi":[{"type":"constructor","inputs":[{"name":"loanRegistryAddress","type":"address","internalType":"address"},{"name":"collateralVaultAddress","type":"address","internalType":"address"},{"name":"proceedsTokenAddress","type":"address","internalType":"address"},{"name":"feeBps","type":"uint16","internalType":"uint16"}],"stateMutability":"nonpayable"},{"type":"function","name":"CRITICAL_COVERAGE_BUFFER_BPS","inputs":[],"outputs":[{"name":"","type":"uint16","internalType":"uint16"}],"stateMutability":"view"},{"type":"function","name":"admin","inputs":[],"outputs":[{"name":"","type":"address","internalType":"address"}],"stateMutability":"view"},{"type":"function","name":"adminExpenseBps","inputs":[],"outputs":[{"name":"","type":"uint16","internalType":"uint16"}],"stateMutability":"view"},{"type":"function","name":"canLiquidate","inputs":[{"name":"loanId","type":"uint256","internalType":"uint256"},{"name":"collateralPrice","type":"uint256","internalType":"uint256"},{"name":"priceDecimals","type":"uint256","internalType":"uint256"}],"outputs":[{"name":"allowed","type":"bool","internalType":"bool"},{"name":"reason","type":"string","internalType":"string"}],"stateMutability":"view"},{"type":"function","name":"canLiquidateFromOracle","inputs":[{"name":"loanId","type":"uint256","internalType":"uint256"}],"outputs":[{"name":"allowed","type":"bool","internalType":"bool"},{"name":"reason","type":"string","internalType":"string"}],"stateMutability":"view"},{"type":"function","name":"collateralVault","inputs":[],"outputs":[{"name":"","type":"address","internalType":"contract CollateralVault"}],"stateMutability":"view"},{"type":"function","name":"liquidateLoan","inputs":[{"name":"loanId","type":"uint256","internalType":"uint256"},{"name":"collateralPrice","type":"uint256","internalType":"uint256"},{"name":"priceDecimals","type":"uint256","internalType":"uint256"},{"name":"fundingPartner","type":"address","internalType":"address"}],"outputs":[],"stateMutability":"nonpayable"},{"type":"function","name":"loanRegistry","inputs":[],"outputs":[{"name":"","type":"address","internalType":"contract LoanRegistry"}],"stateMutability":"view"},{"type":"function","name":"originatorFeeBps","inputs":[],"outputs":[{"name":"","type":"uint16","internalType":"uint16"}],"stateMutability":"view"},{"type":"function","name":"priceOracle","inputs":[],"outputs":[{"name":"","type":"address","internalType":"address"}],"stateMutability":"view"},{"type":"function","name":"proceedsToken","inputs":[],"outputs":[{"name":"","type":"address","internalType":"contract IERC20"}],"stateMutability":"view"},{"type":"function","name":"setAdminExpenseBps","inputs":[{"name":"feeBps","type":"uint16","internalType":"uint16"}],"outputs":[],"stateMutability":"nonpayable"},{"type":"function","name":"setOriginatorFeeBps","inputs":[{"name":"feeBps","type":"uint16","internalType":"uint16"}],"outputs":[],"stateMutability":"nonpayable"},{"type":"function","name":"setPriceOracle","inputs":[{"name":"oracle","type":"address","internalType":"address"}],"outputs":[],"stateMutability":"nonpayable"},{"type":"function","name":"setProceedsToken","inputs":[{"name":"token","type":"address","internalType":"address"}],"outputs":[],"stateMutability":"nonpayable"},{"type":"event","name":"LoanLiquidated","inputs":[{"name":"loanId","type":"uint256","indexed":true,"internalType":"uint256"},{"name":"proceedsAmount","type":"uint256","indexed":false,"internalType":"uint256"},{"name":"proceedsToken","type":"address","indexed":true,"internalType":"address"},{"name":"fundingPartner","type":"address","indexed":true,"internalType":"address"},{"name":"fundingPartnerAmount","type":"uint256","indexed":false,"internalType":"uint256"},{"name":"originatorFeeAmount","type":"uint256","indexed":false,"internalType":"uint256"},{"name":"borrowerRemainderAmount","type":"uint256","indexed":false,"internalType":"uint256"}],"anonymous":false},{"type":"event","name":"PriceOracleSet","inputs":[{"name":"oldOracle","type":"address","indexed":true,"internalType":"address"},{"name":"newOracle","type":"address","indexed":true,"internalType":"address"}],"anonymous":false}],"bytecode":{"object":"0x608060405234801561000f575f5ffd5b506040516131b53803806131b58339818101604052810190610031919061039b565b5f73ffffffffffffffffffffffffffffffffffffffff168473ffffffffffffffffffffffffffffffffffffffff160361009f576040517f08c379a000000000000000000000000000000000000000000000000000000000815260040161009690610459565b60405180910390fd5b5f73ffffffffffffffffffffffffffffffffffffffff168373ffffffffffffffffffffffffffffffffffffffff160361010d576040517f08c379a0000000000000000000000000000000000000000000000000000000008152600401610104906104c1565b60405180910390fd5b5f73ffffffffffffffffffffffffffffffffffffffff168273ffffffffffffffffffffffffffffffffffffffff160361017b576040517f08c379a000000000000000000000000000000000000000000000000000000000815260040161017290610529565b60405180910390fd5b6127108161ffff1611156101c4576040517f08c379a00000000000000000000000000000000000000000000000000000000081526004016101bb90610591565b60405180910390fd5b835f5f6101000a81548173ffffffffffffffffffffffffffffffffffffffff021916908373ffffffffffffffffffffffffffffffffffffffff1602179055508260015f6101000a81548173ffffffffffffffffffffffffffffffffffffffff021916908373ffffffffffffffffffffffffffffffffffffffff1602179055508160025f6101000a81548173ffffffffffffffffffffffffffffffffffffffff021916908373ffffffffffffffffffffffffffffffffffffffff16021790555080600360146101000a81548161ffff021916908361ffff1602179055505f600360166101000a81548161ffff021916908361ffff1602179055503360035f6101000a81548173ffffffffffffffffffffffffffffffffffffffff021916908373ffffffffffffffffffffffffffffffffffffffff160217905550505050506105af565b5f5ffd5b5f73ffffffffffffffffffffffffffffffffffffffff82169050919050565b5f6103338261030a565b9050919050565b61034381610329565b811461034d575f5ffd5b50565b5f8151905061035e8161033a565b92915050565b5f61ffff82169050919050565b61037a81610364565b8114610384575f5ffd5b50565b5f8151905061039581610371565b92915050565b5f5f5f5f608085870312156103b3576103b2610306565b5b5f6103c087828801610350565b94505060206103d187828801610350565b93505060406103e287828801610350565b92505060606103f387828801610387565b91505092959194509250565b5f82825260208201905092915050565b7f496e76616c6964207265676973747279206164647265737300000000000000005f82015250565b5f6104436018836103ff565b915061044e8261040f565b602082019050919050565b5f6020820190508181035f83015261047081610437565b9050919050565b7f496e76616c696420636f6c6c61746572616c207661756c7420616464726573735f82015250565b5f6104ab6020836103ff565b91506104b682610477565b602082019050919050565b5f6020820190508181035f8301526104d88161049f565b9050919050565b7f496e76616c69642070726f636565647320746f6b656e206164647265737300005f82015250565b5f610513601e836103ff565b915061051e826104df565b602082019050919050565b5f6020820190508181035f83015261054081610507565b9050919050565b7f496e76616c69642066656520626173697320706f696e747300000000000000005f82015250565b5f61057b6018836103ff565b915061058682610547565b602082019050919050565b5f6020820190508181035f8301526105a88161056f565b9050919050565b612bf9806105bc5f395ff3fe608060405234801561000f575f5ffd5b50600436106100f3575f3560e01c80633d4c7f3e11610095578063d0d70b7a11610064578063d0d70b7a1461024a578063eaab400f1461027b578063f851a44014610299578063fe6339e3146102b7576100f3565b80633d4c7f3e146101d6578063530e784f146101f4578063a77957ea14610210578063b9a07d811461022e576100f3565b8063244b50c0116100d1578063244b50c01461014d5780632630c12f1461017e578063269d5c601461019c5780632ff5030a146101ba576100f3565b80630bece79c146100f757806310718f1514610115578063217faae414610131575b5f5ffd5b6100ff6102d5565b60405161010c91906117f9565b60405180910390f35b61012f600480360381019061012a919061188d565b6102fa565b005b61014b600480360381019061014691906118f1565b6106f1565b005b6101676004803603810190610162919061191c565b610831565b6040516101759291906119d1565b60405180910390f35b6101866108c0565b6040516101939190611a0e565b60405180910390f35b6101a46108e5565b6040516101b19190611a43565b60405180910390f35b6101d460048036038101906101cf9190611a86565b6108f9565b005b6101de6109f1565b6040516101eb9190611a43565b60405180910390f35b61020e600480360381019061020991906118f1565b610a05565b005b610218610be1565b6040516102259190611ad1565b60405180910390f35b61024860048036038101906102439190611a86565b610c05565b005b610264600480360381019061025f9190611aea565b610cfd565b6040516102729291906119d1565b60405180910390f35b61028361120d565b6040516102909190611a43565b60405180910390f35b6102a1611213565b6040516102ae9190611a0e565b60405180910390f35b6102bf611238565b6040516102cc9190611b5a565b60405180910390f35b60015f9054906101000a900473ffffffffffffffffffffffffffffffffffffffff1681565b5f73ffffffffffffffffffffffffffffffffffffffff168173ffffffffffffffffffffffffffffffffffffffff1603610368576040517f08c379a000000000000000000000000000000000000000000000000000000000815260040161035f90611bbd565b60405180910390fd5b5f5f5f9054906101000a900473ffffffffffffffffffffffffffffffffffffffff1673ffffffffffffffffffffffffffffffffffffffff1663504006ca866040518263ffffffff1660e01b81526004016103c29190611bea565b61016060405180830381865afa1580156103de573d5f5f3e3d5ffd5b505050506040513d601f19601f820116820180604052508101906104029190611de6565b90505f815f015103610449576040517f08c379a000000000000000000000000000000000000000000000000000000000815260040161044090611e5c565b60405180910390fd5b806040015173ffffffffffffffffffffffffffffffffffffffff163373ffffffffffffffffffffffffffffffffffffffff16146104bb576040517f08c379a00000000000000000000000000000000000000000000000000000000081526004016104b290611eea565b60405180910390fd5b5f5f6104c8878787610cfd565b9150915081819061050f576040517f08c379a00000000000000000000000000000000000000000000000000000000081526004016105069190611f08565b60405180910390fd5b505f5f60015f9054906101000a900473ffffffffffffffffffffffffffffffffffffffff1673ffffffffffffffffffffffffffffffffffffffff1663ba6c6bd38a306040518363ffffffff1660e01b815260040161056e929190611f28565b6060604051808303815f875af115801561058a573d5f5f3e3d5ffd5b505050506040513d601f19601f820116820180604052508101906105ae9190611f4f565b509150915060025f9054906101000a900473ffffffffffffffffffffffffffffffffffffffff1673ffffffffffffffffffffffffffffffffffffffff168273ffffffffffffffffffffffffffffffffffffffff1614610642576040517f08c379a00000000000000000000000000000000000000000000000000000000081526004016106399061200f565b60405180910390fd5b5f5f5f61065088858b61125d565b9250925092508873ffffffffffffffffffffffffffffffffffffffff1660025f9054906101000a900473ffffffffffffffffffffffffffffffffffffffff1673ffffffffffffffffffffffffffffffffffffffff168d7f6445b7a1a5209c6cd01d583260dc90c2ce858e8b25f8cc7b1dbc92ff21c7bf5a878787876040516106db949392919061202d565b60405180910390a4505050505050505050505050565b60035f9054906101000a900473ffffffffffffffffffffffffffffffffffffffff1673ffffffffffffffffffffffffffffffffffffffff163373ffffffffffffffffffffffffffffffffffffffff1614610780576040517f08c379a0000000000000000000000000000000000000000000000000000000008152600401610777906120e0565b60405180910390fd5b5f73ffffffffffffffffffffffffffffffffffffffff168173ffffffffffffffffffffffffffffffffffffffff16036107ee576040517f08c379a00000000000000000000000000000000000000000000000000000000081526004016107e590612148565b60405180910390fd5b8060025f6101000a81548173ffffffffffffffffffffffffffffffffffffffff021916908373ffffffffffffffffffffffffffffffffffffffff16021790555050565b5f60605f73ffffffffffffffffffffffffffffffffffffffff1660045f9054906101000a900473ffffffffffffffffffffffffffffffffffffffff1673ffffffffffffffffffffffffffffffffffffffff16036108ab575f6040518060600160405280602e8152602001612a28602e9139915091506108bb565b6108b6835f5f610cfd565b915091505b915091565b60045f9054906101000a900473ffffffffffffffffffffffffffffffffffffffff1681565b600360149054906101000a900461ffff1681565b60035f9054906101000a900473ffffffffffffffffffffffffffffffffffffffff1673ffffffffffffffffffffffffffffffffffffffff163373ffffffffffffffffffffffffffffffffffffffff1614610988576040517f08c379a000000000000000000000000000000000000000000000000000000000815260040161097f906120e0565b60405180910390fd5b6127108161ffff1611156109d1576040517f08c379a00000000000000000000000000000000000000000000000000000000081526004016109c8906121b0565b60405180910390fd5b80600360146101000a81548161ffff021916908361ffff16021790555050565b600360169054906101000a900461ffff1681565b60035f9054906101000a900473ffffffffffffffffffffffffffffffffffffffff1673ffffffffffffffffffffffffffffffffffffffff163373ffffffffffffffffffffffffffffffffffffffff1614610a94576040517f08c379a0000000000000000000000000000000000000000000000000000000008152600401610a8b906120e0565b60405180910390fd5b5f73ffffffffffffffffffffffffffffffffffffffff168173ffffffffffffffffffffffffffffffffffffffff161480610ae457505f8173ffffffffffffffffffffffffffffffffffffffff163b115b610b23576040517f08c379a0000000000000000000000000000000000000000000000000000000008152600401610b1a9061223e565b60405180910390fd5b8073ffffffffffffffffffffffffffffffffffffffff1660045f9054906101000a900473ffffffffffffffffffffffffffffffffffffffff1673ffffffffffffffffffffffffffffffffffffffff167f78f66d11c0fe8f0ce8dec169ad57f3438085a89b7371335b6e2b10e9685d7ecc60405160405180910390a38060045f6101000a81548173ffffffffffffffffffffffffffffffffffffffff021916908373ffffffffffffffffffffffffffffffffffffffff16021790555050565b5f5f9054906101000a900473ffffffffffffffffffffffffffffffffffffffff1681565b60035f9054906101000a900473ffffffffffffffffffffffffffffffffffffffff1673ffffffffffffffffffffffffffffffffffffffff163373ffffffffffffffffffffffffffffffffffffffff1614610c94576040517f08c379a0000000000000000000000000000000000000000000000000000000008152600401610c8b906120e0565b60405180910390fd5b6127108161ffff161115610cdd576040517f08c379a0000000000000000000000000000000000000000000000000000000008152600401610cd4906121b0565b60405180910390fd5b80600360166101000a81548161ffff021916908361ffff16021790555050565b5f60605f5f5f9054906101000a900473ffffffffffffffffffffffffffffffffffffffff1673ffffffffffffffffffffffffffffffffffffffff1663504006ca876040518263ffffffff1660e01b8152600401610d5a9190611bea565b61016060405180830381865afa158015610d76573d5f5f3e3d5ffd5b505050506040513d601f19601f82011682018060405250810190610d9a9190611de6565b90505f815f015103610dca575f60405180606001604052806021815260200161294f602191399250925050611205565b5f5f5f5f610dd9858a8a6115a0565b935093509350935083610df6575f81965096505050505050611205565b5f8303610e25575f6040518060600160405280602b8152602001612b19602b9139965096505050505050611205565b6024821115610e56575f604051806060016040528060298152602001612ac160299139965096505050505050611205565b5f60026007811115610e6b57610e6a61225c565b5b90505f60036007811115610e8257610e8161225c565b5b90505f60056007811115610e9957610e9861225c565b5b90508260ff168860e0015160ff1614158015610ebf57508160ff168860e0015160ff1614155b8015610ed557508060ff168860e0015160ff1614155b15610f05575f6040518060600160405280602f8152602001612aea602f9139995099505050505050505050611205565b5f60015f9054906101000a900473ffffffffffffffffffffffffffffffffffffffff1673ffffffffffffffffffffffffffffffffffffffff16639403b6348f6040518263ffffffff1660e01b8152600401610f609190611bea565b60c060405180830381865afa158015610f7b573d5f5f3e3d5ffd5b505050506040513d601f19601f82011682018060405250810190610f9f9190612350565b90505f815f015103610fd7575f604051806060016040528060228152602001612ba2602291399a509a50505050505050505050611205565b5f81604001510361100e575f6040518060600160405280602d81526020016129c5602d91399a509a50505050505050505050611205565b8060a0015115611044575f604051806060016040528060308152602001612a91603091399a509a50505050505050505050611205565b60025f9054906101000a900473ffffffffffffffffffffffffffffffffffffffff1673ffffffffffffffffffffffffffffffffffffffff16896060015173ffffffffffffffffffffffffffffffffffffffff16146110c8575f6040518060600160405280603d8152602001612b44603d91399a509a50505050505050505050611205565b8160ff168960e0015160ff1603611106576001604051806060016040528060218152602001612b81602191399a509a50505050505050505050611205565b5f86600a61111491906124d7565b8883604001516111249190612521565b61112e919061258f565b90505f8103611164575f6040518060600160405280602a815260200161299b602a91399b509b5050505050505050505050611205565b5f6111728b60a0015161173f565b90505f6127106103e861271061118891906125bf565b61ffff16836111979190612521565b6111a1919061258f565b90508083116111da5760016040518060600160405280603681526020016129f2603691399d509d50505050505050505050505050611205565b5f6040518060600160405280603b8152602001612a56603b91399d509d505050505050505050505050505b935093915050565b6103e881565b60035f9054906101000a900473ffffffffffffffffffffffffffffffffffffffff1681565b60025f9054906101000a900473ffffffffffffffffffffffffffffffffffffffff1681565b5f5f5f848660a0015111156112725784611278565b8560a001515b92505f838611611288575f611295565b838661129491906125f4565b5b9050612710600360149054906101000a900461ffff1661ffff16826112ba9190612521565b6112c4919061258f565b92508281116112d3575f6112e0565b82816112df91906125f4565b5b91505f8411156113c65760025f9054906101000a900473ffffffffffffffffffffffffffffffffffffffff1673ffffffffffffffffffffffffffffffffffffffff1663a9059cbb86866040518363ffffffff1660e01b8152600401611346929190612627565b6020604051808303815f875af1158015611362573d5f5f3e3d5ffd5b505050506040513d601f19601f82011682018060405250810190611386919061264e565b6113c5576040517f08c379a00000000000000000000000000000000000000000000000000000000081526004016113bc906126e9565b60405180910390fd5b5b5f8311156114ae5760025f9054906101000a900473ffffffffffffffffffffffffffffffffffffffff1673ffffffffffffffffffffffffffffffffffffffff1663a9059cbb8860400151856040518363ffffffff1660e01b815260040161142e929190612627565b6020604051808303815f875af115801561144a573d5f5f3e3d5ffd5b505050506040513d601f19601f8201168201806040525081019061146e919061264e565b6114ad576040517f08c379a00000000000000000000000000000000000000000000000000000000081526004016114a490612777565b60405180910390fd5b5b5f8211156115965760025f9054906101000a900473ffffffffffffffffffffffffffffffffffffffff1673ffffffffffffffffffffffffffffffffffffffff1663a9059cbb8860200151846040518363ffffffff1660e01b8152600401611516929190612627565b6020604051808303815f875af1158015611532573d5f5f3e3d5ffd5b505050506040513d601f19601f82011682018060405250810190611556919061264e565b611595576040517f08c379a000000000000000000000000000000000000000000000000000000000815260040161158c90612805565b60405180910390fd5b5b5093509350939050565b5f5f5f60605f73ffffffffffffffffffffffffffffffffffffffff1660045f9054906101000a900473ffffffffffffffffffffffffffffffffffffffff1673ffffffffffffffffffffffffffffffffffffffff161461171a5760045f9054906101000a900473ffffffffffffffffffffffffffffffffffffffff1673ffffffffffffffffffffffffffffffffffffffff166341976e0988606001516040518263ffffffff1660e01b81526004016116579190611a0e565b6040805180830381865afa92505050801561169057506040513d601f19601f8201168201806040525081019061168d9190612823565b60015b6116f85761169c61286d565b806308c379a0036116cd57506116b061288c565b806116bb57506116cf565b5f5f5f83945094509450945050611736565b505b5f5f5f6040518060600160405280602b8152602001612970602b91399350935093509350611736565b6001828260405180602001604052805f81525095509550955095505050611736565b6001868660405180602001604052805f81525093509350935093505b93509350935093565b5f612710600360169054906101000a900461ffff1661ffff16836117639190612521565b61176d919061258f565b82611778919061291b565b9050919050565b5f73ffffffffffffffffffffffffffffffffffffffff82169050919050565b5f819050919050565b5f6117c16117bc6117b78461177f565b61179e565b61177f565b9050919050565b5f6117d2826117a7565b9050919050565b5f6117e3826117c8565b9050919050565b6117f3816117d9565b82525050565b5f60208201905061180c5f8301846117ea565b92915050565b5f604051905090565b5f5ffd5b5f819050919050565b6118318161181f565b811461183b575f5ffd5b50565b5f8135905061184c81611828565b92915050565b5f61185c8261177f565b9050919050565b61186c81611852565b8114611876575f5ffd5b50565b5f8135905061188781611863565b92915050565b5f5f5f5f608085870312156118a5576118a461181b565b5b5f6118b28782880161183e565b94505060206118c38782880161183e565b93505060406118d48782880161183e565b92505060606118e587828801611879565b91505092959194509250565b5f602082840312156119065761190561181b565b5b5f61191384828501611879565b91505092915050565b5f602082840312156119315761193061181b565b5b5f61193e8482850161183e565b91505092915050565b5f8115159050919050565b61195b81611947565b82525050565b5f81519050919050565b5f82825260208201905092915050565b8281835e5f83830152505050565b5f601f19601f8301169050919050565b5f6119a382611961565b6119ad818561196b565b93506119bd81856020860161197b565b6119c681611989565b840191505092915050565b5f6040820190506119e45f830185611952565b81810360208301526119f68184611999565b90509392505050565b611a0881611852565b82525050565b5f602082019050611a215f8301846119ff565b92915050565b5f61ffff82169050919050565b611a3d81611a27565b82525050565b5f602082019050611a565f830184611a34565b92915050565b611a6581611a27565b8114611a6f575f5ffd5b50565b5f81359050611a8081611a5c565b92915050565b5f60208284031215611a9b57611a9a61181b565b5b5f611aa884828501611a72565b91505092915050565b5f611abb826117c8565b9050919050565b611acb81611ab1565b82525050565b5f602082019050611ae45f830184611ac2565b92915050565b5f5f5f60608486031215611b0157611b0061181b565b5b5f611b0e8682870161183e565b9350506020611b1f8682870161183e565b9250506040611b308682870161183e565b9150509250925092565b5f611b44826117c8565b9050919050565b611b5481611b3a565b82525050565b5f602082019050611b6d5f830184611b4b565b92915050565b7f496e76616c69642066756e64696e6720706172746e65720000000000000000005f82015250565b5f611ba760178361196b565b9150611bb282611b73565b602082019050919050565b5f6020820190508181035f830152611bd481611b9b565b9050919050565b611be48161181f565b82525050565b5f602082019050611bfd5f830184611bdb565b92915050565b5f5ffd5b7f4e487b71000000000000000000000000000000000000000000000000000000005f52604160045260245ffd5b611c3d82611989565b810181811067ffffffffffffffff82111715611c5c57611c5b611c07565b5b80604052505050565b5f611c6e611812565b9050611c7a8282611c34565b919050565b5f81519050611c8d81611828565b92915050565b5f81519050611ca181611863565b92915050565b5f60ff82169050919050565b611cbc81611ca7565b8114611cc6575f5ffd5b50565b5f81519050611cd781611cb3565b92915050565b5f6101608284031215611cf357611cf2611c03565b5b611cfe610160611c65565b90505f611d0d84828501611c7f565b5f830152506020611d2084828501611c93565b6020830152506040611d3484828501611c93565b6040830152506060611d4884828501611c93565b6060830152506080611d5c84828501611c7f565b60808301525060a0611d7084828501611c7f565b60a08301525060c0611d8484828501611c7f565b60c08301525060e0611d9884828501611cc9565b60e083015250610100611dad84828501611c7f565b61010083015250610120611dc384828501611c7f565b61012083015250610140611dd984828501611c7f565b6101408301525092915050565b5f6101608284031215611dfc57611dfb61181b565b5b5f611e0984828501611cdd565b91505092915050565b7f4c6f616e206e6f7420666f756e640000000000000000000000000000000000005f82015250565b5f611e46600e8361196b565b9150611e5182611e12565b602082019050919050565b5f6020820190508181035f830152611e7381611e3a565b9050919050565b7f4c69717569646174696f6e456e67696e653a206f6e6c79206f726967696e61745f8201527f6f722063616e20696e697469617465206c69717569646174696f6e0000000000602082015250565b5f611ed4603b8361196b565b9150611edf82611e7a565b604082019050919050565b5f6020820190508181035f830152611f0181611ec8565b9050919050565b5f6020820190508181035f830152611f208184611999565b905092915050565b5f604082019050611f3b5f830185611bdb565b611f4860208301846119ff565b9392505050565b5f5f5f60608486031215611f6657611f6561181b565b5b5f611f7386828701611c93565b9350506020611f8486828701611c7f565b9250506040611f9586828701611c93565b9150509250925092565b7f4c69717569646174696f6e456e67696e653a20636f6c6c61746572616c20746f5f8201527f6b656e206d757374206d617463682070726f636565647320746f6b656e000000602082015250565b5f611ff9603d8361196b565b915061200482611f9f565b604082019050919050565b5f6020820190508181035f83015261202681611fed565b9050919050565b5f6080820190506120405f830187611bdb565b61204d6020830186611bdb565b61205a6040830185611bdb565b6120676060830184611bdb565b95945050505050565b7f4c69717569646174696f6e456e67696e653a2063616c6c6572206973206e6f745f8201527f2061646d696e0000000000000000000000000000000000000000000000000000602082015250565b5f6120ca60268361196b565b91506120d582612070565b604082019050919050565b5f6020820190508181035f8301526120f7816120be565b9050919050565b7f496e76616c696420746f6b656e206164647265737300000000000000000000005f82015250565b5f61213260158361196b565b915061213d826120fe565b602082019050919050565b5f6020820190508181035f83015261215f81612126565b9050919050565b7f496e76616c69642066656520626173697320706f696e747300000000000000005f82015250565b5f61219a60188361196b565b91506121a582612166565b602082019050919050565b5f6020820190508181035f8301526121c78161218e565b9050919050565b7f4c69717569646174696f6e456e67696e653a206f7261636c65206d75737420625f8201527f6520636f6e747261637400000000000000000000000000000000000000000000602082015250565b5f612228602a8361196b565b9150612233826121ce565b604082019050919050565b5f6020820190508181035f8301526122558161221c565b9050919050565b7f4e487b71000000000000000000000000000000000000000000000000000000005f52602160045260245ffd5b61229281611947565b811461229c575f5ffd5b50565b5f815190506122ad81612289565b92915050565b5f60c082840312156122c8576122c7611c03565b5b6122d260c0611c65565b90505f6122e184828501611c7f565b5f8301525060206122f484828501611c93565b602083015250604061230884828501611c7f565b604083015250606061231c84828501611c93565b60608301525060806123308482850161229f565b60808301525060a06123448482850161229f565b60a08301525092915050565b5f60c082840312156123655761236461181b565b5b5f612372848285016122b3565b91505092915050565b7f4e487b71000000000000000000000000000000000000000000000000000000005f52601160045260245ffd5b5f8160011c9050919050565b5f5f8291508390505b60018511156123fd578086048111156123d9576123d861237b565b5b60018516156123e85780820291505b80810290506123f6856123a8565b94506123bd565b94509492505050565b5f8261241557600190506124d0565b81612422575f90506124d0565b8160018114612438576002811461244257612471565b60019150506124d0565b60ff8411156124545761245361237b565b5b8360020a91508482111561246b5761246a61237b565b5b506124d0565b5060208310610133831016604e8410600b84101617156124a65782820a9050838111156124a1576124a061237b565b5b6124d0565b6124b384848460016123b4565b925090508184048111156124ca576124c961237b565b5b81810290505b9392505050565b5f6124e18261181f565b91506124ec8361181f565b92506125197fffffffffffffffffffffffffffffffffffffffffffffffffffffffffffffffff8484612406565b905092915050565b5f61252b8261181f565b91506125368361181f565b92508282026125448161181f565b9150828204841483151761255b5761255a61237b565b5b5092915050565b7f4e487b71000000000000000000000000000000000000000000000000000000005f52601260045260245ffd5b5f6125998261181f565b91506125a48361181f565b9250826125b4576125b3612562565b5b828204905092915050565b5f6125c982611a27565b91506125d483611a27565b9250828201905061ffff8111156125ee576125ed61237b565b5b92915050565b5f6125fe8261181f565b91506126098361181f565b92508282039050818111156126215761262061237b565b5b92915050565b5f60408201905061263a5f8301856119ff565b6126476020830184611bdb565b9392505050565b5f602082840312156126635761266261181b565b5b5f6126708482850161229f565b91505092915050565b7f4c69717569646174696f6e456e67696e653a2066756e64696e67207472616e735f8201527f666572206661696c656400000000000000000000000000000000000000000000602082015250565b5f6126d3602a8361196b565b91506126de82612679565b604082019050919050565b5f6020820190508181035f830152612700816126c7565b9050919050565b7f4c69717569646174696f6e456e67696e653a206f726967696e61746f722066655f8201527f65207472616e73666572206661696c6564000000000000000000000000000000602082015250565b5f61276160318361196b565b915061276c82612707565b604082019050919050565b5f6020820190508181035f83015261278e81612755565b9050919050565b7f4c69717569646174696f6e456e67696e653a20626f72726f7765722072656d615f8201527f696e646572207472616e73666572206661696c65640000000000000000000000602082015250565b5f6127ef60358361196b565b91506127fa82612795565b604082019050919050565b5f6020820190508181035f83015261281c816127e3565b9050919050565b5f5f604083850312156128395761283861181b565b5b5f61284685828601611c7f565b925050602061285785828601611c7f565b9150509250929050565b5f8160e01c9050919050565b5f60033d11156128895760045f5f3e6128865f51612861565b90505b90565b5f60443d106129185761289d611812565b60043d036004823e80513d602482011167ffffffffffffffff821117156128c5575050612918565b808201805167ffffffffffffffff8111156128e35750505050612918565b80602083010160043d038501811115612900575050505050612918565b61290f82602001850186611c34565b82955050505050505b90565b5f6129258261181f565b91506129308361181f565b92508282019050808211156129485761294761237b565b5b9291505056fe4c69717569646174696f6e456e67696e653a206c6f616e206e6f7420666f756e644c69717569646174696f6e456e67696e653a207072696365206f7261636c652072656164206661696c65644c69717569646174696f6e456e67696e653a20696e76616c69642070726f636565647320616d6f756e744c69717569646174696f6e456e67696e653a206e6f20636f6c6c61746572616c20746f206c69717569646174654c69717569646174696f6e456e67696e653a20637269746963616c20636f766572616765207468726573686f6c6420726561636865644c69717569646174696f6e456e67696e653a207072696365206f7261636c65206e6f7420636f6e666967757265644c69717569646174696f6e456e67696e653a206e6f6e2d637269746963616c20636f7665726167652c206d617267696e2063616c6c2066697273744c69717569646174696f6e456e67696e653a20636f6c6c61746572616c20616c7265616479206c6971756964617465644c69717569646174696f6e456e67696e653a20696e76616c696420707269636520646563696d616c734c69717569646174696f6e456e67696e653a206c6f616e20737461747573206e6f74206c6971756964617461626c654c69717569646174696f6e456e67696e653a20696e76616c696420636f6c6c61746572616c2070726963654c69717569646174696f6e456e67696e653a20636f6c6c61746572616c20746f6b656e206d757374206d617463682070726f636565647320746f6b656e4c69717569646174696f6e456e67696e653a206c6f616e2064656661756c7465644c69717569646174696f6e456e67696e653a207661756c74206e6f7420666f756e64a26469706673582212200f93b5c886cff0bf271306bf14d907af368175126bdf4a83ccde486ae35f084a64736f6c63430008230033","linkReferences":{}},"methodIdentifiers":{"CRITICAL_COVERAGE_BUFFER_BPS()":"eaab400f","admin()":"f851a440","adminExpenseBps()":"3d4c7f3e","canLiquidate(uint256,uint256,uint256)":"d0d70b7a","canLiquidateFromOracle(uint256)":"244b50c0","collateralVault()":"0bece79c","liquidateLoan(uint256,uint256,uint256,address)":"10718f15","loanRegistry()":"a77957ea","originatorFeeBps()":"269d5c60","priceOracle()":"2630c12f","proceedsToken()":"fe6339e3","setAdminExpenseBps(uint16)":"b9a07d81","setOriginatorFeeBps(uint16)":"2ff5030a","setPriceOracle(address)":"530e784f","setProceedsToken(address)":"217faae4"},"id":2}