{"abi":[{"type":"constructor","inputs":[{"name":"_name","type":"string","internalType":"string"},{"name":"_symbol","type":"string","internalType":"string"},{"name":"_registrar","type":"address","internalType":"address"}],"stateMutability":"nonpayable"},{"type":"function","name":"approve","inputs":[{"name":"","type":"address","internalType":"address"},{"name":"","type":"uint256","internalType":"uint256"}],"outputs":[],"stateMutability":"pure"},{"type":"function","name":"balanceOf","inputs":[{"name":"owner","type":"address","internalType":"address"}],"outputs":[{"name":"","type":"uint256","internalType":"uint256"}],"stateMutability":"view"},{"type":"function","name":"burn","inputs":[{"name":"tokenId","type":"uint256","internalType":"uint256"}],"outputs":[],"stateMutability":"nonpayable"},{"type":"function","name":"exists","inputs":[{"name":"tokenId","type":"uint256","internalType":"uint256"}],"outputs":[{"name":"","type":"bool","internalType":"bool"}],"stateMutability":"view"},{"type":"function","name":"getApproved","inputs":[{"name":"","type":"uint256","internalType":"uint256"}],"outputs":[{"name":"","type":"address","internalType":"address"}],"stateMutability":"pure"},{"type":"function","name":"isApprovedForAll","inputs":[{"name":"","type":"address","internalType":"address"},{"name":"","type":"address","internalType":"address"}],"outputs":[{"name":"","type":"bool","internalType":"bool"}],"stateMutability":"pure"},{"type":"function","name":"mint","inputs":[{"name":"to","type":"address","internalType":"address"},{"name":"tokenId","type":"uint256","internalType":"uint256"},{"name":"tokenURI","type":"string","internalType":"string"}],"outputs":[],"stateMutability":"nonpayable"},{"type":"function","name":"name","inputs":[],"outputs":[{"name":"","type":"string","internalType":"string"}],"stateMutability":"view"},{"type":"function","name":"ownerOf","inputs":[{"name":"tokenId","type":"uint256","internalType":"uint256"}],"outputs":[{"name":"","type":"address","internalType":"address"}],"stateMutability":"view"},{"type":"function","name":"registrar","inputs":[],"outputs":[{"name":"","type":"address","internalType":"address"}],"stateMutability":"view"},{"type":"function","name":"safeTransferFrom","inputs":[{"name":"","type":"address","internalType":"address"},{"name":"","type":"address","internalType":"address"},{"name":"","type":"uint256","internalType":"uint256"}],"outputs":[],"stateMutability":"pure"},{"type":"function","name":"safeTransferFrom","inputs":[{"name":"","type":"address","internalType":"address"},{"name":"","type":"address","internalType":"address"},{"name":"","type":"uint256","internalType":"uint256"},{"name":"","type":"bytes","internalType":"bytes"}],"outputs":[],"stateMutability":"pure"},{"type":"function","name":"setApprovalForAll","inputs":[{"name":"","type":"address","internalType":"address"},{"name":"","type":"bool","internalType":"bool"}],"outputs":[],"stateMutability":"pure"},{"type":"function","name":"symbol","inputs":[],"outputs":[{"name":"","type":"string","internalType":"string"}],"stateMutability":"view"},{"type":"function","name":"tokenURI","inputs":[{"name":"tokenId","type":"uint256","internalType":"uint256"}],"outputs":[{"name":"","type":"string","internalType":"string"}],"stateMutability":"view"},{"type":"function","name":"transferFrom","inputs":[{"name":"","type":"address","internalType":"address"},{"name":"","type":"address","internalType":"address"},{"name":"","type":"uint256","internalType":"uint256"}],"outputs":[],"stateMutability":"pure"},{"type":"event","name":"Approval","inputs":[{"name":"owner","type":"address","indexed":true,"internalType":"address"},{"name":"approved","type":"address","indexed":true,"internalType":"address"},{"name":"tokenId","type":"uint256","indexed":true,"internalType":"uint256"}],"anonymous":false},{"type":"event","name":"ApprovalForAll","inputs":[{"name":"owner","type":"address","indexed":true,"internalType":"address"},{"name":"operator","type":"address","indexed":true,"internalType":"address"},{"name":"approved","type":"bool","indexed":false,"internalType":"bool"}],"anonymous":false},{"type":"event","name":"Transfer","inputs":[{"name":"from","type":"address","indexed":true,"internalType":"address"},{"name":"to","type":"address","indexed":true,"internalType":"address"},{"name":"tokenId","type":"uint256","indexed":true,"internalType":"uint256"}],"anonymous":false}],"bytecode":{"object":"0x608060405234801561000f575f5ffd5b50604051612203380380612203833981810160405281019061003191906102ad565b5f73ffffffffffffffffffffffffffffffffffffffff168173ffffffffffffffffffffffffffffffffffffffff160361009f576040517f08c379a0000000000000000000000000000000000000000000000000000000008152600401610096906103b5565b60405180910390fd5b825f90816100ad91906105f4565b5081600190816100bd91906105f4565b508060025f6101000a81548173ffffffffffffffffffffffffffffffffffffffff021916908373ffffffffffffffffffffffffffffffffffffffff1602179055505050506106c3565b5f604051905090565b5f5ffd5b5f5ffd5b5f5ffd5b5f5ffd5b5f601f19601f8301169050919050565b7f4e487b71000000000000000000000000000000000000000000000000000000005f52604160045260245ffd5b6101658261011f565b810181811067ffffffffffffffff821117156101845761018361012f565b5b80604052505050565b5f610196610106565b90506101a2828261015c565b919050565b5f67ffffffffffffffff8211156101c1576101c061012f565b5b6101ca8261011f565b9050602081019050919050565b8281835e5f83830152505050565b5f6101f76101f2846101a7565b61018d565b9050828152602081018484840111156102135761021261011b565b5b61021e8482856101d7565b509392505050565b5f82601f83011261023a57610239610117565b5b815161024a8482602086016101e5565b91505092915050565b5f73ffffffffffffffffffffffffffffffffffffffff82169050919050565b5f61027c82610253565b9050919050565b61028c81610272565b8114610296575f5ffd5b50565b5f815190506102a781610283565b92915050565b5f5f5f606084860312156102c4576102c361010f565b5b5f84015167ffffffffffffffff8111156102e1576102e0610113565b5b6102ed86828701610226565b935050602084015167ffffffffffffffff81111561030e5761030d610113565b5b61031a86828701610226565b925050604061032b86828701610299565b9150509250925092565b5f82825260208201905092915050565b7f4c6f616e526563656970744e46543a20696e76616c69642072656769737472615f8201527f7200000000000000000000000000000000000000000000000000000000000000602082015250565b5f61039f602183610335565b91506103aa82610345565b604082019050919050565b5f6020820190508181035f8301526103cc81610393565b9050919050565b5f81519050919050565b7f4e487b71000000000000000000000000000000000000000000000000000000005f52602260045260245ffd5b5f600282049050600182168061042157607f821691505b602082108103610434576104336103dd565b5b50919050565b5f819050815f5260205f209050919050565b5f6020601f8301049050919050565b5f82821b905092915050565b5f600883026104967fffffffffffffffffffffffffffffffffffffffffffffffffffffffffffffffff8261045b565b6104a0868361045b565b95508019841693508086168417925050509392505050565b5f819050919050565b5f819050919050565b5f6104e46104df6104da846104b8565b6104c1565b6104b8565b9050919050565b5f819050919050565b6104fd836104ca565b610511610509826104eb565b848454610467565b825550505050565b5f5f905090565b610528610519565b6105338184846104f4565b505050565b5f5b828110156105595761054e5f828401610520565b60018101905061053a565b505050565b601f8211156105ac57828211156105ab576105788161043a565b6105818361044c565b61058a8561044c565b6020861015610597575f90505b8083016105a682840382610538565b505050505b5b505050565b5f82821c905092915050565b5f6105cc5f19846008026105b1565b1980831691505092915050565b5f6105e483836105bd565b9150826002028217905092915050565b6105fd826103d3565b67ffffffffffffffff8111156106165761061561012f565b5b610620825461040a565b61062b82828561055e565b5f60209050601f83116001811461065c575f841561064a578287015190505b61065485826105d9565b8655506106bb565b601f19841661066a8661043a565b5f5b828110156106915784890151825560018201915060208501945060208101905061066c565b868310156106ae57848901516106aa601f8916826105bd565b8355505b6001600288020188555050505b505050505050565b611b33806106d05f395ff3fe608060405234801561000f575f5ffd5b50600436106100fe575f3560e01c80636352211e11610095578063b88d4fde11610064578063b88d4fde146102a8578063c87b56dd146102c4578063d3fc9864146102f4578063e985e9c514610310576100fe565b80636352211e1461020e57806370a082311461023e57806395d89b411461026e578063a22cb4651461028c576100fe565b80632b20e397116100d15780632b20e3971461018857806342842e0e146101a657806342966c68146101c25780634f558e79146101de576100fe565b806306fdde0314610102578063081812fc14610120578063095ea7b31461015057806323b872dd1461016c575b5f5ffd5b61010a610340565b6040516101179190610eaa565b60405180910390f35b61013a60048036038101906101359190610f0e565b6103cb565b6040516101479190610f78565b60405180910390f35b61016a60048036038101906101659190610fbb565b610407565b005b61018660048036038101906101819190610ff9565b610442565b005b61019061047d565b60405161019d9190610f78565b60405180910390f35b6101c060048036038101906101bb9190610ff9565b6104a2565b005b6101dc60048036038101906101d79190610f0e565b6104dd565b005b6101f860048036038101906101f39190610f0e565b610710565b6040516102059190611063565b60405180910390f35b61022860048036038101906102239190610f0e565b610778565b6040516102359190610f78565b60405180910390f35b6102586004803603810190610253919061107c565b610824565b60405161026591906110b6565b60405180910390f35b6102766108d8565b6040516102839190610eaa565b60405180910390f35b6102a660048036038101906102a191906110f9565b610964565b005b6102c260048036038101906102bd9190611263565b61099f565b005b6102de60048036038101906102d99190610f0e565b6109da565b6040516102eb9190610eaa565b60405180910390f35b61030e60048036038101906103099190611340565b610b19565b005b61032a600480360381019061032591906113b1565b610dd9565b6040516103379190611063565b60405180910390f35b5f805461034c9061141c565b80601f01602080910402602001604051908101604052809291908181526020018280546103789061141c565b80156103c35780601f1061039a576101008083540402835291602001916103c3565b820191905f5260205f20905b8154815290600101906020018083116103a657829003601f168201915b505050505081565b5f6040517f08c379a00000000000000000000000000000000000000000000000000000000081526004016103fe906114bc565b60405180910390fd5b6040517f08c379a0000000000000000000000000000000000000000000000000000000008152600401610439906114bc565b60405180910390fd5b6040517f08c379a000000000000000000000000000000000000000000000000000000000815260040161047490611524565b60405180910390fd5b60025f9054906101000a900473ffffffffffffffffffffffffffffffffffffffff1681565b6040517f08c379a00000000000000000000000000000000000000000000000000000000081526004016104d490611524565b60405180910390fd5b60025f9054906101000a900473ffffffffffffffffffffffffffffffffffffffff1673ffffffffffffffffffffffffffffffffffffffff163373ffffffffffffffffffffffffffffffffffffffff161461056c576040517f08c379a0000000000000000000000000000000000000000000000000000000008152600401610563906115b2565b60405180910390fd5b5f60035f8381526020019081526020015f205f9054906101000a900473ffffffffffffffffffffffffffffffffffffffff1690505f73ffffffffffffffffffffffffffffffffffffffff168173ffffffffffffffffffffffffffffffffffffffff160361060e576040517f08c379a000000000000000000000000000000000000000000000000000000000815260040161060590611640565b60405180910390fd5b600160045f8373ffffffffffffffffffffffffffffffffffffffff1673ffffffffffffffffffffffffffffffffffffffff1681526020019081526020015f205f82825461065b919061168b565b9250508190555060035f8381526020019081526020015f205f6101000a81549073ffffffffffffffffffffffffffffffffffffffff021916905560075f8381526020019081526020015f205f6106b19190610de3565b815f73ffffffffffffffffffffffffffffffffffffffff168273ffffffffffffffffffffffffffffffffffffffff167fddf252ad1be2c89b69c2b068fc378daa952ba7f163c4a11628f55a4df523b3ef60405160405180910390a45050565b5f5f73ffffffffffffffffffffffffffffffffffffffff1660035f8481526020019081526020015f205f9054906101000a900473ffffffffffffffffffffffffffffffffffffffff1673ffffffffffffffffffffffffffffffffffffffff1614159050919050565b5f5f60035f8481526020019081526020015f205f9054906101000a900473ffffffffffffffffffffffffffffffffffffffff1690505f73ffffffffffffffffffffffffffffffffffffffff168173ffffffffffffffffffffffffffffffffffffffff160361081b576040517f08c379a000000000000000000000000000000000000000000000000000000000815260040161081290611640565b60405180910390fd5b80915050919050565b5f5f73ffffffffffffffffffffffffffffffffffffffff168273ffffffffffffffffffffffffffffffffffffffff1603610893576040517f08c379a000000000000000000000000000000000000000000000000000000000815260040161088a90611708565b60405180910390fd5b60045f8373ffffffffffffffffffffffffffffffffffffffff1673ffffffffffffffffffffffffffffffffffffffff1681526020019081526020015f20549050919050565b600180546108e59061141c565b80601f01602080910402602001604051908101604052809291908181526020018280546109119061141c565b801561095c5780601f106109335761010080835404028352916020019161095c565b820191905f5260205f20905b81548152906001019060200180831161093f57829003601f168201915b505050505081565b6040517f08c379a0000000000000000000000000000000000000000000000000000000008152600401610996906114bc565b60405180910390fd5b6040517f08c379a00000000000000000000000000000000000000000000000000000000081526004016109d190611524565b60405180910390fd5b60605f73ffffffffffffffffffffffffffffffffffffffff1660035f8481526020019081526020015f205f9054906101000a900473ffffffffffffffffffffffffffffffffffffffff1673ffffffffffffffffffffffffffffffffffffffff1603610a7a576040517f08c379a0000000000000000000000000000000000000000000000000000000008152600401610a7190611640565b60405180910390fd5b60075f8381526020019081526020015f208054610a969061141c565b80601f0160208091040260200160405190810160405280929190818152602001828054610ac29061141c565b8015610b0d5780601f10610ae457610100808354040283529160200191610b0d565b820191905f5260205f20905b815481529060010190602001808311610af057829003601f168201915b50505050509050919050565b60025f9054906101000a900473ffffffffffffffffffffffffffffffffffffffff1673ffffffffffffffffffffffffffffffffffffffff163373ffffffffffffffffffffffffffffffffffffffff1614610ba8576040517f08c379a0000000000000000000000000000000000000000000000000000000008152600401610b9f906115b2565b60405180910390fd5b5f73ffffffffffffffffffffffffffffffffffffffff168473ffffffffffffffffffffffffffffffffffffffff1603610c16576040517f08c379a0000000000000000000000000000000000000000000000000000000008152600401610c0d90611796565b60405180910390fd5b5f73ffffffffffffffffffffffffffffffffffffffff1660035f8581526020019081526020015f205f9054906101000a900473ffffffffffffffffffffffffffffffffffffffff1673ffffffffffffffffffffffffffffffffffffffff1614610cb4576040517f08c379a0000000000000000000000000000000000000000000000000000000008152600401610cab90611824565b60405180910390fd5b8360035f8581526020019081526020015f205f6101000a81548173ffffffffffffffffffffffffffffffffffffffff021916908373ffffffffffffffffffffffffffffffffffffffff160217905550600160045f8673ffffffffffffffffffffffffffffffffffffffff1673ffffffffffffffffffffffffffffffffffffffff1681526020019081526020015f205f828254610d509190611842565b92505081905550818160075f8681526020019081526020015f209182610d77929190611a30565b50828473ffffffffffffffffffffffffffffffffffffffff165f73ffffffffffffffffffffffffffffffffffffffff167fddf252ad1be2c89b69c2b068fc378daa952ba7f163c4a11628f55a4df523b3ef60405160405180910390a450505050565b5f5f905092915050565b508054610def9061141c565b5f825580601f10610e005750610e1a565b601f0160209004905f5260205f2090610e199190610e1d565b5b50565b5f5b80821115610e35578281015f9055600101610e1f565b505090565b5f81519050919050565b5f82825260208201905092915050565b8281835e5f83830152505050565b5f601f19601f8301169050919050565b5f610e7c82610e3a565b610e868185610e44565b9350610e96818560208601610e54565b610e9f81610e62565b840191505092915050565b5f6020820190508181035f830152610ec28184610e72565b905092915050565b5f604051905090565b5f5ffd5b5f5ffd5b5f819050919050565b610eed81610edb565b8114610ef7575f5ffd5b50565b5f81359050610f0881610ee4565b92915050565b5f60208284031215610f2357610f22610ed3565b5b5f610f3084828501610efa565b91505092915050565b5f73ffffffffffffffffffffffffffffffffffffffff82169050919050565b5f610f6282610f39565b9050919050565b610f7281610f58565b82525050565b5f602082019050610f8b5f830184610f69565b92915050565b610f9a81610f58565b8114610fa4575f5ffd5b50565b5f81359050610fb581610f91565b92915050565b5f5f60408385031215610fd157610fd0610ed3565b5b5f610fde85828601610fa7565b9250506020610fef85828601610efa565b9150509250929050565b5f5f5f606084860312156110105761100f610ed3565b5b5f61101d86828701610fa7565b935050602061102e86828701610fa7565b925050604061103f86828701610efa565b9150509250925092565b5f8115159050919050565b61105d81611049565b82525050565b5f6020820190506110765f830184611054565b92915050565b5f6020828403121561109157611090610ed3565b5b5f61109e84828501610fa7565b91505092915050565b6110b081610edb565b82525050565b5f6020820190506110c95f8301846110a7565b92915050565b6110d881611049565b81146110e2575f5ffd5b50565b5f813590506110f3816110cf565b92915050565b5f5f6040838503121561110f5761110e610ed3565b5b5f61111c85828601610fa7565b925050602061112d858286016110e5565b9150509250929050565b5f5ffd5b5f5ffd5b7f4e487b71000000000000000000000000000000000000000000000000000000005f52604160045260245ffd5b61117582610e62565b810181811067ffffffffffffffff821117156111945761119361113f565b5b80604052505050565b5f6111a6610eca565b90506111b2828261116c565b919050565b5f67ffffffffffffffff8211156111d1576111d061113f565b5b6111da82610e62565b9050602081019050919050565b828183375f83830152505050565b5f611207611202846111b7565b61119d565b9050828152602081018484840111156112235761122261113b565b5b61122e8482856111e7565b509392505050565b5f82601f83011261124a57611249611137565b5b813561125a8482602086016111f5565b91505092915050565b5f5f5f5f6080858703121561127b5761127a610ed3565b5b5f61128887828801610fa7565b945050602061129987828801610fa7565b93505060406112aa87828801610efa565b925050606085013567ffffffffffffffff8111156112cb576112ca610ed7565b5b6112d787828801611236565b91505092959194509250565b5f5ffd5b5f5ffd5b5f5f83601f840112611300576112ff611137565b5b8235905067ffffffffffffffff81111561131d5761131c6112e3565b5b602083019150836001820283011115611339576113386112e7565b5b9250929050565b5f5f5f5f6060858703121561135857611357610ed3565b5b5f61136587828801610fa7565b945050602061137687828801610efa565b935050604085013567ffffffffffffffff81111561139757611396610ed7565b5b6113a3878288016112eb565b925092505092959194509250565b5f5f604083850312156113c7576113c6610ed3565b5b5f6113d485828601610fa7565b92505060206113e585828601610fa7565b9150509250929050565b7f4e487b71000000000000000000000000000000000000000000000000000000005f52602260045260245ffd5b5f600282049050600182168061143357607f821691505b602082108103611446576114456113ef565b5b50919050565b7f4c6f616e526563656970744e46543a20617070726f76616c732064697361626c5f8201527f6564000000000000000000000000000000000000000000000000000000000000602082015250565b5f6114a6602283610e44565b91506114b18261144c565b604082019050919050565b5f6020820190508181035f8301526114d38161149a565b9050919050565b7f4c6f616e526563656970744e46543a20736f756c626f756e6420746f6b656e005f82015250565b5f61150e601f83610e44565b9150611519826114da565b602082019050919050565b5f6020820190508181035f83015261153b81611502565b9050919050565b7f4c6f616e526563656970744e46543a2063616c6c6572206973206e6f742072655f8201527f6769737472617200000000000000000000000000000000000000000000000000602082015250565b5f61159c602783610e44565b91506115a782611542565b604082019050919050565b5f6020820190508181035f8301526115c981611590565b9050919050565b7f4c6f616e526563656970744e46543a20746f6b656e20646f6573206e6f7420655f8201527f7869737400000000000000000000000000000000000000000000000000000000602082015250565b5f61162a602483610e44565b9150611635826115d0565b604082019050919050565b5f6020820190508181035f8301526116578161161e565b9050919050565b7f4e487b71000000000000000000000000000000000000000000000000000000005f52601160045260245ffd5b5f61169582610edb565b91506116a083610edb565b92508282039050818111156116b8576116b761165e565b5b92915050565b7f4c6f616e526563656970744e46543a207a65726f2061646472657373000000005f82015250565b5f6116f2601c83610e44565b91506116fd826116be565b602082019050919050565b5f6020820190508181035f83015261171f816116e6565b9050919050565b7f4c6f616e526563656970744e46543a206d696e7420746f207a65726f206164645f8201527f7265737300000000000000000000000000000000000000000000000000000000602082015250565b5f611780602483610e44565b915061178b82611726565b604082019050919050565b5f6020820190508181035f8301526117ad81611774565b9050919050565b7f4c6f616e526563656970744e46543a20746f6b656e20616c7265616479206d695f8201527f6e74656400000000000000000000000000000000000000000000000000000000602082015250565b5f61180e602483610e44565b9150611819826117b4565b604082019050919050565b5f6020820190508181035f83015261183b81611802565b9050919050565b5f61184c82610edb565b915061185783610edb565b925082820190508082111561186f5761186e61165e565b5b92915050565b5f82905092915050565b5f819050815f5260205f209050919050565b5f6020601f8301049050919050565b5f82821b905092915050565b5f600883026118db7fffffffffffffffffffffffffffffffffffffffffffffffffffffffffffffffff826118a0565b6118e586836118a0565b95508019841693508086168417925050509392505050565b5f819050919050565b5f61192061191b61191684610edb565b6118fd565b610edb565b9050919050565b5f819050919050565b61193983611906565b61194d61194582611927565b8484546118ac565b825550505050565b5f5f905090565b611964611955565b61196f818484611930565b505050565b5f5b828110156119955761198a5f82840161195c565b600181019050611976565b505050565b601f8211156119e857828211156119e7576119b48161187f565b6119bd83611891565b6119c685611891565b60208610156119d3575f90505b8083016119e282840382611974565b505050505b5b505050565b5f82821c905092915050565b5f611a085f19846008026119ed565b1980831691505092915050565b5f611a2083836119f9565b9150826002028217905092915050565b611a3a8383611875565b67ffffffffffffffff811115611a5357611a5261113f565b5b611a5d825461141c565b611a6882828561199a565b5f601f831160018114611a95575f8415611a83578287013590505b611a8d8582611a15565b865550611af4565b601f198416611aa38661187f565b5f5b82811015611aca57848901358255600182019150602085019450602081019050611aa5565b86831015611ae75784890135611ae3601f8916826119f9565b8355505b6001600288020188555050505b5050505050505056fea26469706673582212203049b6b954a665c453f319efec99304f66a7e29fad6524ab5df92ecaa33d2ad964736f6c63430008210033","linkReferences":{}},"methodIdentifiers":{"approve(address,uint256)":"095ea7b3","balanceOf(address)":"70a08231","burn(uint256)":"42966c68","exists(uint256)":"4f558e79","getApproved(uint256)":"081812fc","isApprovedForAll(address,address)":"e985e9c5","mint(address,uint256,string)":"d3fc9864","name()":"06fdde03","ownerOf(uint256)":"6352211e","registrar()":"2b20e397","safeTransferFrom(address,address,uint256)":"42842e0e","safeTransferFrom(address,address,uint256,bytes)":"b88d4fde","setApprovalForAll(address,bool)":"a22cb465","symbol()":"95d89b41","tokenURI(uint256)":"c87b56dd","transferFrom(address,address,uint256)":"23b872dd"},"id":0}