{"abi":[{"type":"constructor","inputs":[{"name":"loanRegistryAddress","type":"address","internalType":"address"},{"name":"attestorAddress","type":"address","internalType":"address"}],"stateMutability":"nonpayable"},{"type":"function","name":"admin","inputs":[],"outputs":[{"name":"","type":"address","internalType":"address"}],"stateMutability":"view"},{"type":"function","name":"attestor","inputs":[],"outputs":[{"name":"","type":"address","internalType":"address"}],"stateMutability":"view"},{"type":"function","name":"getPaymentAttestationCount","inputs":[{"name":"loanId","type":"uint256","internalType":"uint256"}],"outputs":[{"name":"","type":"uint256","internalType":"uint256"}],"stateMutability":"view"},{"type":"function","name":"getPaymentHashAt","inputs":[{"name":"loanId","type":"uint256","internalType":"uint256"},{"name":"index","type":"uint256","internalType":"uint256"}],"outputs":[{"name":"","type":"bytes32","internalType":"bytes32"}],"stateMutability":"view"},{"type":"function","name":"loanRegistry","inputs":[],"outputs":[{"name":"","type":"address","internalType":"contract LoanRegistry"}],"stateMutability":"view"},{"type":"function","name":"paymentRecorded","inputs":[{"name":"","type":"uint256","internalType":"uint256"},{"name":"","type":"bytes32","internalType":"bytes32"}],"outputs":[{"name":"","type":"bool","internalType":"bool"}],"stateMutability":"view"},{"type":"function","name":"registerPayment","inputs":[{"name":"loanId","type":"uint256","internalType":"uint256"},{"name":"paymentHash","type":"bytes32","internalType":"bytes32"},{"name":"signature","type":"bytes","internalType":"bytes"}],"outputs":[],"stateMutability":"nonpayable"},{"type":"function","name":"setAttestor","inputs":[{"name":"newAttestor","type":"address","internalType":"address"}],"outputs":[],"stateMutability":"nonpayable"},{"type":"event","name":"AttestorUpdated","inputs":[{"name":"oldAttestor","type":"address","indexed":true,"internalType":"address"},{"name":"newAttestor","type":"address","indexed":true,"internalType":"address"}],"anonymous":false},{"type":"event","name":"InstallmentPaid","inputs":[{"name":"loanId","type":"uint256","indexed":true,"internalType":"uint256"},{"name":"paymentHash","type":"bytes32","indexed":true,"internalType":"bytes32"},{"name":"attestor","type":"address","indexed":true,"internalType":"address"}],"anonymous":false}],"bytecode":{"object":"0x608060405234801561000f575f5ffd5b50604051611ab7380380611ab783398181016040528101906100319190610231565b5f73ffffffffffffffffffffffffffffffffffffffff168273ffffffffffffffffffffffffffffffffffffffff160361009f576040517f08c379a0000000000000000000000000000000000000000000000000000000008152600401610096906102ef565b60405180910390fd5b5f73ffffffffffffffffffffffffffffffffffffffff168173ffffffffffffffffffffffffffffffffffffffff160361010d576040517f08c379a00000000000000000000000000000000000000000000000000000000081526004016101049061037d565b60405180910390fd5b815f5f6101000a81548173ffffffffffffffffffffffffffffffffffffffff021916908373ffffffffffffffffffffffffffffffffffffffff1602179055508060015f6101000a81548173ffffffffffffffffffffffffffffffffffffffff021916908373ffffffffffffffffffffffffffffffffffffffff1602179055503360025f6101000a81548173ffffffffffffffffffffffffffffffffffffffff021916908373ffffffffffffffffffffffffffffffffffffffff160217905550505061039b565b5f5ffd5b5f73ffffffffffffffffffffffffffffffffffffffff82169050919050565b5f610200826101d7565b9050919050565b610210816101f6565b811461021a575f5ffd5b50565b5f8151905061022b81610207565b92915050565b5f5f60408385031215610247576102466101d3565b5b5f6102548582860161021d565b92505060206102658582860161021d565b9150509250929050565b5f82825260208201905092915050565b7f5061796d656e744174746573746174696f6e3a20696e76616c696420726567695f8201527f7374727900000000000000000000000000000000000000000000000000000000602082015250565b5f6102d960248361026f565b91506102e48261027f565b604082019050919050565b5f6020820190508181035f830152610306816102cd565b9050919050565b7f5061796d656e744174746573746174696f6e3a20696e76616c696420617474655f8201527f73746f7200000000000000000000000000000000000000000000000000000000602082015250565b5f61036760248361026f565b91506103728261030d565b604082019050919050565b5f6020820190508181035f8301526103948161035b565b9050919050565b61170f806103a85f395ff3fe608060405234801561000f575f5ffd5b5060043610610086575f3560e01c8063cada25c211610059578063cada25c214610124578063d7354dac14610142578063f5770b1f14610172578063f851a4401461018e57610086565b806317d5aaf31461008a578063422a06e5146100a6578063499778bc146100d6578063a77957ea14610106575b5f5ffd5b6100a4600480360381019061009f9190610ab7565b6101ac565b005b6100c060048036038101906100bb9190610b28565b610571565b6040516100cd9190610b80565b60405180910390f35b6100f060048036038101906100eb9190610b99565b61059b565b6040516100fd9190610bd3565b60405180910390f35b61010e6105b8565b60405161011b9190610c66565b60405180910390f35b61012c6105dc565b6040516101399190610c9f565b60405180910390f35b61015c60048036038101906101579190610cb8565b610601565b6040516101699190610d05565b60405180910390f35b61018c60048036038101906101879190610d48565b610636565b005b6101966107f1565b6040516101a39190610c9f565b60405180910390f35b5f5f1b83036101f0576040517f08c379a00000000000000000000000000000000000000000000000000000000081526004016101e790610df3565b60405180910390fd5b60045f8581526020019081526020015f205f8481526020019081526020015f205f9054906101000a900460ff161561025d576040517f08c379a000000000000000000000000000000000000000000000000000000000815260040161025490610e81565b60405180910390fd5b5f5f5f9054906101000a900473ffffffffffffffffffffffffffffffffffffffff1673ffffffffffffffffffffffffffffffffffffffff1663504006ca866040518263ffffffff1660e01b81526004016102b79190610bd3565b61016060405180830381865afa1580156102d3573d5f5f3e3d5ffd5b505050506040513d601f19601f820116820180604052508101906102f79190611092565b90505f815f01510361033e576040517f08c379a00000000000000000000000000000000000000000000000000000000081526004016103359061112e565b60405180910390fd5b600260078111156103525761035161114c565b5b60ff168160e0015160ff1614806103855750600360078111156103785761037761114c565b5b60ff168160e0015160ff16145b806103ac57506004600781111561039f5761039e61114c565b5b60ff168160e0015160ff16145b6103eb576040517f08c379a00000000000000000000000000000000000000000000000000000000081526004016103e2906111e9565b60405180910390fd5b5f6103f68686610816565b90505f610404828686610857565b905060015f9054906101000a900473ffffffffffffffffffffffffffffffffffffffff1673ffffffffffffffffffffffffffffffffffffffff168173ffffffffffffffffffffffffffffffffffffffff1614610495576040517f08c379a000000000000000000000000000000000000000000000000000000000815260040161048c90611277565b60405180910390fd5b600160045f8981526020019081526020015f205f8881526020019081526020015f205f6101000a81548160ff02191690831515021790555060035f8881526020019081526020015f2086908060018154018082558091505060019003905f5260205f20015f909190919091505560015f9054906101000a900473ffffffffffffffffffffffffffffffffffffffff1673ffffffffffffffffffffffffffffffffffffffff1686887f31354ac9e3bbe9bbc50cef0d9f69d1b959f9623a094e0234852848c1e590357d60405160405180910390a450505050505050565b6004602052815f5260405f20602052805f5260405f205f915091509054906101000a900460ff1681565b5f60035f8381526020019081526020015f20805490509050919050565b5f5f9054906101000a900473ffffffffffffffffffffffffffffffffffffffff1681565b60015f9054906101000a900473ffffffffffffffffffffffffffffffffffffffff1681565b5f60035f8481526020019081526020015f20828154811061062557610624611295565b5b905f5260205f200154905092915050565b60025f9054906101000a900473ffffffffffffffffffffffffffffffffffffffff1673ffffffffffffffffffffffffffffffffffffffff163373ffffffffffffffffffffffffffffffffffffffff16146106c5576040517f08c379a00000000000000000000000000000000000000000000000000000000081526004016106bc90611332565b60405180910390fd5b5f73ffffffffffffffffffffffffffffffffffffffff168173ffffffffffffffffffffffffffffffffffffffff1603610733576040517f08c379a000000000000000000000000000000000000000000000000000000000815260040161072a90611277565b60405180910390fd5b8073ffffffffffffffffffffffffffffffffffffffff1660015f9054906101000a900473ffffffffffffffffffffffffffffffffffffffff1673ffffffffffffffffffffffffffffffffffffffff167fb2609665f07e4b0d216ff87ff7103a8dc4adbf90f137d3a26b1560da2b8fb7d660405160405180910390a38060015f6101000a81548173ffffffffffffffffffffffffffffffffffffffff021916908373ffffffffffffffffffffffffffffffffffffffff16021790555050565b60025f9054906101000a900473ffffffffffffffffffffffffffffffffffffffff1681565b5f5f30848460405160200161082d939291906113d5565b60405160208183030381529060405280519060200120905061084e816109b0565b91505092915050565b5f6041838390501461089e576040517f08c379a000000000000000000000000000000000000000000000000000000000815260040161089590611481565b60405180910390fd5b5f5f84845f906040926108b3939291906114a7565b8101906108c091906114e1565b915091505f858560408181106108d9576108d8611295565b5b9050013560f81c60f81b60f81c9050601b8160ff16101561090457601b81610901919061154c565b90505b601b8160ff1614806109195750601c8160ff16145b610958576040517f08c379a000000000000000000000000000000000000000000000000000000000815260040161094f906115f0565b60405180910390fd5b6001878285856040515f815260200160405260405161097a949392919061161d565b6020604051602081039080840390855afa15801561099a573d5f5f3e3d5ffd5b5050506020604051035193505050509392505050565b5f816040516020016109c291906116b4565b604051602081830303815290604052805190602001209050919050565b5f604051905090565b5f5ffd5b5f5ffd5b5f819050919050565b610a02816109f0565b8114610a0c575f5ffd5b50565b5f81359050610a1d816109f9565b92915050565b5f819050919050565b610a3581610a23565b8114610a3f575f5ffd5b50565b5f81359050610a5081610a2c565b92915050565b5f5ffd5b5f5ffd5b5f5ffd5b5f5f83601f840112610a7757610a76610a56565b5b8235905067ffffffffffffffff811115610a9457610a93610a5a565b5b602083019150836001820283011115610ab057610aaf610a5e565b5b9250929050565b5f5f5f5f60608587031215610acf57610ace6109e8565b5b5f610adc87828801610a0f565b9450506020610aed87828801610a42565b935050604085013567ffffffffffffffff811115610b0e57610b0d6109ec565b5b610b1a87828801610a62565b925092505092959194509250565b5f5f60408385031215610b3e57610b3d6109e8565b5b5f610b4b85828601610a0f565b9250506020610b5c85828601610a42565b9150509250929050565b5f8115159050919050565b610b7a81610b66565b82525050565b5f602082019050610b935f830184610b71565b92915050565b5f60208284031215610bae57610bad6109e8565b5b5f610bbb84828501610a0f565b91505092915050565b610bcd816109f0565b82525050565b5f602082019050610be65f830184610bc4565b92915050565b5f73ffffffffffffffffffffffffffffffffffffffff82169050919050565b5f819050919050565b5f610c2e610c29610c2484610bec565b610c0b565b610bec565b9050919050565b5f610c3f82610c14565b9050919050565b5f610c5082610c35565b9050919050565b610c6081610c46565b82525050565b5f602082019050610c795f830184610c57565b92915050565b5f610c8982610bec565b9050919050565b610c9981610c7f565b82525050565b5f602082019050610cb25f830184610c90565b92915050565b5f5f60408385031215610cce57610ccd6109e8565b5b5f610cdb85828601610a0f565b9250506020610cec85828601610a0f565b9150509250929050565b610cff81610a23565b82525050565b5f602082019050610d185f830184610cf6565b92915050565b610d2781610c7f565b8114610d31575f5ffd5b50565b5f81359050610d4281610d1e565b92915050565b5f60208284031215610d5d57610d5c6109e8565b5b5f610d6a84828501610d34565b91505092915050565b5f82825260208201905092915050565b7f5061796d656e744174746573746174696f6e3a20696e76616c6964207061796d5f8201527f656e742068617368000000000000000000000000000000000000000000000000602082015250565b5f610ddd602883610d73565b9150610de882610d83565b604082019050919050565b5f6020820190508181035f830152610e0a81610dd1565b9050919050565b7f5061796d656e744174746573746174696f6e3a207061796d656e7420616c72655f8201527f616479207265636f726465640000000000000000000000000000000000000000602082015250565b5f610e6b602c83610d73565b9150610e7682610e11565b604082019050919050565b5f6020820190508181035f830152610e9881610e5f565b9050919050565b5f5ffd5b5f601f19601f8301169050919050565b7f4e487b71000000000000000000000000000000000000000000000000000000005f52604160045260245ffd5b610ee982610ea3565b810181811067ffffffffffffffff82111715610f0857610f07610eb3565b5b80604052505050565b5f610f1a6109df565b9050610f268282610ee0565b919050565b5f81519050610f39816109f9565b92915050565b5f81519050610f4d81610d1e565b92915050565b5f60ff82169050919050565b610f6881610f53565b8114610f72575f5ffd5b50565b5f81519050610f8381610f5f565b92915050565b5f6101608284031215610f9f57610f9e610e9f565b5b610faa610160610f11565b90505f610fb984828501610f2b565b5f830152506020610fcc84828501610f3f565b6020830152506040610fe084828501610f3f565b6040830152506060610ff484828501610f3f565b606083015250608061100884828501610f2b565b60808301525060a061101c84828501610f2b565b60a08301525060c061103084828501610f2b565b60c08301525060e061104484828501610f75565b60e08301525061010061105984828501610f2b565b6101008301525061012061106f84828501610f2b565b6101208301525061014061108584828501610f2b565b6101408301525092915050565b5f61016082840312156110a8576110a76109e8565b5b5f6110b584828501610f89565b91505092915050565b7f5061796d656e744174746573746174696f6e3a206c6f616e206e6f7420666f755f8201527f6e64000000000000000000000000000000000000000000000000000000000000602082015250565b5f611118602283610d73565b9150611123826110be565b604082019050919050565b5f6020820190508181035f8301526111458161110c565b9050919050565b7f4e487b71000000000000000000000000000000000000000000000000000000005f52602160045260245ffd5b7f5061796d656e744174746573746174696f6e3a206c6f616e206e6f74207061795f8201527f61626c6500000000000000000000000000000000000000000000000000000000602082015250565b5f6111d3602483610d73565b91506111de82611179565b604082019050919050565b5f6020820190508181035f830152611200816111c7565b9050919050565b7f5061796d656e744174746573746174696f6e3a20696e76616c696420617474655f8201527f73746f7200000000000000000000000000000000000000000000000000000000602082015250565b5f611261602483610d73565b915061126c82611207565b604082019050919050565b5f6020820190508181035f83015261128e81611255565b9050919050565b7f4e487b71000000000000000000000000000000000000000000000000000000005f52603260045260245ffd5b7f5061796d656e744174746573746174696f6e3a2063616c6c6572206973206e6f5f8201527f742061646d696e00000000000000000000000000000000000000000000000000602082015250565b5f61131c602783610d73565b9150611327826112c2565b604082019050919050565b5f6020820190508181035f83015261134981611310565b9050919050565b5f8160601b9050919050565b5f61136682611350565b9050919050565b5f6113778261135c565b9050919050565b61138f61138a82610c7f565b61136d565b82525050565b5f819050919050565b6113af6113aa826109f0565b611395565b82525050565b5f819050919050565b6113cf6113ca82610a23565b6113b5565b82525050565b5f6113e0828661137e565b6014820191506113f0828561139e565b60208201915061140082846113be565b602082019150819050949350505050565b7f5061796d656e744174746573746174696f6e3a20696e76616c6964207369676e5f8201527f6174757265206c656e6774680000000000000000000000000000000000000000602082015250565b5f61146b602c83610d73565b915061147682611411565b604082019050919050565b5f6020820190508181035f8301526114988161145f565b9050919050565b5f5ffd5b5f5ffd5b5f5f858511156114ba576114b961149f565b5b838611156114cb576114ca6114a3565b5b6001850283019150848603905094509492505050565b5f5f604083850312156114f7576114f66109e8565b5b5f61150485828601610a42565b925050602061151585828601610a42565b9150509250929050565b7f4e487b71000000000000000000000000000000000000000000000000000000005f52601160045260245ffd5b5f61155682610f53565b915061156183610f53565b9250828201905060ff81111561157a5761157961151f565b5b92915050565b7f5061796d656e744174746573746174696f6e3a20696e76616c6964207369676e5f8201527f6174757265207600000000000000000000000000000000000000000000000000602082015250565b5f6115da602783610d73565b91506115e582611580565b604082019050919050565b5f6020820190508181035f830152611607816115ce565b9050919050565b61161781610f53565b82525050565b5f6080820190506116305f830187610cf6565b61163d602083018661160e565b61164a6040830185610cf6565b6116576060830184610cf6565b95945050505050565b5f81905092915050565b7f19457468657265756d205369676e6564204d6573736167653a0a3332000000005f82015250565b5f61169e601c83611660565b91506116a98261166a565b601c82019050919050565b5f6116be82611692565b91506116ca82846113be565b6020820191508190509291505056fea2646970667358221220b7154be348bd6bb5372194ea6c5d7fb8422c93c4808c679340989cedd507975564736f6c63430008210033","linkReferences":{}},"methodIdentifiers":{"admin()":"f851a440","attestor()":"cada25c2","getPaymentAttestationCount(uint256)":"499778bc","getPaymentHashAt(uint256,uint256)":"d7354dac","loanRegistry()":"a77957ea","paymentRecorded(uint256,bytes32)":"422a06e5","registerPayment(uint256,bytes32,bytes)":"17d5aaf3","setAttestor(address)":"f5770b1f"},"id":1}