{"abi":[{"type":"constructor","inputs":[],"stateMutability":"nonpayable"},{"type":"function","name":"borrowerLoans","inputs":[{"name":"","type":"address","internalType":"address"},{"name":"","type":"uint256","internalType":"uint256"}],"outputs":[{"name":"","type":"uint256","internalType":"uint256"}],"stateMutability":"view"},{"type":"function","name":"createLoan","inputs":[{"name":"borrower","type":"address","internalType":"address"},{"name":"originator","type":"address","internalType":"address"},{"name":"collateralToken","type":"address","internalType":"address"},{"name":"collateralAmount","type":"uint256","internalType":"uint256"},{"name":"loanAmount","type":"uint256","internalType":"uint256"},{"name":"ltv","type":"uint256","internalType":"uint256"},{"name":"dueDate","type":"uint256","internalType":"uint256"}],"outputs":[{"name":"loanId","type":"uint256","internalType":"uint256"}],"stateMutability":"nonpayable"},{"type":"function","name":"getBorrowerLoans","inputs":[{"name":"borrower","type":"address","internalType":"address"}],"outputs":[{"name":"","type":"uint256[]","internalType":"uint256[]"}],"stateMutability":"view"},{"type":"function","name":"getLoan","inputs":[{"name":"loanId","type":"uint256","internalType":"uint256"}],"outputs":[{"name":"","type":"tuple","internalType":"struct ILoanRegistry.Loan","components":[{"name":"loanId","type":"uint256","internalType":"uint256"},{"name":"borrower","type":"address","internalType":"address"},{"name":"originator","type":"address","internalType":"address"},{"name":"collateralToken","type":"address","internalType":"address"},{"name":"collateralAmount","type":"uint256","internalType":"uint256"},{"name":"loanAmount","type":"uint256","internalType":"uint256"},{"name":"ltv","type":"uint256","internalType":"uint256"},{"name":"status","type":"uint8","internalType":"uint8"},{"name":"createdAt","type":"uint256","internalType":"uint256"},{"name":"dueDate","type":"uint256","internalType":"uint256"},{"name":"lastUpdatedAt","type":"uint256","internalType":"uint256"}]}],"stateMutability":"view"},{"type":"function","name":"getLoanStatus","inputs":[{"name":"loanId","type":"uint256","internalType":"uint256"}],"outputs":[{"name":"","type":"uint8","internalType":"uint8"}],"stateMutability":"view"},{"type":"function","name":"getOriginatorLoans","inputs":[{"name":"originator","type":"address","internalType":"address"}],"outputs":[{"name":"","type":"uint256[]","internalType":"uint256[]"}],"stateMutability":"view"},{"type":"function","name":"loanCounter","inputs":[],"outputs":[{"name":"","type":"uint256","internalType":"uint256"}],"stateMutability":"view"},{"type":"function","name":"loans","inputs":[{"name":"","type":"uint256","internalType":"uint256"}],"outputs":[{"name":"loanId","type":"uint256","internalType":"uint256"},{"name":"borrower","type":"address","internalType":"address"},{"name":"originator","type":"address","internalType":"address"},{"name":"collateralToken","type":"address","internalType":"address"},{"name":"collateralAmount","type":"uint256","internalType":"uint256"},{"name":"loanAmount","type":"uint256","internalType":"uint256"},{"name":"ltv","type":"uint256","internalType":"uint256"},{"name":"status","type":"uint8","internalType":"uint8"},{"name":"createdAt","type":"uint256","internalType":"uint256"},{"name":"dueDate","type":"uint256","internalType":"uint256"},{"name":"lastUpdatedAt","type":"uint256","internalType":"uint256"}],"stateMutability":"view"},{"type":"function","name":"originatorLoans","inputs":[{"name":"","type":"address","internalType":"address"},{"name":"","type":"uint256","internalType":"uint256"}],"outputs":[{"name":"","type":"uint256","internalType":"uint256"}],"stateMutability":"view"},{"type":"function","name":"setLoanStatus","inputs":[{"name":"loanId","type":"uint256","internalType":"uint256"},{"name":"newStatus","type":"uint8","internalType":"uint8"}],"outputs":[],"stateMutability":"nonpayable"},{"type":"function","name":"updateCollateralAmount","inputs":[{"name":"loanId","type":"uint256","internalType":"uint256"},{"name":"newAmount","type":"uint256","internalType":"uint256"}],"outputs":[],"stateMutability":"nonpayable"},{"type":"event","name":"LoanCollateralUpdated","inputs":[{"name":"loanId","type":"uint256","indexed":true,"internalType":"uint256"},{"name":"newAmount","type":"uint256","indexed":false,"internalType":"uint256"}],"anonymous":false},{"type":"event","name":"LoanCreated","inputs":[{"name":"loanId","type":"uint256","indexed":true,"internalType":"uint256"},{"name":"borrower","type":"address","indexed":true,"internalType":"address"},{"name":"originator","type":"address","indexed":true,"internalType":"address"},{"name":"collateralToken","type":"address","indexed":false,"internalType":"address"},{"name":"collateralAmount","type":"uint256","indexed":false,"internalType":"uint256"},{"name":"loanAmount","type":"uint256","indexed":false,"internalType":"uint256"},{"name":"ltv","type":"uint256","indexed":false,"internalType":"uint256"}],"anonymous":false},{"type":"event","name":"LoanStateChanged","inputs":[{"name":"loanId","type":"uint256","indexed":true,"internalType":"uint256"},{"name":"oldStatus","type":"uint8","indexed":false,"internalType":"uint8"},{"name":"newStatus","type":"uint8","indexed":false,"internalType":"uint8"}],"anonymous":false}],"bytecode":{"object":"0x6080604052348015600e575f5ffd5b5060016003819055506119d2806100245f395ff3fe608060405234801561000f575f5ffd5b50600436106100a7575f3560e01c8063e1ec3c681161006f578063e1ec3c6814610175578063e3ed1902146101af578063e5c9d5a7146101df578063ecdfa39f1461020f578063eee8b7ff1461022b578063f6beee341461025b576100a7565b806319b19afd146100ab5780631c4fd41c146100c757806334d9289e146100f7578063504006ca14610115578063e04640d214610145575b5f5ffd5b6100c560048036038101906100c09190610fa6565b61028b565b005b6100e160048036038101906100dc9190610fe4565b61038d565b6040516100ee919061102a565b60405180910390f35b6100ff610409565b60405161010c9190611052565b60405180910390f35b61012f600480360381019061012a9190610fe4565b61040f565b60405161013c91906111a7565b60405180910390f35b61015f600480360381019061015a91906111eb565b6105ee565b60405161016c9190611052565b60405180910390f35b61018f600480360381019061018a9190610fe4565b610b4d565b6040516101a69b9a99989796959493929190611297565b60405180910390f35b6101c960048036038101906101c49190611340565b610c0b565b6040516101d69190611052565b60405180910390f35b6101f960048036038101906101f49190611340565b610c36565b6040516102069190611052565b60405180910390f35b610229600480360381019061022491906113a8565b610c61565b005b610245600480360381019061024091906113e6565b610db5565b60405161025291906114b9565b60405180910390f35b610275600480360381019061027091906113e6565b610e48565b60405161028291906114b9565b60405180910390f35b5f5f5f8481526020019081526020015f205f0154036102df576040517f08c379a00000000000000000000000000000000000000000000000000000000081526004016102d690611533565b60405180910390fd5b5f8111610321576040517f08c379a00000000000000000000000000000000000000000000000000000000081526004016103189061159b565b60405180910390fd5b805f5f8481526020019081526020015f2060040181905550425f5f8481526020019081526020015f20600a0181905550817f44f21e562596869267abdfe0d47b2a6e92ed39c2762552f7c44ed129d2162c9f826040516103819190611052565b60405180910390a25050565b5f5f5f5f8481526020019081526020015f205f0154036103e2576040517f08c379a00000000000000000000000000000000000000000000000000000000081526004016103d990611533565b60405180910390fd5b5f5f8381526020019081526020015f206007015f9054906101000a900460ff169050919050565b60035481565b610417610edb565b5f5f5f8481526020019081526020015f205f01540361046b576040517f08c379a000000000000000000000000000000000000000000000000000000000815260040161046290611533565b60405180910390fd5b5f5f8381526020019081526020015f20604051806101600160405290815f8201548152602001600182015f9054906101000a900473ffffffffffffffffffffffffffffffffffffffff1673ffffffffffffffffffffffffffffffffffffffff1673ffffffffffffffffffffffffffffffffffffffff168152602001600282015f9054906101000a900473ffffffffffffffffffffffffffffffffffffffff1673ffffffffffffffffffffffffffffffffffffffff1673ffffffffffffffffffffffffffffffffffffffff168152602001600382015f9054906101000a900473ffffffffffffffffffffffffffffffffffffffff1673ffffffffffffffffffffffffffffffffffffffff1673ffffffffffffffffffffffffffffffffffffffff168152602001600482015481526020016005820154815260200160068201548152602001600782015f9054906101000a900460ff1660ff1660ff1681526020016008820154815260200160098201548152602001600a820154815250509050919050565b5f5f73ffffffffffffffffffffffffffffffffffffffff168873ffffffffffffffffffffffffffffffffffffffff160361065d576040517f08c379a000000000000000000000000000000000000000000000000000000000815260040161065490611603565b60405180910390fd5b5f73ffffffffffffffffffffffffffffffffffffffff168773ffffffffffffffffffffffffffffffffffffffff16036106cb576040517f08c379a00000000000000000000000000000000000000000000000000000000081526004016106c29061166b565b60405180910390fd5b5f73ffffffffffffffffffffffffffffffffffffffff168673ffffffffffffffffffffffffffffffffffffffff1603610739576040517f08c379a0000000000000000000000000000000000000000000000000000000008152600401610730906116d3565b60405180910390fd5b5f841161077b576040517f08c379a00000000000000000000000000000000000000000000000000000000081526004016107729061173b565b60405180910390fd5b5f8311801561078c57506127108311155b6107cb576040517f08c379a00000000000000000000000000000000000000000000000000000000081526004016107c2906117a3565b60405180910390fd5b42821161080d576040517f08c379a00000000000000000000000000000000000000000000000000000000081526004016108049061180b565b60405180910390fd5b60035f81548092919061081f90611856565b9190505590506040518061016001604052808281526020018973ffffffffffffffffffffffffffffffffffffffff1681526020018873ffffffffffffffffffffffffffffffffffffffff1681526020018773ffffffffffffffffffffffffffffffffffffffff1681526020018681526020018581526020018481526020015f60078111156108b0576108af61189d565b5b60ff168152602001428152602001838152602001428152505f5f8381526020019081526020015f205f820151815f01556020820151816001015f6101000a81548173ffffffffffffffffffffffffffffffffffffffff021916908373ffffffffffffffffffffffffffffffffffffffff1602179055506040820151816002015f6101000a81548173ffffffffffffffffffffffffffffffffffffffff021916908373ffffffffffffffffffffffffffffffffffffffff1602179055506060820151816003015f6101000a81548173ffffffffffffffffffffffffffffffffffffffff021916908373ffffffffffffffffffffffffffffffffffffffff1602179055506080820151816004015560a0820151816005015560c0820151816006015560e0820151816007015f6101000a81548160ff021916908360ff1602179055506101008201518160080155610120820151816009015561014082015181600a015590505060015f8973ffffffffffffffffffffffffffffffffffffffff1673ffffffffffffffffffffffffffffffffffffffff1681526020019081526020015f2081908060018154018082558091505060019003905f5260205f20015f909190919091505560025f8873ffffffffffffffffffffffffffffffffffffffff1673ffffffffffffffffffffffffffffffffffffffff1681526020019081526020015f2081908060018154018082558091505060019003905f5260205f20015f90919091909150558673ffffffffffffffffffffffffffffffffffffffff168873ffffffffffffffffffffffffffffffffffffffff16827f67fb8b63cbfe13ac20127175c9aa9bc5e28d9086e372b3f61d6d8fc7f52ee56189898989604051610b3a94939291906118ca565b60405180910390a4979650505050505050565b5f602052805f5260405f205f91509050805f015490806001015f9054906101000a900473ffffffffffffffffffffffffffffffffffffffff1690806002015f9054906101000a900473ffffffffffffffffffffffffffffffffffffffff1690806003015f9054906101000a900473ffffffffffffffffffffffffffffffffffffffff1690806004015490806005015490806006015490806007015f9054906101000a900460ff169080600801549080600901549080600a015490508b565b6001602052815f5260405f208181548110610c24575f80fd5b905f5260205f20015f91509150505481565b6002602052815f5260405f208181548110610c4f575f80fd5b905f5260205f20015f91509150505481565b5f5f5f8481526020019081526020015f205f015403610cb5576040517f08c379a0000000000000000000000000000000000000000000000000000000008152600401610cac90611533565b60405180910390fd5b600780811115610cc857610cc761189d565b5b60ff168160ff161115610d10576040517f08c379a0000000000000000000000000000000000000000000000000000000008152600401610d0790611957565b60405180910390fd5b5f5f5f8481526020019081526020015f206007015f9054906101000a900460ff169050815f5f8581526020019081526020015f206007015f6101000a81548160ff021916908360ff160217905550425f5f8581526020019081526020015f20600a0181905550827f361d0bb4f0b625387fc860030dd8ba1ec262c62d85ec5ded355aa4e43e6329648284604051610da8929190611975565b60405180910390a2505050565b606060015f8373ffffffffffffffffffffffffffffffffffffffff1673ffffffffffffffffffffffffffffffffffffffff1681526020019081526020015f20805480602002602001604051908101604052809291908181526020018280548015610e3c57602002820191905f5260205f20905b815481526020019060010190808311610e28575b50505050509050919050565b606060025f8373ffffffffffffffffffffffffffffffffffffffff1673ffffffffffffffffffffffffffffffffffffffff1681526020019081526020015f20805480602002602001604051908101604052809291908181526020018280548015610ecf57602002820191905f5260205f20905b815481526020019060010190808311610ebb575b50505050509050919050565b6040518061016001604052805f81526020015f73ffffffffffffffffffffffffffffffffffffffff1681526020015f73ffffffffffffffffffffffffffffffffffffffff1681526020015f73ffffffffffffffffffffffffffffffffffffffff1681526020015f81526020015f81526020015f81526020015f60ff1681526020015f81526020015f81526020015f81525090565b5f5ffd5b5f819050919050565b610f8581610f73565b8114610f8f575f5ffd5b50565b5f81359050610fa081610f7c565b92915050565b5f5f60408385031215610fbc57610fbb610f6f565b5b5f610fc985828601610f92565b9250506020610fda85828601610f92565b9150509250929050565b5f60208284031215610ff957610ff8610f6f565b5b5f61100684828501610f92565b91505092915050565b5f60ff82169050919050565b6110248161100f565b82525050565b5f60208201905061103d5f83018461101b565b92915050565b61104c81610f73565b82525050565b5f6020820190506110655f830184611043565b92915050565b61107481610f73565b82525050565b5f73ffffffffffffffffffffffffffffffffffffffff82169050919050565b5f6110a38261107a565b9050919050565b6110b381611099565b82525050565b6110c28161100f565b82525050565b61016082015f8201516110dd5f85018261106b565b5060208201516110f060208501826110aa565b50604082015161110360408501826110aa565b50606082015161111660608501826110aa565b506080820151611129608085018261106b565b5060a082015161113c60a085018261106b565b5060c082015161114f60c085018261106b565b5060e082015161116260e08501826110b9565b5061010082015161117761010085018261106b565b5061012082015161118c61012085018261106b565b506101408201516111a161014085018261106b565b50505050565b5f610160820190506111bb5f8301846110c8565b92915050565b6111ca81611099565b81146111d4575f5ffd5b50565b5f813590506111e5816111c1565b92915050565b5f5f5f5f5f5f5f60e0888a03121561120657611205610f6f565b5b5f6112138a828b016111d7565b97505060206112248a828b016111d7565b96505060406112358a828b016111d7565b95505060606112468a828b01610f92565b94505060806112578a828b01610f92565b93505060a06112688a828b01610f92565b92505060c06112798a828b01610f92565b91505092959891949750929550565b61129181611099565b82525050565b5f610160820190506112ab5f83018e611043565b6112b8602083018d611288565b6112c5604083018c611288565b6112d2606083018b611288565b6112df608083018a611043565b6112ec60a0830189611043565b6112f960c0830188611043565b61130660e083018761101b565b611314610100830186611043565b611322610120830185611043565b611330610140830184611043565b9c9b505050505050505050505050565b5f5f6040838503121561135657611355610f6f565b5b5f611363858286016111d7565b925050602061137485828601610f92565b9150509250929050565b6113878161100f565b8114611391575f5ffd5b50565b5f813590506113a28161137e565b92915050565b5f5f604083850312156113be576113bd610f6f565b5b5f6113cb85828601610f92565b92505060206113dc85828601611394565b9150509250929050565b5f602082840312156113fb576113fa610f6f565b5b5f611408848285016111d7565b91505092915050565b5f81519050919050565b5f82825260208201905092915050565b5f819050602082019050919050565b5f611445838361106b565b60208301905092915050565b5f602082019050919050565b5f61146782611411565b611471818561141b565b935061147c8361142b565b805f5b838110156114ac578151611493888261143a565b975061149e83611451565b92505060018101905061147f565b5085935050505092915050565b5f6020820190508181035f8301526114d1818461145d565b905092915050565b5f82825260208201905092915050565b7f4c6f616e206e6f7420666f756e640000000000000000000000000000000000005f82015250565b5f61151d600e836114d9565b9150611528826114e9565b602082019050919050565b5f6020820190508181035f83015261154a81611511565b9050919050565b7f416d6f756e74206d757374206265203e203000000000000000000000000000005f82015250565b5f6115856012836114d9565b915061159082611551565b602082019050919050565b5f6020820190508181035f8301526115b281611579565b9050919050565b7f496e76616c696420626f72726f776572000000000000000000000000000000005f82015250565b5f6115ed6010836114d9565b91506115f8826115b9565b602082019050919050565b5f6020820190508181035f83015261161a816115e1565b9050919050565b7f496e76616c6964206f726967696e61746f7200000000000000000000000000005f82015250565b5f6116556012836114d9565b915061166082611621565b602082019050919050565b5f6020820190508181035f83015261168281611649565b9050919050565b7f496e76616c696420636f6c6c61746572616c20746f6b656e00000000000000005f82015250565b5f6116bd6018836114d9565b91506116c882611689565b602082019050919050565b5f6020820190508181035f8301526116ea816116b1565b9050919050565b7f4c6f616e20616d6f756e74206d757374206265203e20300000000000000000005f82015250565b5f6117256017836114d9565b9150611730826116f1565b602082019050919050565b5f6020820190508181035f83015261175281611719565b9050919050565b7f496e76616c6964204c54560000000000000000000000000000000000000000005f82015250565b5f61178d600b836114d9565b915061179882611759565b602082019050919050565b5f6020820190508181035f8301526117ba81611781565b9050919050565b7f496e76616c6964206475652064617465000000000000000000000000000000005f82015250565b5f6117f56010836114d9565b9150611800826117c1565b602082019050919050565b5f6020820190508181035f830152611822816117e9565b9050919050565b7f4e487b71000000000000000000000000000000000000000000000000000000005f52601160045260245ffd5b5f61186082610f73565b91507fffffffffffffffffffffffffffffffffffffffffffffffffffffffffffffffff820361189257611891611829565b5b600182019050919050565b7f4e487b71000000000000000000000000000000000000000000000000000000005f52602160045260245ffd5b5f6080820190506118dd5f830187611288565b6118ea6020830186611043565b6118f76040830185611043565b6119046060830184611043565b95945050505050565b7f496e76616c6964207374617475730000000000000000000000000000000000005f82015250565b5f611941600e836114d9565b915061194c8261190d565b602082019050919050565b5f6020820190508181035f83015261196e81611935565b9050919050565b5f6040820190506119885f83018561101b565b611995602083018461101b565b939250505056fea2646970667358221220d6149e42d8464be8653874b9ecc15b3dc3cbf087a31b3b746866591558c7b69864736f6c63430008210033","linkReferences":{}},"methodIdentifiers":{"borrowerLoans(address,uint256)":"e3ed1902","createLoan(address,address,address,uint256,uint256,uint256,uint256)":"e04640d2","getBorrowerLoans(address)":"eee8b7ff","getLoan(uint256)":"504006ca","getLoanStatus(uint256)":"1c4fd41c","getOriginatorLoans(address)":"f6beee34","loanCounter()":"34d9289e","loans(uint256)":"e1ec3c68","originatorLoans(address,uint256)":"e5c9d5a7","setLoanStatus(uint256,uint8)":"ecdfa39f","updateCollateralAmount(uint256,uint256)":"19b19afd"},"id":1}