{"abi":[{"type":"constructor","inputs":[{"name":"loanRegistryAddress","type":"address","internalType":"address"}],"stateMutability":"nonpayable"},{"type":"function","name":"calculateLtv","inputs":[{"name":"loanId","type":"uint256","internalType":"uint256"},{"name":"collateralPrice","type":"uint256","internalType":"uint256"},{"name":"priceDecimals","type":"uint256","internalType":"uint256"}],"outputs":[{"name":"","type":"uint256","internalType":"uint256"}],"stateMutability":"view"},{"type":"function","name":"depositCollateral","inputs":[{"name":"loanId","type":"uint256","internalType":"uint256"},{"name":"amount","type":"uint256","internalType":"uint256"}],"outputs":[],"stateMutability":"nonpayable"},{"type":"function","name":"liquidateCollateral","inputs":[{"name":"loanId","type":"uint256","internalType":"uint256"}],"outputs":[],"stateMutability":"nonpayable"},{"type":"function","name":"loanRegistry","inputs":[],"outputs":[{"name":"","type":"address","internalType":"contract LoanRegistry"}],"stateMutability":"view"},{"type":"function","name":"releaseCollateral","inputs":[{"name":"loanId","type":"uint256","internalType":"uint256"}],"outputs":[],"stateMutability":"nonpayable"},{"type":"function","name":"vaults","inputs":[{"name":"","type":"uint256","internalType":"uint256"}],"outputs":[{"name":"loanId","type":"uint256","internalType":"uint256"},{"name":"collateralToken","type":"address","internalType":"address"},{"name":"amount","type":"uint256","internalType":"uint256"},{"name":"borrower","type":"address","internalType":"address"},{"name":"locked","type":"bool","internalType":"bool"},{"name":"liquidated","type":"bool","internalType":"bool"}],"stateMutability":"view"},{"type":"event","name":"CollateralDeposited","inputs":[{"name":"loanId","type":"uint256","indexed":true,"internalType":"uint256"},{"name":"borrower","type":"address","indexed":true,"internalType":"address"},{"name":"amount","type":"uint256","indexed":false,"internalType":"uint256"}],"anonymous":false},{"type":"event","name":"CollateralLiquidated","inputs":[{"name":"loanId","type":"uint256","indexed":true,"internalType":"uint256"},{"name":"amount","type":"uint256","indexed":false,"internalType":"uint256"}],"anonymous":false},{"type":"event","name":"CollateralReleased","inputs":[{"name":"loanId","type":"uint256","indexed":true,"internalType":"uint256"},{"name":"amount","type":"uint256","indexed":false,"internalType":"uint256"}],"anonymous":false}],"bytecode":{"object":"0x608060405234801561000f575f5ffd5b506040516125a33803806125a383398181016040528101906100319190610142565b5f73ffffffffffffffffffffffffffffffffffffffff168173ffffffffffffffffffffffffffffffffffffffff160361009f576040517f08c379a0000000000000000000000000000000000000000000000000000000008152600401610096906101c7565b60405180910390fd5b805f5f6101000a81548173ffffffffffffffffffffffffffffffffffffffff021916908373ffffffffffffffffffffffffffffffffffffffff160217905550506101e5565b5f5ffd5b5f73ffffffffffffffffffffffffffffffffffffffff82169050919050565b5f610111826100e8565b9050919050565b61012181610107565b811461012b575f5ffd5b50565b5f8151905061013c81610118565b92915050565b5f60208284031215610157576101566100e4565b5b5f6101648482850161012e565b91505092915050565b5f82825260208201905092915050565b7f496e76616c6964207265676973747279206164647265737300000000000000005f82015250565b5f6101b160188361016d565b91506101bc8261017d565b602082019050919050565b5f6020820190508181035f8301526101de816101a5565b9050919050565b6123b1806101f25f395ff3fe608060405234801561000f575f5ffd5b5060043610610060575f3560e01c806339007b77146100645780633938ccdf146100805780635be1c68b1461009c5780638c64ea4a146100cc578063a77957ea14610101578063ece137321461011f575b5f5ffd5b61007e6004803603810190610079919061148f565b61013b565b005b61009a6004803603810190610095919061148f565b61058e565b005b6100b660048036038101906100b191906114ba565b610a5c565b6040516100c39190611519565b60405180910390f35b6100e660048036038101906100e1919061148f565b610d6d565b6040516100f89695949392919061158b565b60405180910390f35b610109610dfd565b6040516101169190611645565b60405180910390f35b6101396004803603810190610134919061165e565b610e21565b005b5f60015f8381526020019081526020015f2090505f815f015403610194576040517f08c379a000000000000000000000000000000000000000000000000000000000815260040161018b906116f6565b60405180910390fd5b8060030160159054906101000a900460ff16156101e6576040517f08c379a00000000000000000000000000000000000000000000000000000000081526004016101dd9061175e565b60405180910390fd5b5f81600201541161022c576040517f08c379a0000000000000000000000000000000000000000000000000000000008152600401610223906117c6565b60405180910390fd5b5f5f5f9054906101000a900473ffffffffffffffffffffffffffffffffffffffff1673ffffffffffffffffffffffffffffffffffffffff1663504006ca846040518263ffffffff1660e01b81526004016102869190611519565b61016060405180830381865afa1580156102a2573d5f5f3e3d5ffd5b505050506040513d601f19601f820116820180604052508101906102c691906119ed565b90505f815f01510361030d576040517f08c379a000000000000000000000000000000000000000000000000000000000815260040161030490611a63565b60405180910390fd5b816003015f9054906101000a900473ffffffffffffffffffffffffffffffffffffffff1673ffffffffffffffffffffffffffffffffffffffff163373ffffffffffffffffffffffffffffffffffffffff161461039e576040517f08c379a000000000000000000000000000000000000000000000000000000000815260040161039590611acb565b60405180910390fd5b600460078111156103b2576103b1611ae9565b5b60ff168160e0015160ff1614806103e457506007808111156103d7576103d6611ae9565b5b60ff168160e0015160ff16145b610423576040517f08c379a000000000000000000000000000000000000000000000000000000000815260040161041a90611b60565b60405180910390fd5b5f826002015490505f83600201819055505f8360030160146101000a81548160ff021916908315150217905550826001015f9054906101000a900473ffffffffffffffffffffffffffffffffffffffff1673ffffffffffffffffffffffffffffffffffffffff1663a9059cbb846003015f9054906101000a900473ffffffffffffffffffffffffffffffffffffffff16836040518363ffffffff1660e01b81526004016104d1929190611b7e565b6020604051808303815f875af11580156104ed573d5f5f3e3d5ffd5b505050506040513d601f19601f820116820180604052508101906105119190611bcf565b610550576040517f08c379a000000000000000000000000000000000000000000000000000000000815260040161054790611c44565b60405180910390fd5b837fd6513284110ca9c03fb9099da6d3e2c1c34761de7886e2185080cc9a91a46307826040516105809190611519565b60405180910390a250505050565b5f60015f8381526020019081526020015f2090505f815f0154036105e7576040517f08c379a00000000000000000000000000000000000000000000000000000000081526004016105de906116f6565b60405180910390fd5b8060030160159054906101000a900460ff1615610639576040517f08c379a00000000000000000000000000000000000000000000000000000000081526004016106309061175e565b60405180910390fd5b5f81600201541161067f576040517f08c379a000000000000000000000000000000000000000000000000000000000815260040161067690611cac565b60405180910390fd5b5f5f5f9054906101000a900473ffffffffffffffffffffffffffffffffffffffff1673ffffffffffffffffffffffffffffffffffffffff1663504006ca846040518263ffffffff1660e01b81526004016106d99190611519565b61016060405180830381865afa1580156106f5573d5f5f3e3d5ffd5b505050506040513d601f19601f8201168201806040525081019061071991906119ed565b90505f815f015103610760576040517f08c379a000000000000000000000000000000000000000000000000000000000815260040161075790611a63565b60405180910390fd5b806040015173ffffffffffffffffffffffffffffffffffffffff163373ffffffffffffffffffffffffffffffffffffffff16146107d2576040517f08c379a00000000000000000000000000000000000000000000000000000000081526004016107c990611d14565b60405180910390fd5b600260078111156107e6576107e5611ae9565b5b60ff168160e0015160ff16148061081957506003600781111561080c5761080b611ae9565b5b60ff168160e0015160ff16145b610858576040517f08c379a000000000000000000000000000000000000000000000000000000000815260040161084f90611d7c565b60405180910390fd5b5f826002015490505f83600201819055505f8360030160146101000a81548160ff02191690831515021790555060018360030160156101000a81548160ff021916908315150217905550826001015f9054906101000a900473ffffffffffffffffffffffffffffffffffffffff1673ffffffffffffffffffffffffffffffffffffffff1663a9059cbb8360400151836040518363ffffffff1660e01b8152600401610904929190611b7e565b6020604051808303815f875af1158015610920573d5f5f3e3d5ffd5b505050506040513d601f19601f820116820180604052508101906109449190611bcf565b610983576040517f08c379a000000000000000000000000000000000000000000000000000000000815260040161097a90611c44565b60405180910390fd5b5f5f9054906101000a900473ffffffffffffffffffffffffffffffffffffffff1673ffffffffffffffffffffffffffffffffffffffff1663ecdfa39f85600660078111156109d4576109d3611ae9565b5b6040518363ffffffff1660e01b81526004016109f1929190611da9565b5f604051808303815f87803b158015610a08575f5ffd5b505af1158015610a1a573d5f5f3e3d5ffd5b50505050837f524adb2d966e366fe4ac4c5d94b814afdb2e4a8879615407f112a91812251b6082604051610a4e9190611519565b60405180910390a250505050565b5f5f5f5f9054906101000a900473ffffffffffffffffffffffffffffffffffffffff1673ffffffffffffffffffffffffffffffffffffffff1663504006ca866040518263ffffffff1660e01b8152600401610ab79190611519565b61016060405180830381865afa158015610ad3573d5f5f3e3d5ffd5b505050506040513d601f19601f82011682018060405250810190610af791906119ed565b90505f815f015103610b3e576040517f08c379a0000000000000000000000000000000000000000000000000000000008152600401610b3590611a63565b60405180910390fd5b5f60015f8781526020019081526020015f206040518060c00160405290815f8201548152602001600182015f9054906101000a900473ffffffffffffffffffffffffffffffffffffffff1673ffffffffffffffffffffffffffffffffffffffff1673ffffffffffffffffffffffffffffffffffffffff16815260200160028201548152602001600382015f9054906101000a900473ffffffffffffffffffffffffffffffffffffffff1673ffffffffffffffffffffffffffffffffffffffff1673ffffffffffffffffffffffffffffffffffffffff1681526020016003820160149054906101000a900460ff161515151581526020016003820160159054906101000a900460ff16151515158152505090505f816040015111610c96576040517f08c379a0000000000000000000000000000000000000000000000000000000008152600401610c8d90611e1a565b60405180910390fd5b5f8511610cd8576040517f08c379a0000000000000000000000000000000000000000000000000000000008152600401610ccf90611e82565b60405180910390fd5b5f84600a610ce69190611ffc565b868360400151610cf69190612046565b610d0091906120b4565b90505f8111610d44576040517f08c379a0000000000000000000000000000000000000000000000000000000008152600401610d3b9061212e565b60405180910390fd5b806127108460a00151610d579190612046565b610d6191906120b4565b93505050509392505050565b6001602052805f5260405f205f91509050805f015490806001015f9054906101000a900473ffffffffffffffffffffffffffffffffffffffff1690806002015490806003015f9054906101000a900473ffffffffffffffffffffffffffffffffffffffff16908060030160149054906101000a900460ff16908060030160159054906101000a900460ff16905086565b5f5f9054906101000a900473ffffffffffffffffffffffffffffffffffffffff1681565b5f8111610e63576040517f08c379a0000000000000000000000000000000000000000000000000000000008152600401610e5a90612196565b60405180910390fd5b5f5f5f9054906101000a900473ffffffffffffffffffffffffffffffffffffffff1673ffffffffffffffffffffffffffffffffffffffff1663504006ca846040518263ffffffff1660e01b8152600401610ebd9190611519565b61016060405180830381865afa158015610ed9573d5f5f3e3d5ffd5b505050506040513d601f19601f82011682018060405250810190610efd91906119ed565b90505f815f015103610f44576040517f08c379a0000000000000000000000000000000000000000000000000000000008152600401610f3b90611a63565b60405180910390fd5b806020015173ffffffffffffffffffffffffffffffffffffffff163373ffffffffffffffffffffffffffffffffffffffff1614610fb6576040517f08c379a0000000000000000000000000000000000000000000000000000000008152600401610fad906121fe565b60405180910390fd5b5f6007811115610fc957610fc8611ae9565b5b60ff168160e0015160ff161480610ffc575060016007811115610fef57610fee611ae9565b5b60ff168160e0015160ff16145b61103b576040517f08c379a000000000000000000000000000000000000000000000000000000000815260040161103290612266565b60405180910390fd5b5f60015f8581526020019081526020015f2090505f73ffffffffffffffffffffffffffffffffffffffff16816001015f9054906101000a900473ffffffffffffffffffffffffffffffffffffffff1673ffffffffffffffffffffffffffffffffffffffff1614806110fe5750816060015173ffffffffffffffffffffffffffffffffffffffff16816001015f9054906101000a900473ffffffffffffffffffffffffffffffffffffffff1673ffffffffffffffffffffffffffffffffffffffff16145b61113d576040517f08c379a0000000000000000000000000000000000000000000000000000000008152600401611134906122ce565b60405180910390fd5b83815f01819055508160600151816001015f6101000a81548173ffffffffffffffffffffffffffffffffffffffff021916908373ffffffffffffffffffffffffffffffffffffffff1602179055508160200151816003015f6101000a81548173ffffffffffffffffffffffffffffffffffffffff021916908373ffffffffffffffffffffffffffffffffffffffff16021790555082816002015f8282546111e491906122ec565b9250508190555060018160030160146101000a81548160ff021916908315150217905550816060015173ffffffffffffffffffffffffffffffffffffffff166323b872dd3330866040518463ffffffff1660e01b81526004016112499392919061231f565b6020604051808303815f875af1158015611265573d5f5f3e3d5ffd5b505050506040513d601f19601f820116820180604052508101906112899190611bcf565b6112c8576040517f08c379a00000000000000000000000000000000000000000000000000000000081526004016112bf90611c44565b60405180910390fd5b5f5f9054906101000a900473ffffffffffffffffffffffffffffffffffffffff1673ffffffffffffffffffffffffffffffffffffffff166319b19afd8585856080015161131591906122ec565b6040518363ffffffff1660e01b8152600401611332929190612354565b5f604051808303815f87803b158015611349575f5ffd5b505af115801561135b573d5f5f3e3d5ffd5b505050505f5f9054906101000a900473ffffffffffffffffffffffffffffffffffffffff1673ffffffffffffffffffffffffffffffffffffffff1663ecdfa39f85600260078111156113b0576113af611ae9565b5b6040518363ffffffff1660e01b81526004016113cd929190611da9565b5f604051808303815f87803b1580156113e4575f5ffd5b505af11580156113f6573d5f5f3e3d5ffd5b505050503373ffffffffffffffffffffffffffffffffffffffff16847feec2f3feb835e2f2fd44281034b04700a1ddda63dd402949d470a25a7c40b36c856040516114419190611519565b60405180910390a350505050565b5f604051905090565b5f5ffd5b5f819050919050565b61146e8161145c565b8114611478575f5ffd5b50565b5f8135905061148981611465565b92915050565b5f602082840312156114a4576114a3611458565b5b5f6114b18482850161147b565b91505092915050565b5f5f5f606084860312156114d1576114d0611458565b5b5f6114de8682870161147b565b93505060206114ef8682870161147b565b92505060406115008682870161147b565b9150509250925092565b6115138161145c565b82525050565b5f60208201905061152c5f83018461150a565b92915050565b5f73ffffffffffffffffffffffffffffffffffffffff82169050919050565b5f61155b82611532565b9050919050565b61156b81611551565b82525050565b5f8115159050919050565b61158581611571565b82525050565b5f60c08201905061159e5f83018961150a565b6115ab6020830188611562565b6115b8604083018761150a565b6115c56060830186611562565b6115d2608083018561157c565b6115df60a083018461157c565b979650505050505050565b5f819050919050565b5f61160d61160861160384611532565b6115ea565b611532565b9050919050565b5f61161e826115f3565b9050919050565b5f61162f82611614565b9050919050565b61163f81611625565b82525050565b5f6020820190506116585f830184611636565b92915050565b5f5f6040838503121561167457611673611458565b5b5f6116818582860161147b565b92505060206116928582860161147b565b9150509250929050565b5f82825260208201905092915050565b7f5661756c74206e6f7420666f756e6400000000000000000000000000000000005f82015250565b5f6116e0600f8361169c565b91506116eb826116ac565b602082019050919050565b5f6020820190508181035f83015261170d816116d4565b9050919050565b7f436f6c6c61746572616c20616c7265616479206c6971756964617465640000005f82015250565b5f611748601d8361169c565b915061175382611714565b602082019050919050565b5f6020820190508181035f8301526117758161173c565b9050919050565b7f4e6f20636f6c6c61746572616c20746f2072656c6561736500000000000000005f82015250565b5f6117b060188361169c565b91506117bb8261177c565b602082019050919050565b5f6020820190508181035f8301526117dd816117a4565b9050919050565b5f5ffd5b5f601f19601f8301169050919050565b7f4e487b71000000000000000000000000000000000000000000000000000000005f52604160045260245ffd5b61182e826117e8565b810181811067ffffffffffffffff8211171561184d5761184c6117f8565b5b80604052505050565b5f61185f61144f565b905061186b8282611825565b919050565b5f8151905061187e81611465565b92915050565b61188d81611551565b8114611897575f5ffd5b50565b5f815190506118a881611884565b92915050565b5f60ff82169050919050565b6118c3816118ae565b81146118cd575f5ffd5b50565b5f815190506118de816118ba565b92915050565b5f61016082840312156118fa576118f96117e4565b5b611905610160611856565b90505f61191484828501611870565b5f8301525060206119278482850161189a565b602083015250604061193b8482850161189a565b604083015250606061194f8482850161189a565b606083015250608061196384828501611870565b60808301525060a061197784828501611870565b60a08301525060c061198b84828501611870565b60c08301525060e061199f848285016118d0565b60e0830152506101006119b484828501611870565b610100830152506101206119ca84828501611870565b610120830152506101406119e084828501611870565b6101408301525092915050565b5f6101608284031215611a0357611a02611458565b5b5f611a10848285016118e4565b91505092915050565b7f4c6f616e206e6f7420666f756e640000000000000000000000000000000000005f82015250565b5f611a4d600e8361169c565b9150611a5882611a19565b602082019050919050565b5f6020820190508181035f830152611a7a81611a41565b9050919050565b7f4f6e6c7920626f72726f7765722063616e2072656c65617365000000000000005f82015250565b5f611ab560198361169c565b9150611ac082611a81565b602082019050919050565b5f6020820190508181035f830152611ae281611aa9565b9050919050565b7f4e487b71000000000000000000000000000000000000000000000000000000005f52602160045260245ffd5b7f4c6f616e206e6f742072656c65617361626c65000000000000000000000000005f82015250565b5f611b4a60138361169c565b9150611b5582611b16565b602082019050919050565b5f6020820190508181035f830152611b7781611b3e565b9050919050565b5f604082019050611b915f830185611562565b611b9e602083018461150a565b9392505050565b611bae81611571565b8114611bb8575f5ffd5b50565b5f81519050611bc981611ba5565b92915050565b5f60208284031215611be457611be3611458565b5b5f611bf184828501611bbb565b91505092915050565b7f5472616e73666572206661696c656400000000000000000000000000000000005f82015250565b5f611c2e600f8361169c565b9150611c3982611bfa565b602082019050919050565b5f6020820190508181035f830152611c5b81611c22565b9050919050565b7f4e6f20636f6c6c61746572616c20746f206c69717569646174650000000000005f82015250565b5f611c96601a8361169c565b9150611ca182611c62565b602082019050919050565b5f6020820190508181035f830152611cc381611c8a565b9050919050565b7f4f6e6c79206f726967696e61746f722063616e206c69717569646174650000005f82015250565b5f611cfe601d8361169c565b9150611d0982611cca565b602082019050919050565b5f6020820190508181035f830152611d2b81611cf2565b9050919050565b7f4c6f616e206e6f74206c6971756964617461626c6500000000000000000000005f82015250565b5f611d6660158361169c565b9150611d7182611d32565b602082019050919050565b5f6020820190508181035f830152611d9381611d5a565b9050919050565b611da3816118ae565b82525050565b5f604082019050611dbc5f83018561150a565b611dc96020830184611d9a565b9392505050565b7f4e6f20636f6c6c61746572616c000000000000000000000000000000000000005f82015250565b5f611e04600d8361169c565b9150611e0f82611dd0565b602082019050919050565b5f6020820190508181035f830152611e3181611df8565b9050919050565b7f496e76616c6964207072696365000000000000000000000000000000000000005f82015250565b5f611e6c600d8361169c565b9150611e7782611e38565b602082019050919050565b5f6020820190508181035f830152611e9981611e60565b9050919050565b7f4e487b71000000000000000000000000000000000000000000000000000000005f52601160045260245ffd5b5f8160011c9050919050565b5f5f8291508390505b6001851115611f2257808604811115611efe57611efd611ea0565b5b6001851615611f0d5780820291505b8081029050611f1b85611ecd565b9450611ee2565b94509492505050565b5f82611f3a5760019050611ff5565b81611f47575f9050611ff5565b8160018114611f5d5760028114611f6757611f96565b6001915050611ff5565b60ff841115611f7957611f78611ea0565b5b8360020a915084821115611f9057611f8f611ea0565b5b50611ff5565b5060208310610133831016604e8410600b8410161715611fcb5782820a905083811115611fc657611fc5611ea0565b5b611ff5565b611fd88484846001611ed9565b92509050818404811115611fef57611fee611ea0565b5b81810290505b9392505050565b5f6120068261145c565b91506120118361145c565b925061203e7fffffffffffffffffffffffffffffffffffffffffffffffffffffffffffffffff8484611f2b565b905092915050565b5f6120508261145c565b915061205b8361145c565b92508282026120698161145c565b915082820484148315176120805761207f611ea0565b5b5092915050565b7f4e487b71000000000000000000000000000000000000000000000000000000005f52601260045260245ffd5b5f6120be8261145c565b91506120c98361145c565b9250826120d9576120d8612087565b5b828204905092915050565b7f436f6c6c61746572616c2076616c7565206973207a65726f00000000000000005f82015250565b5f61211860188361169c565b9150612123826120e4565b602082019050919050565b5f6020820190508181035f8301526121458161210c565b9050919050565b7f416d6f756e74206d757374206265203e203000000000000000000000000000005f82015250565b5f61218060128361169c565b915061218b8261214c565b602082019050919050565b5f6020820190508181035f8301526121ad81612174565b9050919050565b7f4f6e6c7920626f72726f7765722063616e206465706f736974000000000000005f82015250565b5f6121e860198361169c565b91506121f3826121b4565b602082019050919050565b5f6020820190508181035f830152612215816121dc565b9050919050565b7f4c6f616e206e6f74206465706f73697461626c650000000000000000000000005f82015250565b5f61225060148361169c565b915061225b8261221c565b602082019050919050565b5f6020820190508181035f83015261227d81612244565b9050919050565b7f436f6c6c61746572616c20746f6b656e206d69736d61746368000000000000005f82015250565b5f6122b860198361169c565b91506122c382612284565b602082019050919050565b5f6020820190508181035f8301526122e5816122ac565b9050919050565b5f6122f68261145c565b91506123018361145c565b925082820190508082111561231957612318611ea0565b5b92915050565b5f6060820190506123325f830186611562565b61233f6020830185611562565b61234c604083018461150a565b949350505050565b5f6040820190506123675f83018561150a565b612374602083018461150a565b939250505056fea2646970667358221220d07721041230302fd72926989812d5507494740b8825749041cb567ceb368cbb64736f6c63430008210033","linkReferences":{}},"methodIdentifiers":{"calculateLtv(uint256,uint256,uint256)":"5be1c68b","depositCollateral(uint256,uint256)":"ece13732","liquidateCollateral(uint256)":"3938ccdf","loanRegistry()":"a77957ea","releaseCollateral(uint256)":"39007b77","vaults(uint256)":"8c64ea4a"},"id":0}