{"abi":[{"type":"constructor","inputs":[{"name":"loanRegistryAddress","type":"address","internalType":"address"}],"stateMutability":"nonpayable"},{"type":"function","name":"admin","inputs":[],"outputs":[{"name":"","type":"address","internalType":"address"}],"stateMutability":"view"},{"type":"function","name":"calculateLtv","inputs":[{"name":"loanId","type":"uint256","internalType":"uint256"},{"name":"collateralPrice","type":"uint256","internalType":"uint256"},{"name":"priceDecimals","type":"uint256","internalType":"uint256"}],"outputs":[{"name":"","type":"uint256","internalType":"uint256"}],"stateMutability":"view"},{"type":"function","name":"depositCollateral","inputs":[{"name":"loanId","type":"uint256","internalType":"uint256"},{"name":"amount","type":"uint256","internalType":"uint256"}],"outputs":[],"stateMutability":"nonpayable"},{"type":"function","name":"getVault","inputs":[{"name":"loanId","type":"uint256","internalType":"uint256"}],"outputs":[{"name":"","type":"tuple","internalType":"struct CollateralVault.Vault","components":[{"name":"loanId","type":"uint256","internalType":"uint256"},{"name":"collateralToken","type":"address","internalType":"address"},{"name":"amount","type":"uint256","internalType":"uint256"},{"name":"borrower","type":"address","internalType":"address"},{"name":"locked","type":"bool","internalType":"bool"},{"name":"liquidated","type":"bool","internalType":"bool"}]}],"stateMutability":"view"},{"type":"function","name":"liquidateCollateral","inputs":[{"name":"loanId","type":"uint256","internalType":"uint256"}],"outputs":[],"stateMutability":"nonpayable"},{"type":"function","name":"liquidationEngine","inputs":[],"outputs":[{"name":"","type":"address","internalType":"address"}],"stateMutability":"view"},{"type":"function","name":"loanRegistry","inputs":[],"outputs":[{"name":"","type":"address","internalType":"contract LoanRegistry"}],"stateMutability":"view"},{"type":"function","name":"releaseCollateral","inputs":[{"name":"loanId","type":"uint256","internalType":"uint256"}],"outputs":[],"stateMutability":"nonpayable"},{"type":"function","name":"setLiquidationEngine","inputs":[{"name":"engine","type":"address","internalType":"address"}],"outputs":[],"stateMutability":"nonpayable"},{"type":"function","name":"vaults","inputs":[{"name":"","type":"uint256","internalType":"uint256"}],"outputs":[{"name":"loanId","type":"uint256","internalType":"uint256"},{"name":"collateralToken","type":"address","internalType":"address"},{"name":"amount","type":"uint256","internalType":"uint256"},{"name":"borrower","type":"address","internalType":"address"},{"name":"locked","type":"bool","internalType":"bool"},{"name":"liquidated","type":"bool","internalType":"bool"}],"stateMutability":"view"},{"type":"event","name":"CollateralDeposited","inputs":[{"name":"loanId","type":"uint256","indexed":true,"internalType":"uint256"},{"name":"borrower","type":"address","indexed":true,"internalType":"address"},{"name":"amount","type":"uint256","indexed":false,"internalType":"uint256"}],"anonymous":false},{"type":"event","name":"CollateralLiquidated","inputs":[{"name":"loanId","type":"uint256","indexed":true,"internalType":"uint256"},{"name":"amount","type":"uint256","indexed":false,"internalType":"uint256"}],"anonymous":false},{"type":"event","name":"CollateralReleased","inputs":[{"name":"loanId","type":"uint256","indexed":true,"internalType":"uint256"},{"name":"amount","type":"uint256","indexed":false,"internalType":"uint256"}],"anonymous":false},{"type":"event","name":"CollateralToppedUp","inputs":[{"name":"loanId","type":"uint256","indexed":true,"internalType":"uint256"},{"name":"borrower","type":"address","indexed":true,"internalType":"address"},{"name":"amount","type":"uint256","indexed":false,"internalType":"uint256"},{"name":"newTotalAmount","type":"uint256","indexed":false,"internalType":"uint256"}],"anonymous":false},{"type":"event","name":"LiquidationEngineSet","inputs":[{"name":"oldEngine","type":"address","indexed":true,"internalType":"address"},{"name":"newEngine","type":"address","indexed":true,"internalType":"address"}],"anonymous":false}],"bytecode":{"object":"0x608060405234801561000f575f5ffd5b50604051612ee0380380612ee083398181016040528101906100319190610182565b5f73ffffffffffffffffffffffffffffffffffffffff168173ffffffffffffffffffffffffffffffffffffffff160361009f576040517f08c379a000000000000000000000000000000000000000000000000000000000815260040161009690610207565b60405180910390fd5b805f5f6101000a81548173ffffffffffffffffffffffffffffffffffffffff021916908373ffffffffffffffffffffffffffffffffffffffff1602179055503360015f6101000a81548173ffffffffffffffffffffffffffffffffffffffff021916908373ffffffffffffffffffffffffffffffffffffffff16021790555050610225565b5f5ffd5b5f73ffffffffffffffffffffffffffffffffffffffff82169050919050565b5f61015182610128565b9050919050565b61016181610147565b811461016b575f5ffd5b50565b5f8151905061017c81610158565b92915050565b5f6020828403121561019757610196610124565b5b5f6101a48482850161016e565b91505092915050565b5f82825260208201905092915050565b7f496e76616c6964207265676973747279206164647265737300000000000000005f82015250565b5f6101f16018836101ad565b91506101fc826101bd565b602082019050919050565b5f6020820190508181035f83015261021e816101e5565b9050919050565b612cae806102325f395ff3fe608060405234801561000f575f5ffd5b506004361061009c575f3560e01c80638c64ea4a116100645780638c64ea4a146101425780639403b63414610177578063a77957ea146101a7578063ece13732146101c5578063f851a440146101e15761009c565b806339007b77146100a05780633938ccdf146100bc57806344bf3c72146100d85780634d298abd146100f65780635be1c68b14610112575b5f5ffd5b6100ba60048036038101906100b59190611af1565b6101ff565b005b6100d660048036038101906100d19190611af1565b610652565b005b6100e0610b64565b6040516100ed9190611b5b565b60405180910390f35b610110600480360381019061010b9190611b9e565b610b89565b005b61012c60048036038101906101279190611bc9565b610d44565b6040516101399190611c28565b60405180910390f35b61015c60048036038101906101579190611af1565b611055565b60405161016e96959493929190611c5b565b60405180910390f35b610191600480360381019061018c9190611af1565b6110e5565b60405161019e9190611d60565b60405180910390f35b6101af611203565b6040516101bc9190611dd4565b60405180910390f35b6101df60048036038101906101da9190611ded565b611227565b005b6101e9611a2c565b6040516101f69190611b5b565b60405180910390f35b5f60035f8381526020019081526020015f2090505f815f015403610258576040517f08c379a000000000000000000000000000000000000000000000000000000000815260040161024f90611e85565b60405180910390fd5b8060030160159054906101000a900460ff16156102aa576040517f08c379a00000000000000000000000000000000000000000000000000000000081526004016102a190611eed565b60405180910390fd5b5f8160020154116102f0576040517f08c379a00000000000000000000000000000000000000000000000000000000081526004016102e790611f55565b60405180910390fd5b5f5f5f9054906101000a900473ffffffffffffffffffffffffffffffffffffffff1673ffffffffffffffffffffffffffffffffffffffff1663504006ca846040518263ffffffff1660e01b815260040161034a9190611c28565b61016060405180830381865afa158015610366573d5f5f3e3d5ffd5b505050506040513d601f19601f8201168201806040525081019061038a9190612166565b90505f815f0151036103d1576040517f08c379a00000000000000000000000000000000000000000000000000000000081526004016103c8906121dc565b60405180910390fd5b816003015f9054906101000a900473ffffffffffffffffffffffffffffffffffffffff1673ffffffffffffffffffffffffffffffffffffffff163373ffffffffffffffffffffffffffffffffffffffff1614610462576040517f08c379a000000000000000000000000000000000000000000000000000000000815260040161045990612244565b60405180910390fd5b6004600781111561047657610475612262565b5b60ff168160e0015160ff1614806104a8575060078081111561049b5761049a612262565b5b60ff168160e0015160ff16145b6104e7576040517f08c379a00000000000000000000000000000000000000000000000000000000081526004016104de906122d9565b60405180910390fd5b5f826002015490505f83600201819055505f8360030160146101000a81548160ff021916908315150217905550826001015f9054906101000a900473ffffffffffffffffffffffffffffffffffffffff1673ffffffffffffffffffffffffffffffffffffffff1663a9059cbb846003015f9054906101000a900473ffffffffffffffffffffffffffffffffffffffff16836040518363ffffffff1660e01b81526004016105959291906122f7565b6020604051808303815f875af11580156105b1573d5f5f3e3d5ffd5b505050506040513d601f19601f820116820180604052508101906105d59190612348565b610614576040517f08c379a000000000000000000000000000000000000000000000000000000000815260040161060b906123bd565b60405180910390fd5b837fd6513284110ca9c03fb9099da6d3e2c1c34761de7886e2185080cc9a91a46307826040516106449190611c28565b60405180910390a250505050565b5f60035f8381526020019081526020015f2090505f815f0154036106ab576040517f08c379a00000000000000000000000000000000000000000000000000000000081526004016106a290611e85565b60405180910390fd5b8060030160159054906101000a900460ff16156106fd576040517f08c379a00000000000000000000000000000000000000000000000000000000081526004016106f490611eed565b60405180910390fd5b5f816002015411610743576040517f08c379a000000000000000000000000000000000000000000000000000000000815260040161073a90612425565b60405180910390fd5b5f5f5f9054906101000a900473ffffffffffffffffffffffffffffffffffffffff1673ffffffffffffffffffffffffffffffffffffffff1663504006ca846040518263ffffffff1660e01b815260040161079d9190611c28565b61016060405180830381865afa1580156107b9573d5f5f3e3d5ffd5b505050506040513d601f19601f820116820180604052508101906107dd9190612166565b90505f815f015103610824576040517f08c379a000000000000000000000000000000000000000000000000000000000815260040161081b906121dc565b60405180910390fd5b60025f9054906101000a900473ffffffffffffffffffffffffffffffffffffffff1673ffffffffffffffffffffffffffffffffffffffff163373ffffffffffffffffffffffffffffffffffffffff16146108b3576040517f08c379a00000000000000000000000000000000000000000000000000000000081526004016108aa906124b3565b60405180910390fd5b600260078111156108c7576108c6612262565b5b60ff168160e0015160ff1614806108fa5750600360078111156108ed576108ec612262565b5b60ff168160e0015160ff16145b8061092157506005600781111561091457610913612262565b5b60ff168160e0015160ff16145b610960576040517f08c379a00000000000000000000000000000000000000000000000000000000081526004016109579061251b565b60405180910390fd5b5f826002015490505f83600201819055505f8360030160146101000a81548160ff02191690831515021790555060018360030160156101000a81548160ff021916908315150217905550826001015f9054906101000a900473ffffffffffffffffffffffffffffffffffffffff1673ffffffffffffffffffffffffffffffffffffffff1663a9059cbb8360400151836040518363ffffffff1660e01b8152600401610a0c9291906122f7565b6020604051808303815f875af1158015610a28573d5f5f3e3d5ffd5b505050506040513d601f19601f82011682018060405250810190610a4c9190612348565b610a8b576040517f08c379a0000000000000000000000000000000000000000000000000000000008152600401610a82906123bd565b60405180910390fd5b5f5f9054906101000a900473ffffffffffffffffffffffffffffffffffffffff1673ffffffffffffffffffffffffffffffffffffffff1663ecdfa39f8560066007811115610adc57610adb612262565b5b6040518363ffffffff1660e01b8152600401610af9929190612548565b5f604051808303815f87803b158015610b10575f5ffd5b505af1158015610b22573d5f5f3e3d5ffd5b50505050837f524adb2d966e366fe4ac4c5d94b814afdb2e4a8879615407f112a91812251b6082604051610b569190611c28565b60405180910390a250505050565b60025f9054906101000a900473ffffffffffffffffffffffffffffffffffffffff1681565b60015f9054906101000a900473ffffffffffffffffffffffffffffffffffffffff1673ffffffffffffffffffffffffffffffffffffffff163373ffffffffffffffffffffffffffffffffffffffff1614610c18576040517f08c379a0000000000000000000000000000000000000000000000000000000008152600401610c0f906125df565b60405180910390fd5b5f73ffffffffffffffffffffffffffffffffffffffff168173ffffffffffffffffffffffffffffffffffffffff1603610c86576040517f08c379a0000000000000000000000000000000000000000000000000000000008152600401610c7d90612647565b60405180910390fd5b8073ffffffffffffffffffffffffffffffffffffffff1660025f9054906101000a900473ffffffffffffffffffffffffffffffffffffffff1673ffffffffffffffffffffffffffffffffffffffff167fcfedc450a13b10a5afb3da45e43b35da1488118f862fe51018bb97405389425d60405160405180910390a38060025f6101000a81548173ffffffffffffffffffffffffffffffffffffffff021916908373ffffffffffffffffffffffffffffffffffffffff16021790555050565b5f5f5f5f9054906101000a900473ffffffffffffffffffffffffffffffffffffffff1673ffffffffffffffffffffffffffffffffffffffff1663504006ca866040518263ffffffff1660e01b8152600401610d9f9190611c28565b61016060405180830381865afa158015610dbb573d5f5f3e3d5ffd5b505050506040513d601f19601f82011682018060405250810190610ddf9190612166565b90505f815f015103610e26576040517f08c379a0000000000000000000000000000000000000000000000000000000008152600401610e1d906121dc565b60405180910390fd5b5f60035f8781526020019081526020015f206040518060c00160405290815f8201548152602001600182015f9054906101000a900473ffffffffffffffffffffffffffffffffffffffff1673ffffffffffffffffffffffffffffffffffffffff1673ffffffffffffffffffffffffffffffffffffffff16815260200160028201548152602001600382015f9054906101000a900473ffffffffffffffffffffffffffffffffffffffff1673ffffffffffffffffffffffffffffffffffffffff1673ffffffffffffffffffffffffffffffffffffffff1681526020016003820160149054906101000a900460ff161515151581526020016003820160159054906101000a900460ff16151515158152505090505f816040015111610f7e576040517f08c379a0000000000000000000000000000000000000000000000000000000008152600401610f75906126af565b60405180910390fd5b5f8511610fc0576040517f08c379a0000000000000000000000000000000000000000000000000000000008152600401610fb790612717565b60405180910390fd5b5f84600a610fce9190612891565b868360400151610fde91906128db565b610fe89190612949565b90505f811161102c576040517f08c379a0000000000000000000000000000000000000000000000000000000008152600401611023906129c3565b60405180910390fd5b806127108460a0015161103f91906128db565b6110499190612949565b93505050509392505050565b6003602052805f5260405f205f91509050805f015490806001015f9054906101000a900473ffffffffffffffffffffffffffffffffffffffff1690806002015490806003015f9054906101000a900473ffffffffffffffffffffffffffffffffffffffff16908060030160149054906101000a900460ff16908060030160159054906101000a900460ff16905086565b6110ed611a51565b60035f8381526020019081526020015f206040518060c00160405290815f8201548152602001600182015f9054906101000a900473ffffffffffffffffffffffffffffffffffffffff1673ffffffffffffffffffffffffffffffffffffffff1673ffffffffffffffffffffffffffffffffffffffff16815260200160028201548152602001600382015f9054906101000a900473ffffffffffffffffffffffffffffffffffffffff1673ffffffffffffffffffffffffffffffffffffffff1673ffffffffffffffffffffffffffffffffffffffff1681526020016003820160149054906101000a900460ff161515151581526020016003820160159054906101000a900460ff1615151515815250509050919050565b5f5f9054906101000a900473ffffffffffffffffffffffffffffffffffffffff1681565b5f8111611269576040517f08c379a000000000000000000000000000000000000000000000000000000000815260040161126090612a2b565b60405180910390fd5b5f5f5f9054906101000a900473ffffffffffffffffffffffffffffffffffffffff1673ffffffffffffffffffffffffffffffffffffffff1663504006ca846040518263ffffffff1660e01b81526004016112c39190611c28565b61016060405180830381865afa1580156112df573d5f5f3e3d5ffd5b505050506040513d601f19601f820116820180604052508101906113039190612166565b90505f815f01510361134a576040517f08c379a0000000000000000000000000000000000000000000000000000000008152600401611341906121dc565b60405180910390fd5b806020015173ffffffffffffffffffffffffffffffffffffffff163373ffffffffffffffffffffffffffffffffffffffff16146113bc576040517f08c379a00000000000000000000000000000000000000000000000000000000081526004016113b390612a93565b60405180910390fd5b5f5f60078111156113d0576113cf612262565b5b60ff168260e0015160ff1614806114035750600160078111156113f6576113f5612262565b5b60ff168260e0015160ff16145b90505f6002600781111561141a57611419612262565b5b60ff168360e0015160ff16148061144d5750600360078111156114405761143f612262565b5b60ff168360e0015160ff16145b905081806114585750805b611497576040517f08c379a000000000000000000000000000000000000000000000000000000000815260040161148e90612afb565b60405180910390fd5b5f60035f8781526020019081526020015f2090505f73ffffffffffffffffffffffffffffffffffffffff16816001015f9054906101000a900473ffffffffffffffffffffffffffffffffffffffff1673ffffffffffffffffffffffffffffffffffffffff16148061155a5750836060015173ffffffffffffffffffffffffffffffffffffffff16816001015f9054906101000a900473ffffffffffffffffffffffffffffffffffffffff1673ffffffffffffffffffffffffffffffffffffffff16145b611599576040517f08c379a000000000000000000000000000000000000000000000000000000000815260040161159090612b63565b60405180910390fd5b8060030160159054906101000a900460ff16156115eb576040517f08c379a00000000000000000000000000000000000000000000000000000000081526004016115e290611eed565b60405180910390fd5b8115611688575f815f015403611636576040517f08c379a000000000000000000000000000000000000000000000000000000000815260040161162d90611e85565b60405180910390fd5b8060030160149054906101000a900460ff16611687576040517f08c379a000000000000000000000000000000000000000000000000000000000815260040161167e90612bcb565b60405180910390fd5b5b85815f01819055508360600151816001015f6101000a81548173ffffffffffffffffffffffffffffffffffffffff021916908373ffffffffffffffffffffffffffffffffffffffff1602179055508360200151816003015f6101000a81548173ffffffffffffffffffffffffffffffffffffffff021916908373ffffffffffffffffffffffffffffffffffffffff16021790555084816002015f82825461172f9190612be9565b9250508190555060018160030160146101000a81548160ff021916908315150217905550836060015173ffffffffffffffffffffffffffffffffffffffff166323b872dd3330886040518463ffffffff1660e01b815260040161179493929190612c1c565b6020604051808303815f875af11580156117b0573d5f5f3e3d5ffd5b505050506040513d601f19601f820116820180604052508101906117d49190612348565b611813576040517f08c379a000000000000000000000000000000000000000000000000000000000815260040161180a906123bd565b60405180910390fd5b5f8585608001516118249190612be9565b90505f5f9054906101000a900473ffffffffffffffffffffffffffffffffffffffff1673ffffffffffffffffffffffffffffffffffffffff166319b19afd88836040518363ffffffff1660e01b8152600401611881929190612c51565b5f604051808303815f87803b158015611898575f5ffd5b505af11580156118aa573d5f5f3e3d5ffd5b5050505083806118d65750600360078111156118c9576118c8612262565b5b60ff168560e0015160ff16145b15611977575f5f9054906101000a900473ffffffffffffffffffffffffffffffffffffffff1673ffffffffffffffffffffffffffffffffffffffff1663ecdfa39f886002600781111561192c5761192b612262565b5b6040518363ffffffff1660e01b8152600401611949929190612548565b5f604051808303815f87803b158015611960575f5ffd5b505af1158015611972573d5f5f3e3d5ffd5b505050505b82156119d3573373ffffffffffffffffffffffffffffffffffffffff16877fd95a2b47d7ac2855a33bb43037f3f19f4ee8ee4398e626acab574a706ed9b93a88846040516119c6929190612c51565b60405180910390a3611a23565b3373ffffffffffffffffffffffffffffffffffffffff16877feec2f3feb835e2f2fd44281034b04700a1ddda63dd402949d470a25a7c40b36c88604051611a1a9190611c28565b60405180910390a35b50505050505050565b60015f9054906101000a900473ffffffffffffffffffffffffffffffffffffffff1681565b6040518060c001604052805f81526020015f73ffffffffffffffffffffffffffffffffffffffff1681526020015f81526020015f73ffffffffffffffffffffffffffffffffffffffff1681526020015f151581526020015f151581525090565b5f604051905090565b5f5ffd5b5f819050919050565b611ad081611abe565b8114611ada575f5ffd5b50565b5f81359050611aeb81611ac7565b92915050565b5f60208284031215611b0657611b05611aba565b5b5f611b1384828501611add565b91505092915050565b5f73ffffffffffffffffffffffffffffffffffffffff82169050919050565b5f611b4582611b1c565b9050919050565b611b5581611b3b565b82525050565b5f602082019050611b6e5f830184611b4c565b92915050565b611b7d81611b3b565b8114611b87575f5ffd5b50565b5f81359050611b9881611b74565b92915050565b5f60208284031215611bb357611bb2611aba565b5b5f611bc084828501611b8a565b91505092915050565b5f5f5f60608486031215611be057611bdf611aba565b5b5f611bed86828701611add565b9350506020611bfe86828701611add565b9250506040611c0f86828701611add565b9150509250925092565b611c2281611abe565b82525050565b5f602082019050611c3b5f830184611c19565b92915050565b5f8115159050919050565b611c5581611c41565b82525050565b5f60c082019050611c6e5f830189611c19565b611c7b6020830188611b4c565b611c886040830187611c19565b611c956060830186611b4c565b611ca26080830185611c4c565b611caf60a0830184611c4c565b979650505050505050565b611cc381611abe565b82525050565b611cd281611b3b565b82525050565b611ce181611c41565b82525050565b60c082015f820151611cfb5f850182611cba565b506020820151611d0e6020850182611cc9565b506040820151611d216040850182611cba565b506060820151611d346060850182611cc9565b506080820151611d476080850182611cd8565b5060a0820151611d5a60a0850182611cd8565b50505050565b5f60c082019050611d735f830184611ce7565b92915050565b5f819050919050565b5f611d9c611d97611d9284611b1c565b611d79565b611b1c565b9050919050565b5f611dad82611d82565b9050919050565b5f611dbe82611da3565b9050919050565b611dce81611db4565b82525050565b5f602082019050611de75f830184611dc5565b92915050565b5f5f60408385031215611e0357611e02611aba565b5b5f611e1085828601611add565b9250506020611e2185828601611add565b9150509250929050565b5f82825260208201905092915050565b7f5661756c74206e6f7420666f756e6400000000000000000000000000000000005f82015250565b5f611e6f600f83611e2b565b9150611e7a82611e3b565b602082019050919050565b5f6020820190508181035f830152611e9c81611e63565b9050919050565b7f436f6c6c61746572616c20616c7265616479206c6971756964617465640000005f82015250565b5f611ed7601d83611e2b565b9150611ee282611ea3565b602082019050919050565b5f6020820190508181035f830152611f0481611ecb565b9050919050565b7f4e6f20636f6c6c61746572616c20746f2072656c6561736500000000000000005f82015250565b5f611f3f601883611e2b565b9150611f4a82611f0b565b602082019050919050565b5f6020820190508181035f830152611f6c81611f33565b9050919050565b5f5ffd5b5f601f19601f8301169050919050565b7f4e487b71000000000000000000000000000000000000000000000000000000005f52604160045260245ffd5b611fbd82611f77565b810181811067ffffffffffffffff82111715611fdc57611fdb611f87565b5b80604052505050565b5f611fee611ab1565b9050611ffa8282611fb4565b919050565b5f8151905061200d81611ac7565b92915050565b5f8151905061202181611b74565b92915050565b5f60ff82169050919050565b61203c81612027565b8114612046575f5ffd5b50565b5f8151905061205781612033565b92915050565b5f610160828403121561207357612072611f73565b5b61207e610160611fe5565b90505f61208d84828501611fff565b5f8301525060206120a084828501612013565b60208301525060406120b484828501612013565b60408301525060606120c884828501612013565b60608301525060806120dc84828501611fff565b60808301525060a06120f084828501611fff565b60a08301525060c061210484828501611fff565b60c08301525060e061211884828501612049565b60e08301525061010061212d84828501611fff565b6101008301525061012061214384828501611fff565b6101208301525061014061215984828501611fff565b6101408301525092915050565b5f610160828403121561217c5761217b611aba565b5b5f6121898482850161205d565b91505092915050565b7f4c6f616e206e6f7420666f756e640000000000000000000000000000000000005f82015250565b5f6121c6600e83611e2b565b91506121d182612192565b602082019050919050565b5f6020820190508181035f8301526121f3816121ba565b9050919050565b7f4f6e6c7920626f72726f7765722063616e2072656c65617365000000000000005f82015250565b5f61222e601983611e2b565b9150612239826121fa565b602082019050919050565b5f6020820190508181035f83015261225b81612222565b9050919050565b7f4e487b71000000000000000000000000000000000000000000000000000000005f52602160045260245ffd5b7f4c6f616e206e6f742072656c65617361626c65000000000000000000000000005f82015250565b5f6122c3601383611e2b565b91506122ce8261228f565b602082019050919050565b5f6020820190508181035f8301526122f0816122b7565b9050919050565b5f60408201905061230a5f830185611b4c565b6123176020830184611c19565b9392505050565b61232781611c41565b8114612331575f5ffd5b50565b5f815190506123428161231e565b92915050565b5f6020828403121561235d5761235c611aba565b5b5f61236a84828501612334565b91505092915050565b7f5472616e73666572206661696c656400000000000000000000000000000000005f82015250565b5f6123a7600f83611e2b565b91506123b282612373565b602082019050919050565b5f6020820190508181035f8301526123d48161239b565b9050919050565b7f4e6f20636f6c6c61746572616c20746f206c69717569646174650000000000005f82015250565b5f61240f601a83611e2b565b915061241a826123db565b602082019050919050565b5f6020820190508181035f83015261243c81612403565b9050919050565b7f4f6e6c79206c69717569646174696f6e20656e67696e652063616e206c6971755f8201527f6964617465000000000000000000000000000000000000000000000000000000602082015250565b5f61249d602583611e2b565b91506124a882612443565b604082019050919050565b5f6020820190508181035f8301526124ca81612491565b9050919050565b7f4c6f616e206e6f74206c6971756964617461626c6500000000000000000000005f82015250565b5f612505601583611e2b565b9150612510826124d1565b602082019050919050565b5f6020820190508181035f830152612532816124f9565b9050919050565b61254281612027565b82525050565b5f60408201905061255b5f830185611c19565b6125686020830184612539565b9392505050565b7f436f6c6c61746572616c5661756c743a2063616c6c6572206973206e6f7420615f8201527f646d696e00000000000000000000000000000000000000000000000000000000602082015250565b5f6125c9602483611e2b565b91506125d48261256f565b604082019050919050565b5f6020820190508181035f8301526125f6816125bd565b9050919050565b7f496e76616c6964206c69717569646174696f6e20656e67696e650000000000005f82015250565b5f612631601a83611e2b565b915061263c826125fd565b602082019050919050565b5f6020820190508181035f83015261265e81612625565b9050919050565b7f4e6f20636f6c6c61746572616c000000000000000000000000000000000000005f82015250565b5f612699600d83611e2b565b91506126a482612665565b602082019050919050565b5f6020820190508181035f8301526126c68161268d565b9050919050565b7f496e76616c6964207072696365000000000000000000000000000000000000005f82015250565b5f612701600d83611e2b565b915061270c826126cd565b602082019050919050565b5f6020820190508181035f83015261272e816126f5565b9050919050565b7f4e487b71000000000000000000000000000000000000000000000000000000005f52601160045260245ffd5b5f8160011c9050919050565b5f5f8291508390505b60018511156127b75780860481111561279357612792612735565b5b60018516156127a25780820291505b80810290506127b085612762565b9450612777565b94509492505050565b5f826127cf576001905061288a565b816127dc575f905061288a565b81600181146127f257600281146127fc5761282b565b600191505061288a565b60ff84111561280e5761280d612735565b5b8360020a91508482111561282557612824612735565b5b5061288a565b5060208310610133831016604e8410600b84101617156128605782820a90508381111561285b5761285a612735565b5b61288a565b61286d848484600161276e565b9250905081840481111561288457612883612735565b5b81810290505b9392505050565b5f61289b82611abe565b91506128a683611abe565b92506128d37fffffffffffffffffffffffffffffffffffffffffffffffffffffffffffffffff84846127c0565b905092915050565b5f6128e582611abe565b91506128f083611abe565b92508282026128fe81611abe565b9150828204841483151761291557612914612735565b5b5092915050565b7f4e487b71000000000000000000000000000000000000000000000000000000005f52601260045260245ffd5b5f61295382611abe565b915061295e83611abe565b92508261296e5761296d61291c565b5b828204905092915050565b7f436f6c6c61746572616c2076616c7565206973207a65726f00000000000000005f82015250565b5f6129ad601883611e2b565b91506129b882612979565b602082019050919050565b5f6020820190508181035f8301526129da816129a1565b9050919050565b7f416d6f756e74206d757374206265203e203000000000000000000000000000005f82015250565b5f612a15601283611e2b565b9150612a20826129e1565b602082019050919050565b5f6020820190508181035f830152612a4281612a09565b9050919050565b7f4f6e6c7920626f72726f7765722063616e206465706f736974000000000000005f82015250565b5f612a7d601983611e2b565b9150612a8882612a49565b602082019050919050565b5f6020820190508181035f830152612aaa81612a71565b9050919050565b7f4c6f616e206e6f74206465706f73697461626c650000000000000000000000005f82015250565b5f612ae5601483611e2b565b9150612af082612ab1565b602082019050919050565b5f6020820190508181035f830152612b1281612ad9565b9050919050565b7f436f6c6c61746572616c20746f6b656e206d69736d61746368000000000000005f82015250565b5f612b4d601983611e2b565b9150612b5882612b19565b602082019050919050565b5f6020820190508181035f830152612b7a81612b41565b9050919050565b7f5661756c74206e6f74206c6f636b6564000000000000000000000000000000005f82015250565b5f612bb5601083611e2b565b9150612bc082612b81565b602082019050919050565b5f6020820190508181035f830152612be281612ba9565b9050919050565b5f612bf382611abe565b9150612bfe83611abe565b9250828201905080821115612c1657612c15612735565b5b92915050565b5f606082019050612c2f5f830186611b4c565b612c3c6020830185611b4c565b612c496040830184611c19565b949350505050565b5f604082019050612c645f830185611c19565b612c716020830184611c19565b939250505056fea2646970667358221220ad163baaa3ef6be46736d32403329f2c990734675032dde4db0f75ce3dc6c9eb64736f6c63430008230033","linkReferences":{}},"methodIdentifiers":{"admin()":"f851a440","calculateLtv(uint256,uint256,uint256)":"5be1c68b","depositCollateral(uint256,uint256)":"ece13732","getVault(uint256)":"9403b634","liquidateCollateral(uint256)":"3938ccdf","liquidationEngine()":"44bf3c72","loanRegistry()":"a77957ea","releaseCollateral(uint256)":"39007b77","setLiquidationEngine(address)":"4d298abd","vaults(uint256)":"8c64ea4a"},"id":1}