{"abi":[{"type":"constructor","inputs":[{"name":"loanRegistryAddress","type":"address","internalType":"address"}],"stateMutability":"nonpayable"},{"type":"function","name":"admin","inputs":[],"outputs":[{"name":"","type":"address","internalType":"address"}],"stateMutability":"view"},{"type":"function","name":"calculateLtv","inputs":[{"name":"loanId","type":"uint256","internalType":"uint256"},{"name":"collateralPrice","type":"uint256","internalType":"uint256"},{"name":"priceDecimals","type":"uint256","internalType":"uint256"}],"outputs":[{"name":"","type":"uint256","internalType":"uint256"}],"stateMutability":"view"},{"type":"function","name":"depositCollateral","inputs":[{"name":"loanId","type":"uint256","internalType":"uint256"},{"name":"amount","type":"uint256","internalType":"uint256"}],"outputs":[],"stateMutability":"nonpayable"},{"type":"function","name":"getVault","inputs":[{"name":"loanId","type":"uint256","internalType":"uint256"}],"outputs":[{"name":"","type":"tuple","internalType":"struct CollateralVault.Vault","components":[{"name":"loanId","type":"uint256","internalType":"uint256"},{"name":"collateralToken","type":"address","internalType":"address"},{"name":"amount","type":"uint256","internalType":"uint256"},{"name":"borrower","type":"address","internalType":"address"},{"name":"locked","type":"bool","internalType":"bool"},{"name":"liquidated","type":"bool","internalType":"bool"}]}],"stateMutability":"view"},{"type":"function","name":"liquidateCollateral","inputs":[{"name":"loanId","type":"uint256","internalType":"uint256"}],"outputs":[],"stateMutability":"nonpayable"},{"type":"function","name":"liquidationEngine","inputs":[],"outputs":[{"name":"","type":"address","internalType":"address"}],"stateMutability":"view"},{"type":"function","name":"loanRegistry","inputs":[],"outputs":[{"name":"","type":"address","internalType":"contract LoanRegistry"}],"stateMutability":"view"},{"type":"function","name":"releaseCollateral","inputs":[{"name":"loanId","type":"uint256","internalType":"uint256"}],"outputs":[],"stateMutability":"nonpayable"},{"type":"function","name":"setLiquidationEngine","inputs":[{"name":"engine","type":"address","internalType":"address"}],"outputs":[],"stateMutability":"nonpayable"},{"type":"function","name":"vaults","inputs":[{"name":"","type":"uint256","internalType":"uint256"}],"outputs":[{"name":"loanId","type":"uint256","internalType":"uint256"},{"name":"collateralToken","type":"address","internalType":"address"},{"name":"amount","type":"uint256","internalType":"uint256"},{"name":"borrower","type":"address","internalType":"address"},{"name":"locked","type":"bool","internalType":"bool"},{"name":"liquidated","type":"bool","internalType":"bool"}],"stateMutability":"view"},{"type":"event","name":"CollateralDeposited","inputs":[{"name":"loanId","type":"uint256","indexed":true,"internalType":"uint256"},{"name":"borrower","type":"address","indexed":true,"internalType":"address"},{"name":"amount","type":"uint256","indexed":false,"internalType":"uint256"}],"anonymous":false},{"type":"event","name":"CollateralLiquidated","inputs":[{"name":"loanId","type":"uint256","indexed":true,"internalType":"uint256"},{"name":"amount","type":"uint256","indexed":false,"internalType":"uint256"}],"anonymous":false},{"type":"event","name":"CollateralReleased","inputs":[{"name":"loanId","type":"uint256","indexed":true,"internalType":"uint256"},{"name":"amount","type":"uint256","indexed":false,"internalType":"uint256"}],"anonymous":false},{"type":"event","name":"LiquidationEngineSet","inputs":[{"name":"oldEngine","type":"address","indexed":true,"internalType":"address"},{"name":"newEngine","type":"address","indexed":true,"internalType":"address"}],"anonymous":false}],"bytecode":{"object":"0x608060405234801561000f575f5ffd5b50604051612cb4380380612cb483398181016040528101906100319190610182565b5f73ffffffffffffffffffffffffffffffffffffffff168173ffffffffffffffffffffffffffffffffffffffff160361009f576040517f08c379a000000000000000000000000000000000000000000000000000000000815260040161009690610207565b60405180910390fd5b805f5f6101000a81548173ffffffffffffffffffffffffffffffffffffffff021916908373ffffffffffffffffffffffffffffffffffffffff1602179055503360015f6101000a81548173ffffffffffffffffffffffffffffffffffffffff021916908373ffffffffffffffffffffffffffffffffffffffff16021790555050610225565b5f5ffd5b5f73ffffffffffffffffffffffffffffffffffffffff82169050919050565b5f61015182610128565b9050919050565b61016181610147565b811461016b575f5ffd5b50565b5f8151905061017c81610158565b92915050565b5f6020828403121561019757610196610124565b5b5f6101a48482850161016e565b91505092915050565b5f82825260208201905092915050565b7f496e76616c6964207265676973747279206164647265737300000000000000005f82015250565b5f6101f16018836101ad565b91506101fc826101bd565b602082019050919050565b5f6020820190508181035f83015261021e816101e5565b9050919050565b612a82806102325f395ff3fe608060405234801561000f575f5ffd5b506004361061009c575f3560e01c80638c64ea4a116100645780638c64ea4a146101425780639403b63414610177578063a77957ea146101a7578063ece13732146101c5578063f851a440146101e15761009c565b806339007b77146100a05780633938ccdf146100bc57806344bf3c72146100d85780634d298abd146100f65780635be1c68b14610112575b5f5ffd5b6100ba60048036038101906100b5919061192d565b6101ff565b005b6100d660048036038101906100d1919061192d565b610652565b005b6100e0610b77565b6040516100ed9190611997565b60405180910390f35b610110600480360381019061010b91906119da565b610b9c565b005b61012c60048036038101906101279190611a05565b610d57565b6040516101399190611a64565b60405180910390f35b61015c6004803603810190610157919061192d565b611068565b60405161016e96959493929190611a97565b60405180910390f35b610191600480360381019061018c919061192d565b6110f8565b60405161019e9190611b9c565b60405180910390f35b6101af611216565b6040516101bc9190611c10565b60405180910390f35b6101df60048036038101906101da9190611c29565b61123a565b005b6101e9611868565b6040516101f69190611997565b60405180910390f35b5f60035f8381526020019081526020015f2090505f815f015403610258576040517f08c379a000000000000000000000000000000000000000000000000000000000815260040161024f90611cc1565b60405180910390fd5b8060030160159054906101000a900460ff16156102aa576040517f08c379a00000000000000000000000000000000000000000000000000000000081526004016102a190611d29565b60405180910390fd5b5f8160020154116102f0576040517f08c379a00000000000000000000000000000000000000000000000000000000081526004016102e790611d91565b60405180910390fd5b5f5f5f9054906101000a900473ffffffffffffffffffffffffffffffffffffffff1673ffffffffffffffffffffffffffffffffffffffff1663504006ca846040518263ffffffff1660e01b815260040161034a9190611a64565b61016060405180830381865afa158015610366573d5f5f3e3d5ffd5b505050506040513d601f19601f8201168201806040525081019061038a9190611fa2565b90505f815f0151036103d1576040517f08c379a00000000000000000000000000000000000000000000000000000000081526004016103c890612018565b60405180910390fd5b816003015f9054906101000a900473ffffffffffffffffffffffffffffffffffffffff1673ffffffffffffffffffffffffffffffffffffffff163373ffffffffffffffffffffffffffffffffffffffff1614610462576040517f08c379a000000000000000000000000000000000000000000000000000000000815260040161045990612080565b60405180910390fd5b600460078111156104765761047561209e565b5b60ff168160e0015160ff1614806104a8575060078081111561049b5761049a61209e565b5b60ff168160e0015160ff16145b6104e7576040517f08c379a00000000000000000000000000000000000000000000000000000000081526004016104de90612115565b60405180910390fd5b5f826002015490505f83600201819055505f8360030160146101000a81548160ff021916908315150217905550826001015f9054906101000a900473ffffffffffffffffffffffffffffffffffffffff1673ffffffffffffffffffffffffffffffffffffffff1663a9059cbb846003015f9054906101000a900473ffffffffffffffffffffffffffffffffffffffff16836040518363ffffffff1660e01b8152600401610595929190612133565b6020604051808303815f875af11580156105b1573d5f5f3e3d5ffd5b505050506040513d601f19601f820116820180604052508101906105d59190612184565b610614576040517f08c379a000000000000000000000000000000000000000000000000000000000815260040161060b906121f9565b60405180910390fd5b837fd6513284110ca9c03fb9099da6d3e2c1c34761de7886e2185080cc9a91a46307826040516106449190611a64565b60405180910390a250505050565b5f60035f8381526020019081526020015f2090505f815f0154036106ab576040517f08c379a00000000000000000000000000000000000000000000000000000000081526004016106a290611cc1565b60405180910390fd5b8060030160159054906101000a900460ff16156106fd576040517f08c379a00000000000000000000000000000000000000000000000000000000081526004016106f490611d29565b60405180910390fd5b5f816002015411610743576040517f08c379a000000000000000000000000000000000000000000000000000000000815260040161073a90612261565b60405180910390fd5b5f5f5f9054906101000a900473ffffffffffffffffffffffffffffffffffffffff1673ffffffffffffffffffffffffffffffffffffffff1663504006ca846040518263ffffffff1660e01b815260040161079d9190611a64565b61016060405180830381865afa1580156107b9573d5f5f3e3d5ffd5b505050506040513d601f19601f820116820180604052508101906107dd9190611fa2565b90505f815f015103610824576040517f08c379a000000000000000000000000000000000000000000000000000000000815260040161081b90612018565b60405180910390fd5b806040015173ffffffffffffffffffffffffffffffffffffffff163373ffffffffffffffffffffffffffffffffffffffff1614806108ae575060025f9054906101000a900473ffffffffffffffffffffffffffffffffffffffff1673ffffffffffffffffffffffffffffffffffffffff163373ffffffffffffffffffffffffffffffffffffffff16145b6108ed576040517f08c379a00000000000000000000000000000000000000000000000000000000081526004016108e4906122ef565b60405180910390fd5b600260078111156109015761090061209e565b5b60ff168160e0015160ff1614806109345750600360078111156109275761092661209e565b5b60ff168160e0015160ff16145b610973576040517f08c379a000000000000000000000000000000000000000000000000000000000815260040161096a90612357565b60405180910390fd5b5f826002015490505f83600201819055505f8360030160146101000a81548160ff02191690831515021790555060018360030160156101000a81548160ff021916908315150217905550826001015f9054906101000a900473ffffffffffffffffffffffffffffffffffffffff1673ffffffffffffffffffffffffffffffffffffffff1663a9059cbb8360400151836040518363ffffffff1660e01b8152600401610a1f929190612133565b6020604051808303815f875af1158015610a3b573d5f5f3e3d5ffd5b505050506040513d601f19601f82011682018060405250810190610a5f9190612184565b610a9e576040517f08c379a0000000000000000000000000000000000000000000000000000000008152600401610a95906121f9565b60405180910390fd5b5f5f9054906101000a900473ffffffffffffffffffffffffffffffffffffffff1673ffffffffffffffffffffffffffffffffffffffff1663ecdfa39f8560066007811115610aef57610aee61209e565b5b6040518363ffffffff1660e01b8152600401610b0c929190612384565b5f604051808303815f87803b158015610b23575f5ffd5b505af1158015610b35573d5f5f3e3d5ffd5b50505050837f524adb2d966e366fe4ac4c5d94b814afdb2e4a8879615407f112a91812251b6082604051610b699190611a64565b60405180910390a250505050565b60025f9054906101000a900473ffffffffffffffffffffffffffffffffffffffff1681565b60015f9054906101000a900473ffffffffffffffffffffffffffffffffffffffff1673ffffffffffffffffffffffffffffffffffffffff163373ffffffffffffffffffffffffffffffffffffffff1614610c2b576040517f08c379a0000000000000000000000000000000000000000000000000000000008152600401610c229061241b565b60405180910390fd5b5f73ffffffffffffffffffffffffffffffffffffffff168173ffffffffffffffffffffffffffffffffffffffff1603610c99576040517f08c379a0000000000000000000000000000000000000000000000000000000008152600401610c9090612483565b60405180910390fd5b8073ffffffffffffffffffffffffffffffffffffffff1660025f9054906101000a900473ffffffffffffffffffffffffffffffffffffffff1673ffffffffffffffffffffffffffffffffffffffff167fcfedc450a13b10a5afb3da45e43b35da1488118f862fe51018bb97405389425d60405160405180910390a38060025f6101000a81548173ffffffffffffffffffffffffffffffffffffffff021916908373ffffffffffffffffffffffffffffffffffffffff16021790555050565b5f5f5f5f9054906101000a900473ffffffffffffffffffffffffffffffffffffffff1673ffffffffffffffffffffffffffffffffffffffff1663504006ca866040518263ffffffff1660e01b8152600401610db29190611a64565b61016060405180830381865afa158015610dce573d5f5f3e3d5ffd5b505050506040513d601f19601f82011682018060405250810190610df29190611fa2565b90505f815f015103610e39576040517f08c379a0000000000000000000000000000000000000000000000000000000008152600401610e3090612018565b60405180910390fd5b5f60035f8781526020019081526020015f206040518060c00160405290815f8201548152602001600182015f9054906101000a900473ffffffffffffffffffffffffffffffffffffffff1673ffffffffffffffffffffffffffffffffffffffff1673ffffffffffffffffffffffffffffffffffffffff16815260200160028201548152602001600382015f9054906101000a900473ffffffffffffffffffffffffffffffffffffffff1673ffffffffffffffffffffffffffffffffffffffff1673ffffffffffffffffffffffffffffffffffffffff1681526020016003820160149054906101000a900460ff161515151581526020016003820160159054906101000a900460ff16151515158152505090505f816040015111610f91576040517f08c379a0000000000000000000000000000000000000000000000000000000008152600401610f88906124eb565b60405180910390fd5b5f8511610fd3576040517f08c379a0000000000000000000000000000000000000000000000000000000008152600401610fca90612553565b60405180910390fd5b5f84600a610fe191906126cd565b868360400151610ff19190612717565b610ffb9190612785565b90505f811161103f576040517f08c379a0000000000000000000000000000000000000000000000000000000008152600401611036906127ff565b60405180910390fd5b806127108460a001516110529190612717565b61105c9190612785565b93505050509392505050565b6003602052805f5260405f205f91509050805f015490806001015f9054906101000a900473ffffffffffffffffffffffffffffffffffffffff1690806002015490806003015f9054906101000a900473ffffffffffffffffffffffffffffffffffffffff16908060030160149054906101000a900460ff16908060030160159054906101000a900460ff16905086565b61110061188d565b60035f8381526020019081526020015f206040518060c00160405290815f8201548152602001600182015f9054906101000a900473ffffffffffffffffffffffffffffffffffffffff1673ffffffffffffffffffffffffffffffffffffffff1673ffffffffffffffffffffffffffffffffffffffff16815260200160028201548152602001600382015f9054906101000a900473ffffffffffffffffffffffffffffffffffffffff1673ffffffffffffffffffffffffffffffffffffffff1673ffffffffffffffffffffffffffffffffffffffff1681526020016003820160149054906101000a900460ff161515151581526020016003820160159054906101000a900460ff1615151515815250509050919050565b5f5f9054906101000a900473ffffffffffffffffffffffffffffffffffffffff1681565b5f811161127c576040517f08c379a000000000000000000000000000000000000000000000000000000000815260040161127390612867565b60405180910390fd5b5f5f5f9054906101000a900473ffffffffffffffffffffffffffffffffffffffff1673ffffffffffffffffffffffffffffffffffffffff1663504006ca846040518263ffffffff1660e01b81526004016112d69190611a64565b61016060405180830381865afa1580156112f2573d5f5f3e3d5ffd5b505050506040513d601f19601f820116820180604052508101906113169190611fa2565b90505f815f01510361135d576040517f08c379a000000000000000000000000000000000000000000000000000000000815260040161135490612018565b60405180910390fd5b806020015173ffffffffffffffffffffffffffffffffffffffff163373ffffffffffffffffffffffffffffffffffffffff16146113cf576040517f08c379a00000000000000000000000000000000000000000000000000000000081526004016113c6906128cf565b60405180910390fd5b5f60078111156113e2576113e161209e565b5b60ff168160e0015160ff1614806114155750600160078111156114085761140761209e565b5b60ff168160e0015160ff16145b611454576040517f08c379a000000000000000000000000000000000000000000000000000000000815260040161144b90612937565b60405180910390fd5b5f60035f8581526020019081526020015f2090505f73ffffffffffffffffffffffffffffffffffffffff16816001015f9054906101000a900473ffffffffffffffffffffffffffffffffffffffff1673ffffffffffffffffffffffffffffffffffffffff1614806115175750816060015173ffffffffffffffffffffffffffffffffffffffff16816001015f9054906101000a900473ffffffffffffffffffffffffffffffffffffffff1673ffffffffffffffffffffffffffffffffffffffff16145b611556576040517f08c379a000000000000000000000000000000000000000000000000000000000815260040161154d9061299f565b60405180910390fd5b83815f01819055508160600151816001015f6101000a81548173ffffffffffffffffffffffffffffffffffffffff021916908373ffffffffffffffffffffffffffffffffffffffff1602179055508160200151816003015f6101000a81548173ffffffffffffffffffffffffffffffffffffffff021916908373ffffffffffffffffffffffffffffffffffffffff16021790555082816002015f8282546115fd91906129bd565b9250508190555060018160030160146101000a81548160ff021916908315150217905550816060015173ffffffffffffffffffffffffffffffffffffffff166323b872dd3330866040518463ffffffff1660e01b8152600401611662939291906129f0565b6020604051808303815f875af115801561167e573d5f5f3e3d5ffd5b505050506040513d601f19601f820116820180604052508101906116a29190612184565b6116e1576040517f08c379a00000000000000000000000000000000000000000000000000000000081526004016116d8906121f9565b60405180910390fd5b5f5f9054906101000a900473ffffffffffffffffffffffffffffffffffffffff1673ffffffffffffffffffffffffffffffffffffffff166319b19afd8585856080015161172e91906129bd565b6040518363ffffffff1660e01b815260040161174b929190612a25565b5f604051808303815f87803b158015611762575f5ffd5b505af1158015611774573d5f5f3e3d5ffd5b505050505f5f9054906101000a900473ffffffffffffffffffffffffffffffffffffffff1673ffffffffffffffffffffffffffffffffffffffff1663ecdfa39f85600260078111156117c9576117c861209e565b5b6040518363ffffffff1660e01b81526004016117e6929190612384565b5f604051808303815f87803b1580156117fd575f5ffd5b505af115801561180f573d5f5f3e3d5ffd5b505050503373ffffffffffffffffffffffffffffffffffffffff16847feec2f3feb835e2f2fd44281034b04700a1ddda63dd402949d470a25a7c40b36c8560405161185a9190611a64565b60405180910390a350505050565b60015f9054906101000a900473ffffffffffffffffffffffffffffffffffffffff1681565b6040518060c001604052805f81526020015f73ffffffffffffffffffffffffffffffffffffffff1681526020015f81526020015f73ffffffffffffffffffffffffffffffffffffffff1681526020015f151581526020015f151581525090565b5f604051905090565b5f5ffd5b5f819050919050565b61190c816118fa565b8114611916575f5ffd5b50565b5f8135905061192781611903565b92915050565b5f60208284031215611942576119416118f6565b5b5f61194f84828501611919565b91505092915050565b5f73ffffffffffffffffffffffffffffffffffffffff82169050919050565b5f61198182611958565b9050919050565b61199181611977565b82525050565b5f6020820190506119aa5f830184611988565b92915050565b6119b981611977565b81146119c3575f5ffd5b50565b5f813590506119d4816119b0565b92915050565b5f602082840312156119ef576119ee6118f6565b5b5f6119fc848285016119c6565b91505092915050565b5f5f5f60608486031215611a1c57611a1b6118f6565b5b5f611a2986828701611919565b9350506020611a3a86828701611919565b9250506040611a4b86828701611919565b9150509250925092565b611a5e816118fa565b82525050565b5f602082019050611a775f830184611a55565b92915050565b5f8115159050919050565b611a9181611a7d565b82525050565b5f60c082019050611aaa5f830189611a55565b611ab76020830188611988565b611ac46040830187611a55565b611ad16060830186611988565b611ade6080830185611a88565b611aeb60a0830184611a88565b979650505050505050565b611aff816118fa565b82525050565b611b0e81611977565b82525050565b611b1d81611a7d565b82525050565b60c082015f820151611b375f850182611af6565b506020820151611b4a6020850182611b05565b506040820151611b5d6040850182611af6565b506060820151611b706060850182611b05565b506080820151611b836080850182611b14565b5060a0820151611b9660a0850182611b14565b50505050565b5f60c082019050611baf5f830184611b23565b92915050565b5f819050919050565b5f611bd8611bd3611bce84611958565b611bb5565b611958565b9050919050565b5f611be982611bbe565b9050919050565b5f611bfa82611bdf565b9050919050565b611c0a81611bf0565b82525050565b5f602082019050611c235f830184611c01565b92915050565b5f5f60408385031215611c3f57611c3e6118f6565b5b5f611c4c85828601611919565b9250506020611c5d85828601611919565b9150509250929050565b5f82825260208201905092915050565b7f5661756c74206e6f7420666f756e6400000000000000000000000000000000005f82015250565b5f611cab600f83611c67565b9150611cb682611c77565b602082019050919050565b5f6020820190508181035f830152611cd881611c9f565b9050919050565b7f436f6c6c61746572616c20616c7265616479206c6971756964617465640000005f82015250565b5f611d13601d83611c67565b9150611d1e82611cdf565b602082019050919050565b5f6020820190508181035f830152611d4081611d07565b9050919050565b7f4e6f20636f6c6c61746572616c20746f2072656c6561736500000000000000005f82015250565b5f611d7b601883611c67565b9150611d8682611d47565b602082019050919050565b5f6020820190508181035f830152611da881611d6f565b9050919050565b5f5ffd5b5f601f19601f8301169050919050565b7f4e487b71000000000000000000000000000000000000000000000000000000005f52604160045260245ffd5b611df982611db3565b810181811067ffffffffffffffff82111715611e1857611e17611dc3565b5b80604052505050565b5f611e2a6118ed565b9050611e368282611df0565b919050565b5f81519050611e4981611903565b92915050565b5f81519050611e5d816119b0565b92915050565b5f60ff82169050919050565b611e7881611e63565b8114611e82575f5ffd5b50565b5f81519050611e9381611e6f565b92915050565b5f6101608284031215611eaf57611eae611daf565b5b611eba610160611e21565b90505f611ec984828501611e3b565b5f830152506020611edc84828501611e4f565b6020830152506040611ef084828501611e4f565b6040830152506060611f0484828501611e4f565b6060830152506080611f1884828501611e3b565b60808301525060a0611f2c84828501611e3b565b60a08301525060c0611f4084828501611e3b565b60c08301525060e0611f5484828501611e85565b60e083015250610100611f6984828501611e3b565b61010083015250610120611f7f84828501611e3b565b61012083015250610140611f9584828501611e3b565b6101408301525092915050565b5f6101608284031215611fb857611fb76118f6565b5b5f611fc584828501611e99565b91505092915050565b7f4c6f616e206e6f7420666f756e640000000000000000000000000000000000005f82015250565b5f612002600e83611c67565b915061200d82611fce565b602082019050919050565b5f6020820190508181035f83015261202f81611ff6565b9050919050565b7f4f6e6c7920626f72726f7765722063616e2072656c65617365000000000000005f82015250565b5f61206a601983611c67565b915061207582612036565b602082019050919050565b5f6020820190508181035f8301526120978161205e565b9050919050565b7f4e487b71000000000000000000000000000000000000000000000000000000005f52602160045260245ffd5b7f4c6f616e206e6f742072656c65617361626c65000000000000000000000000005f82015250565b5f6120ff601383611c67565b915061210a826120cb565b602082019050919050565b5f6020820190508181035f83015261212c816120f3565b9050919050565b5f6040820190506121465f830185611988565b6121536020830184611a55565b9392505050565b61216381611a7d565b811461216d575f5ffd5b50565b5f8151905061217e8161215a565b92915050565b5f60208284031215612199576121986118f6565b5b5f6121a684828501612170565b91505092915050565b7f5472616e73666572206661696c656400000000000000000000000000000000005f82015250565b5f6121e3600f83611c67565b91506121ee826121af565b602082019050919050565b5f6020820190508181035f830152612210816121d7565b9050919050565b7f4e6f20636f6c6c61746572616c20746f206c69717569646174650000000000005f82015250565b5f61224b601a83611c67565b915061225682612217565b602082019050919050565b5f6020820190508181035f8301526122788161223f565b9050919050565b7f4f6e6c79206f726967696e61746f72206f72206c69717569646174696f6e20655f8201527f6e67696e652063616e206c697175696461746500000000000000000000000000602082015250565b5f6122d9603383611c67565b91506122e48261227f565b604082019050919050565b5f6020820190508181035f830152612306816122cd565b9050919050565b7f4c6f616e206e6f74206c6971756964617461626c6500000000000000000000005f82015250565b5f612341601583611c67565b915061234c8261230d565b602082019050919050565b5f6020820190508181035f83015261236e81612335565b9050919050565b61237e81611e63565b82525050565b5f6040820190506123975f830185611a55565b6123a46020830184612375565b9392505050565b7f436f6c6c61746572616c5661756c743a2063616c6c6572206973206e6f7420615f8201527f646d696e00000000000000000000000000000000000000000000000000000000602082015250565b5f612405602483611c67565b9150612410826123ab565b604082019050919050565b5f6020820190508181035f830152612432816123f9565b9050919050565b7f496e76616c6964206c69717569646174696f6e20656e67696e650000000000005f82015250565b5f61246d601a83611c67565b915061247882612439565b602082019050919050565b5f6020820190508181035f83015261249a81612461565b9050919050565b7f4e6f20636f6c6c61746572616c000000000000000000000000000000000000005f82015250565b5f6124d5600d83611c67565b91506124e0826124a1565b602082019050919050565b5f6020820190508181035f830152612502816124c9565b9050919050565b7f496e76616c6964207072696365000000000000000000000000000000000000005f82015250565b5f61253d600d83611c67565b915061254882612509565b602082019050919050565b5f6020820190508181035f83015261256a81612531565b9050919050565b7f4e487b71000000000000000000000000000000000000000000000000000000005f52601160045260245ffd5b5f8160011c9050919050565b5f5f8291508390505b60018511156125f3578086048111156125cf576125ce612571565b5b60018516156125de5780820291505b80810290506125ec8561259e565b94506125b3565b94509492505050565b5f8261260b57600190506126c6565b81612618575f90506126c6565b816001811461262e576002811461263857612667565b60019150506126c6565b60ff84111561264a57612649612571565b5b8360020a91508482111561266157612660612571565b5b506126c6565b5060208310610133831016604e8410600b841016171561269c5782820a90508381111561269757612696612571565b5b6126c6565b6126a984848460016125aa565b925090508184048111156126c0576126bf612571565b5b81810290505b9392505050565b5f6126d7826118fa565b91506126e2836118fa565b925061270f7fffffffffffffffffffffffffffffffffffffffffffffffffffffffffffffffff84846125fc565b905092915050565b5f612721826118fa565b915061272c836118fa565b925082820261273a816118fa565b9150828204841483151761275157612750612571565b5b5092915050565b7f4e487b71000000000000000000000000000000000000000000000000000000005f52601260045260245ffd5b5f61278f826118fa565b915061279a836118fa565b9250826127aa576127a9612758565b5b828204905092915050565b7f436f6c6c61746572616c2076616c7565206973207a65726f00000000000000005f82015250565b5f6127e9601883611c67565b91506127f4826127b5565b602082019050919050565b5f6020820190508181035f830152612816816127dd565b9050919050565b7f416d6f756e74206d757374206265203e203000000000000000000000000000005f82015250565b5f612851601283611c67565b915061285c8261281d565b602082019050919050565b5f6020820190508181035f83015261287e81612845565b9050919050565b7f4f6e6c7920626f72726f7765722063616e206465706f736974000000000000005f82015250565b5f6128b9601983611c67565b91506128c482612885565b602082019050919050565b5f6020820190508181035f8301526128e6816128ad565b9050919050565b7f4c6f616e206e6f74206465706f73697461626c650000000000000000000000005f82015250565b5f612921601483611c67565b915061292c826128ed565b602082019050919050565b5f6020820190508181035f83015261294e81612915565b9050919050565b7f436f6c6c61746572616c20746f6b656e206d69736d61746368000000000000005f82015250565b5f612989601983611c67565b915061299482612955565b602082019050919050565b5f6020820190508181035f8301526129b68161297d565b9050919050565b5f6129c7826118fa565b91506129d2836118fa565b92508282019050808211156129ea576129e9612571565b5b92915050565b5f606082019050612a035f830186611988565b612a106020830185611988565b612a1d6040830184611a55565b949350505050565b5f604082019050612a385f830185611a55565b612a456020830184611a55565b939250505056fea264697066735822122094ea421d41c1ddc55a541d36351b753ca61ac2bf13fddc1bd64814a10f62d98664736f6c63430008210033","linkReferences":{}},"methodIdentifiers":{"admin()":"f851a440","calculateLtv(uint256,uint256,uint256)":"5be1c68b","depositCollateral(uint256,uint256)":"ece13732","getVault(uint256)":"9403b634","liquidateCollateral(uint256)":"3938ccdf","liquidationEngine()":"44bf3c72","loanRegistry()":"a77957ea","releaseCollateral(uint256)":"39007b77","setLiquidationEngine(address)":"4d298abd","vaults(uint256)":"8c64ea4a"},"id":0}